:020000040800F2
:1000000018050020A101000897630008A324000838
:100010009563000825040008B96700080000000087
:100020000000000000000000000000009B630008CA
:100030002704000800000000996300089D63000881
:10004000BB010008BB010008BB010008BB010008A0
:10005000BB010008BB010008BB010008BB01000890
:10006000BB010008BB010008BB010008BB01000880
:10007000BB010008BB010008BB010008BB01000870
:10008000BB010008BB010008BB010008BB01000860
:10009000BB010008BB010008BB01000829040008DF
:1000A000BB010008BB010008BB010008BB01000840
:1000B000BB010008BB010008BB010008BB01000830
:1000C000BB010008BB010008BB010008BB01000820
:1000D000BB010008AD670008BB010008BB010008B8
:1000E000BB010008BB010008BB010008BB01000800
:1000F000BB010008BB010008BB010008BB010008F0
:10010000BB010008BB010008BB010008BB010008DF
:10011000BB010008BB010008BB010008BB010008CF
:10012000BB010008BB010008BB010008BB010008BF
:10013000BB010008BB010008BB010008BB010008AF
:10014000BB010008BB010008BB010008BB0100089F
:10015000BB010008BB010008BB010008BB0100088F
:10016000BB010008BB010008BB010008BB0100087F
:10017000BB010008BB010008BB0100080000000033
:10018000BB010008BB010008DFF810D000F07CF8CC
:1001900000480047F96A0008AFF300801805002006
:1001A0000648804706480047FEE7FEE7FEE7FEE711
:1001B000FEE7FEE7FEE7FEE7FEE7FEE73564000840
:1001C000890100082DE9F05F0546002092469B4614
:1001D00088460646814640241BE02846414647465D
:1001E000224600F041F853465A46C01A914110D3B6
:1001F00011461846224600F028F82D1A67EB010830
:100200004F4622460120002100F01FF817EB00099D
:100210004E41201EA4F10104DFDC484631462A4647
:100220004346BDE8F09FD2B201E000F8012B491E21
:10023000FBD270470022F6E710B513460A46044683
:100240001946FFF7F0FF204610BD202A04DB203AB4
:1002500000FA02F1002070479140C2F1200320FA19
:1002600003F3194390407047202A04DB203A21FA17
:1002700002F00021704721FA02F3D040C2F12002BF
:100280009140084319467047064C074D06E0E06868
:1002900040F0010394E8070098471034AC42F6D3CD
:1002A000FFF776FF208300084083000810B504465E
:1002B0004B48416821F44031416041686268114314
:1002C00041602068416821F4807141602068416884
:1002D000226941EA022141602068416821F04071B1
:1002E000416020684168A2681143416020688168CC
:1002F00021F40061816020688168E26811438160B7
:10030000A06A6FF07061C8422068816821F0706156
:100310008160206881680CD0A26A114381602068E6
:10032000816821F04051816020688168E26A114350
:1003300001E021F0405181602068816821F00201D4
:10034000816020688168227E41EA4201816094F8E0
:10035000200000283FD0606A401E072804D94FF4CF
:10036000F56120A006F0BAFB2068416841F4006105
:1003700041602068416821F4604141602068416823
:10038000264B626A03EB4232114341602068C16A26
:1003900021F47001C1622068C16AA28B204B03EB7B
:1003A00002521143C1622068816821F400718160AA
:1003B0002068816894F8302041EA422181602068F9
:1003C000816821F48061816020688168626941EA06
:1003D0008221816010BD2068416821F40061D4E76A
:1003E000002301402E2E2F447269766572732F53BD
:1003F000544D3332463478785F48414C5F447269DB
:100400007665722F5372632F73746D33326634784E
:10041000785F68616C5F6164632E630000E0FFFFDA
:100420000000F0FFFEE7704710B54FF4807000F059
:10043000A9FEBDE810404FF4007000F0A3BE72B6F4
:10044000FEE7000070B515460C4606463BB1B3F515
:10045000804F07D040F2B51130A006F03FFB6FF09F
:10046000704056E03B48864204D040F2BB112BA0BE
:1004700006F034FB20680F2804D94FF4DE7127A062
:1004800006F02CFB6068401E0E2804D940F2BD1116
:1004900022A006F023FBA068401EFE2804D94FF4DA
:1004A000DF711EA006F01AFBE0680F2804D940F2A5
:1004B000BF111AA006F012FBA06968B1B0F1805F0D
:1004C0000AD0B0F1005F07D0B0F1405F04D04FF424
:1004D000E07112A006F002FB55B1022D08D0042DE8
:1004E00006D0062D04D040F2C1110CA006F0F6FA99
:1004F000A1692068A26808436168090141EA0221F4
:100500000843A18940EA014056F82510124A1140DB
:10051000084346F82500002070BD00002E2E2F4411
:100520007269766572732F53544D3332463478783E
:100530005F48414C5F4472697665722F5372632F36
:1005400073746D3332663478785F6C6C5F66736D8C
:10055000632E6300040100A00000F0CF70B50C46CC
:100560000546B0F1204F03D0E4215FA006F0B6FAB3
:10057000206848B1022807D0042805D0062803D0F7
:10058000E52159A006F0AAFA606828B1022803D034
:10059000E62155A006F0A2FAA06838B1042805D0DB
:1005A000082803D0E72150A006F098FAE06838B197
:1005B000102805D0202803D0E8214BA006F08EFAA1
:1005C000206930B1B0F5807F03D0E92146A006F064
:1005D00085FA606930B1B0F5007F03D0EA2142A00E
:1005E00006F07CFAA06930B1B0F5806F03D0EC2141
:1005F0003DA006F073FAE06930B1B0F5006F03D0AA
:10060000EE2139A006F06AFA206A30B1B0F5805FB9
:1006100003D0EF2134A006F061FA606A30B1B0F582
:10062000005F03D0F02130A006F058FAA06A30B184
:10063000B0F5804F03D0F1212BA006F04FFAE06A0D
:1006400030B1B0F5004F03D0F22127A006F046FAF2
:10065000206B30B1B0F5002F03D0F32122A006F0BB
:100660003DFAE06B78B1B0F5803F0CD0B0F5003FBB
:1006700009D0B0F5403F06D0B0F5802F03D0FA2165
:1006800019A006F02BFA206855F8201021F001017E
:1006900045F82010A268082A23D000206168204B6A
:1006A0001143E26802432069114301436069014339
:1006B000E0690143206A0143606A0143A06A014383
:1006C000E06A0143206B0143A0690843E16B0143E9
:1006D000206855F820209A430A4345F8202000203E
:1006E00070BD4020DAE700002E2E2F447269766537
:1006F00072732F53544D3332463478785F48414CEF
:100700005F4472697665722F5372632F73746D3311
:1007100032663478785F6C6C5F66736D632E63004D
:100720007FFF0F0070B515460C460646B0F1204F0E
:1007300004D040F2831137A006F0D0F920680F28CA
:1007400004D94FF4C27133A006F0C8F96068401EA6
:100750000E2804D940F285112EA006F0BFF9A0683A
:10076000401EFE2804D94FF4C3712AA006F0B6F942
:10077000E0680F2804D940F2871126A006F0AEF9F0
:100780002069801E0E2804D94FF4C47121A006F000
:10079000A5F96069801E0F2804D940F289111DA0B7
:1007A00006F09CF9A16969B1B1F1805F0AD0B1F19D
:1007B000005F07D0B1F1405F04D04FF4C57115A0C0
:1007C00006F08CF955B1022D08D0042D06D0062D67
:1007D00004D040F28B110FA006F080F9D4E900019B
:1007E00040EA0110A168A289090241EA02410843D6
:1007F000218A164A02EB01510843217D520102EB86
:1008000001610843A169084306EB850148600020A7
:1008100070BD00002E2E2F447269766572732F53BF
:10082000544D3332463478785F48414C5F447269A6
:100830007665722F5372632F73746D33326634781A
:10084000785F6C6C5F66736D632E63000000F0FF71
:1008500070B5054608680C46122804D94FF44F714C
:10086000BEA006F03BF96068401E032804D940F2A0
:100870003D31BAA006F032F9A06890B1012810D03D
:1008800002280ED003280CD004280AD0052808D04E
:10089000062806D0072804D040F23E31AFA006F06B
:1008A0001DF9BD4EA06998B3B0F5803F30D0B0F5CA
:1008B000003F2DD0B0F5403F2AD0B0F5802F27D093
:1008C000B0F5A02F24D0B0F5C02F21D0B0F5E02F87
:1008D0001ED0B0F5002F1BD0B0F5102F18D0B0F5FA
:1008E000202F15D0B0F5302F12D0B0F5402F0FD0FB
:1008F000B0F5502F0CD0B0F5602F09D0B0F5702FA7
:1009000006D0B04204D040F23F3194A006F0E6F8A1
:100910002069401E032804D94FF450718FA006F0BF
:10092000DDF8607D30B1012804D040F241318BA068
:1009300006F0D4F8207D30B1012804D040F24231D5
:1009400086A006F0CBF82868406810F0407009D007
:10095000B0F1807F0BD0B0F1007F0DD0B0F1407FBF
:100960000ED010E0E068B0F5805F11D30BE0E068D6
:10097000B0F5806F0CD306E0E068FF2808D902E0EC
:10098000E0683F2804D940F2463174A006F0A6F88A
:10099000A069B0420FD0E06968B1B0F5801F0AD0FD
:1009A000B0F5001F07D0B0F5401F04D040F24B3126
:1009B0006AA006F093F895F83C00012819D00120B0
:1009C00085F83C00206807212A68092813D9D368D4
:1009D0000A3800EB400081408B43D3602078A16847
:1009E0000A3800EB400081402868C2681143C160AA
:1009F00010E0022070BD136900EB400081408B4382
:100A000013612178A06801EB4101884029680A69D7
:100A1000104308612868816B21F4401181632868C4
:100A2000816B228A5D4B03EB025211438163207973
:100A3000217C401AC01C00EB80001F2181402868E7
:100A4000826B8A4382632079217C401AC01C00EBB0
:100A50008001208880B2884029688A6B10438863AF
:100A6000A069B0422868816821F4702181602868FB
:100A700081680CD0A269114381602868816821F4E3
:100A80004011816028688168E269114301E021F426
:100A900040118160607D00282868416802D041F4DF
:100AA000806101E021F480614160207D0028286898
:100AB000416802D041F4805101E021F4805141604D
:100AC0006068012816D002281FD00328286827D084
:100AD000016A6FF30B0101622868016AE268114341
:100AE000016230492A682E488A4227D12268122A98
:100AF00020D023E0286841696FF30B014161286829
:100B00004169E26811434161EBE7286881696FF34D
:100B10000B01816128688169E26811438161E0E726
:100B2000C1696FF30B01C1612868C169E2681143B3
:100B3000C161D6E7426842F4800242602A688A4274
:100B400008D12168102901D0112903D1416841F44D
:100B500000014160002085F83C0070BD2E2E2F441E
:100B60007269766572732F53544D333246347878F8
:100B70005F48414C5F4472697665722F5372632FF0
:100B800073746D3332663478785F68616C5F61646A
:100B9000635F65782E63000001000F000000F0FF26
:100BA0000023014000200140F8B5002605460096CC
:100BB00008680C46122804D940F28B615DA005F04C
:100BC0008DFF6068401E0F2804D940F28C6159A047
:100BD00005F084FFA06890B1012810D002280ED043
:100BE00003280CD004280AD0052808D0062806D0EF
:100BF000072804D040F28D614EA005F06FFF95F8F4
:100C00003C00012819D0012085F83C00206807210C
:100C10002A68092813D9D3680A3800EB40008140BC
:100C20008B43D3602178A0680A3901EB41018840E9
:100C30002968CA681043C86010E00220F8BD136933
:100C400000EB400081408B4313612178A06801EBE9
:100C50004101884029680A691043086160681F21C2
:100C6000072813D22A68536B401E00EB8000814096
:100C70008B43536321792088491E80B201EB8101A7
:100C8000884029684A6B1043486327E02A680D288A
:100C900012D2136BC01F00EB800081408B431363A3
:100CA00021792088C91F80B201EB81018840296821
:100CB0000A6B1043086311E0D36A0D3800EB800023
:100CC00081408B43D362217920880D3980B201EBBA
:100CD000810188402968CA6A1043C86224492A6889
:100CE00022488A4206D12268122A03D1426842F47D
:100CF000800242602A688A4218D12168102901D0F6
:100D0000112913D1416841F4000141602068102885
:100D10000CD1184818490068B0FBF1F000EB8000D6
:100D2000400000E0401E00900028FBD185F83C60A8
:100D30000020F8BD2E2E2F447269766572732F53F2
:100D4000544D3332463478785F48414C5F44726981
:100D50007665722F5372632F73746D3332663478F5
:100D6000785F68616C5F6164632E630000230140FB
:100D7000002001401800002040420F002DE9F047FC
:100D800004004FF000057DD07249206888420AD0E7
:100D90007149884207D07149884204D04FF4A1714B
:100DA0006FA005F09BFE606868B1B0F5803F0AD087
:100DB000B0F5003F07D0B0F5403F04D040F24311FA
:100DC00067A005F08BFEA0684FF080774FF00078A9
:100DD0004FF0407950B1B84208D0404506D0484560
:100DE00004D04FF4A2715EA005F078FE206930B106
:100DF000012804D040F2451159A005F06FFE207E75
:100E000030B1012804D04FF4A37155A005F066FE5F
:100E1000614EA06A80B3B8422ED040452CD04845E0
:100E20002AD0B0F1806F27D0B0F1A06F24D0B0F1FC
:100E3000C06F21D0B0F1E06F1ED0B0F1006F1BD0B9
:100E4000B0F1106F18D0B0F1206F15D0B0F1306F45
:100E500012D0B0F1406F0FD0B0F1506F0CD0B0F1A4
:100E6000606F09D0B0F1706F06D0B04204D040F28C
:100E700047113BA005F032FEE06848B1B0F5006FC5
:100E800006D000E043E04FF4A47135A005F026FE43
:100E9000E069401E0F2804D940F2491130A005F046
:100EA0001DFE94F8300030B1012804D04FF4A57134
:100EB0002BA005F013FE6069012807D030B102288D
:100EC00004D040F24B1126A005F008FE94F8200053
:100ED00030B1012804D04FF4A67121A005F0FEFD29
:100EE000A06AB0420FD0E06A68B1B0F1805F0AD06A
:100EF000B0F1005F07D0B0F1405F04D04FF4A871AB
:100F000017A005F0EBFD206C002618B108E00120C9
:100F1000BDE8F087204600F041F8666484F83C6044
:100F2000206CC00610D4206C20F4885040F00200E1
:100F300020642046FFF7BAF96664206C20F00200B6
:100F400040F00100206400E0012584F83C60284660
:100F5000DEE70000002001400021014000220140A6
:100F60002E2E2F447269766572732F53544D33328F
:100F7000463478785F48414C5F4472697665722FD9
:100F80005372632F73746D3332663478785F68619F
:100F90006C5F6164632E63000100000F10B586B0C2
:100FA000044614216846FFF745F911492068884234
:100FB0001CD110480021026842F48072026000686F
:100FC00000F4807005900B481438026842F001026A
:100FD0000260006800F0010005901C2000900320D2
:100FE000CDE901016946044800F0D8F806B010BD0B
:100FF0000020014044380240000002402DE9F04149
:101000000446876D00F07EFA064694F83500002508
:10101000022806D08020606584F834500120BDE8A5
:10102000F0812068016821F01601016020684169A3
:1010300021F080014161206C08B9A06C20B12068CA
:10104000016821F0080101602068016821F00101B8
:1010500001600CE000F056FA801B052807D920201B
:101060006065032084F8350084F83450D7E72068A1
:101070000068C007EED194F85C103F208840B8604B
:10108000012084F8350084F834500020C7E790F838
:101090003510022903D080214165012070470521C8
:1010A00080F835100068016821F00101016000201E
:1010B0007047000070B5044600F024FA0546601C35
:1010C00002D004480078044400F01CFA401BA042FF
:1010D000FAD370BD0C0000202DE9F04186B0142138
:1010E0006846FFF7A7F820480168002939D1012197
:1010F00001601E480024016841F0010101600068A0
:101100004FF4805800F001000C27CDF80080CDE9A5
:101110000470032602250396CDE90154694614485C
:1011200000F03CF84FF68070CDE9000502AA694650
:1011300082E8D0000F4800F031F84CF23370CDE96E
:10114000000502AA694682E8D0000B4800F026F8A4
:1011500002AA694682E8D000CDE90085074800F080
:101160001DF806B0BDE8F0810000002038380240CC
:101170000014024000100240000C0240001802401F
:1011800070470000044910B50A68024202D00860A6
:10119000FFF7F6FF10BD0000143C01402DE9F84FA9
:1011A000DFF888B20D46044658451BD0A04884425B
:1011B00018D0A048844215D09F48844212D09F483E
:1011C00084420FD09E4884420CD09E48844209D06D
:1011D0009D48844206D09D48844203D0AC219CA007
:1011E00005F07CFC28680104090C01D0000C03D038
:1011F000AD2197A005F072FC6868F8B101281DD0F8
:1012000011281BD0022819D0122817D0B0F5881F3A
:1012100014D0B0F5041F11D0B0F5441F0ED0B0F5B6
:10122000901F0BD0B0F5081F08D0B0F5481F05D0AF
:10123000032803D0AE2186A005F050FC00264FF015
:10124000010A4FF0030900BF0AFA06F02F68804632
:10125000074047457ED1287900F00300012801D0DE
:1012600002281DD1E86848B1012807D0022805D01E
:10127000032803D0C02176A005F030FCA1687200DD
:1012800009FA02F08143E86890400843A060606872
:10129000297920EA0800C1F30011B14001436160DF
:1012A0002879C043800712D0A86838B1012805D03A
:1012B000022803D0D12166A005F010FCE16872007D
:1012C00009FA02F08143A86890400843E060287959
:1012D00000F0030002282ED12869F8B109281DD09A
:1012E00001281BD0022819D0032817D0042815D0B4
:1012F000052813D0062811D007280FD008280DD0B4
:101300000A280BD00B2809D00C2807D00D2805D0AF
:101310000F2803D0DE214EA005F0E0FBF00804EB1F
:101320008002106A7107CB0E0F219940884329690A
:101330009940014311622068720009FA02F1884362
:10134000297901F00301914001432160686810F49C
:10135000403F00E063E062D04C48016841F48041C6
:101360000160006826F0030100F4804000904848C6
:101370000A18D2F80808B1070B0F0F2199408843CB
:101380005C4501D1002123E029498C4201D1012192
:101390001EE028498C4201D1022119E026498C42E5
:1013A00001D1032114E025498C4201D104210FE031
:1013B00023498C4201D105210AE022498C4201D106
:1013C000062105E020498C4201D1072100E00821D7
:1013D00099400143C2F808182E4908686A68B84362
:1013E000D20200D5384308602A49091D08686A6896
:1013F000B843920200D5384308602649091F08689F
:101400006A68B843920300D5384308602149083917
:1014100008686A68B843D20300D538430860761C70
:10142000102EFFF411AFBDE8F88F0000000002405D
:101430000004024000080240000C0240001002407C
:101440000014024000180240001C0240002002402C
:101450002E2E2F447269766572732F53544D33329A
:10146000463478785F48414C5F4472697665722FE4
:101470005372632F73746D3332663478785F6861AA
:101480006C5F6770696F2E63000000004438024093
:1014900000300140083C014070B515460C0006467E
:1014A00004D140F29D1108A005F018FB45B1012DB3
:1014B00004D04FF4CF7104A005F010FBB46170BDEF
:1014C0002004B06170BD00002E2E2F447269766535
:1014D00072732F53544D3332463478785F48414C01
:1014E0005F4472697665722F5372632F73746D3324
:1014F00032663478785F68616C5F6770696F2E63FD
:101500000000000001488068704700000C000020C7
:101510000248816802781144816070470C00002005
:101520000B4810B5016841F400710160016841F495
:1015300080610160016841F480710160032000F066
:10154000C3F80F2000F006F800F024F8002010BDCA
:10155000003C024070B50D4D04464FF47A71287876
:10156000B1FBF0F00A490968B1FBF0F000F0E6FCCD
:1015700048B9102C07D200222146501E00F054F822
:1015800000206C6070BD012070BD00000C000020C8
:10159000180000200A4808B5016841F48041016044
:1015A000006800F4804000900548001F016841F089
:1015B00080510160006800F08050009008BD00007C
:1015C0004438024010B5040003D5BC2107A005F043
:1015D00085FA002C09DB04F01F0101208840610915
:1015E000890001F1E021C1F8000110BD2E2E2F4429
:1015F0007269766572732F53544D3332463478785E
:101600005F48414C5F4472697665722F5372632F55
:1016100073746D3332663478785F68616C5F636FC2
:10162000727465782E63000070B515460C46064648
:10163000102A03D3A82114A005F050FA102C03D3CC
:10164000A92111A005F04AFA1E480068C0F3022340
:10165000C3F107022046042A00D90422191D0729D4
:1016600001D2002300E0DB1E012404FA02F1491E2E
:10167000014099409C40641E2C4021433046BDE807
:10168000704005F0ABB800002E2E2F4472697665CD
:1016900072732F53544D3332463478785F48414C3F
:1016A0005F4472697665722F5372632F73746D3362
:1016B00032663478785F68616C5F636F72746578E6
:1016C0002E6300000CED00E010B5044607280BD097
:1016D000062C09D0052C07D0042C05D0032C03D0F0
:1016E000902108A005F0FAF9154904F007020868EE
:1016F0004FF6FF03184040EA0220124A10430860E8
:1017000010BD00002E2E2F447269766572732F5320
:10171000544D3332463478785F48414C5F447269A7
:101720007665722F5372632F73746D33326634781B
:10173000785F68616C5F636F727465782E63000018
:101740000CED00E00000FA052DE9F0470E4604001C
:101750007DD02068401E0E2804D940F25A217AA07C
:1017600005F0BCF996B1012E10D0022E0ED0032E3A
:101770000CD0042E0AD0052E08D0062E06D0072E37
:1017800004D040F25B2170A005F0A8F9DFF8F081E9
:10179000D8F80000F7B200F00700B04207D288F88E
:1017A0000070D8F8000000F00700B0424FD1206868
:1017B000744D810729D5400703D5286840F4E050CF
:1017C00028602078000703D5286840F4604028602E
:1017D000A068A0B1802812D0902810D0A0280ED0E8
:1017E000B0280CD0C0280AD0D02808D0E02806D0D5
:1017F000F02804D040F27E2153A005F06FF928684C
:10180000A16820F0F000084328602078C00743D08A
:10181000DFF870916068A9F1080988B1012822D029
:10182000022824D0032822D040F2852146A005F0CA
:1018300055F96068012816D0022818D0032816D060
:10184000D9F800008007002833DA286800E030E08B
:10185000616820F0030008432860FFF753FE8146CB
:1018600041F2883A11E0D9F800008003EBE7D9F89B
:1018700000008001E7E700BFFFF744FEA0EB09018D
:10188000514502D90320BDE8F0872868616800F05F
:101890000C00B0EB810FEFD1D8F80010404601F0FA
:1018A0000701B14207D90770006800F00700B04295
:1018B00001D00120E7E720784FF4805640074FF42D
:1018C000A0574FF4C0584FF4E05914D5E06860B108
:1018D000B0420AD0B84208D0404506D0484504D0AE
:1018E00040F2C32118A005F0F9F82868E16820F457
:1018F000E050084328602078000715D5206960B1C2
:10190000B0420AD0B84208D0404506D0484504D07D
:1019100040F2CA210CA005F0E1F82868216920F402
:10192000604040EAC100286000F054F82968164A77
:10193000C1F30311515CC8401449086014480068A1
:10194000FFF708FE00209EE72E2E2F447269766571
:1019500072732F53544D3332463478785F48414C7C
:101960005F4472697665722F5372632F73746D339F
:1019700032663478785F68616C5F7263632E6300EF
:10198000003C024008380240486B00081800002064
:10199000100000200448054900680968044AC1F3A2
:1019A0008221515CC840704718000020083802406E
:1019B000586B00080448054900680968044AC1F3E7
:1019C0004231515CC840704718000020083802407E
:1019D000586B0008154810B5006810F00C02144848
:1019E00013D04110042A0FD0082A0ED10F4C241F07
:1019F0002268236802F03F025B0207D52068C0F32B
:101A00008810A0FB010106E0084610BD2168C1F363
:101A10008811A1FB00010023FEF7D4FB2168C1F36C
:101A20000141491C4900B0FBF1F010BD08380240EB
:101A30000024F4002DE9F84F04007DD020680F2821
:101A400003D9E621F7A005F049F82078DFF80C94D7
:101A5000C007A9F1040555D060684FF480364FF4F3
:101A6000A02738B1B04205D0B84203D0EB21EDA099
:101A700005F034F8F948001D0168C1F3810101291E
:101A800008D00068C0F3810002280AD1D9F800000C
:101A9000400206D52868800334D560680028CCD081
:101AA00030E06068B04203D1286840F480300CE038
:101AB000B842286803D140F480202860F4E720F47D
:101AC00080302860286820F480202860606860B139
:101AD000FFF718FD064604E0FFF714FD801B64289D
:101AE0007ED828688003F7D50CE0FFF70BFD06468B
:101AF00005E000BFFFF706FD801B6428F0D82868CA
:101B00008003F7D42078DFF8588380074FF0000A6D
:101B100056D5E06830B1012804D040F21D11C1A0B3
:101B200004F0DCFF20691F2804D94FF48F71BDA099
:101B300004F0D4FFC94800E092E0001D016811F0F4
:101B40000C0F08D00068C0F38100022810D1D9F82A
:101B5000000040020CD42868800702D5E068012804
:101B60007ED12868216920F0F80040EAC10017E022
:101B7000E068B8B10120C8F80000FFF7C3FC0646D2
:101B800005E000BFFFF7BEFC801B0228A8D828682C
:101B90008007F7D5286820F0F801206941EAC000E5
:101BA00028600DE0C8F800A0FFF7ACFC064604E092
:101BB000FFF7A8FC801B022892D828688007F7D47A
:101BC000207800072ED5A54EA64F60697036D0B19B
:101BD000012808D04FF4AF7192A004F07FFF00E01D
:101BE0004BE1606978B101203860FFF78BFC074654
:101BF00005E000BFFFF786FCC01B0228C6D830688E
:101C00008007F7D50EE0C7F800A0FFF77BFC07467A
:101C100005E000BFFFF776FCC01B0228B6D830688D
:101C20008007F7D42078400776D5A068002740B118
:101C3000012806D0052804D04FF4C57179A004F01E
:101C40004DFFDFF818B20BF13C0BDBF80000C000D1
:101C50000DD4DBF8001041F08051CBF8001000E00B
:101C600038E1DBF80000012700F0805000907E4E44
:101C70003068C00511D4306840F480703060FFF7E0
:101C800041FC009006E000BFFFF73CFC0099401AC1
:101C9000022891D83068C005F6D5704EA0686C3621
:101CA00001280FD00528306810D020F001003060E6
:101CB000306820F004003060A068B8B1FFF722FC63
:101CC00000900FE0306840F00100F4E740F00400BD
:101CD0003060F7E7FFF716FC0099411A41F28830AF
:101CE00081428BD830688007F4D50EE0FFF70AFCFC
:101CF000009007E0FFF706FC0099411A41F2883096
:101D000081428BD830688007F4D42FB1DBF8001003
:101D100021F08051CBF80010A069002876D001286E
:101D200009D0022807D040F2CD113EA004F0D6FE23
:101D3000A0690028F2D04948001D0068C0F3810066
:101D40000228A0696DD0022805D0C8F860A0FFF76E
:101D5000D9FB044694E0E06938B1B0F5800F04D0B7
:101D60004FF4EB712FA004F0B9FE206A801E3D28CD
:101D700004D940F2D7112BA004F0B0FE606A3238CB
:101D8000B0F5BF7F04D94FF4EC7126A004F0A6FE95
:101D9000A06A02280AD0042808D0062806D00828FD
:101DA00004D040F2D9111FA004F098FEE06A801E12
:101DB0000D2804D94FF4ED711AA004F08FFE4746A8
:101DC000C8F860A0FFF79EFB064604E0FFF79AFB09
:101DD000801B022851D828688001F7D4D4E9070174
:101DE0000843A16A214A490802EB0141626A41EABB
:101DF0008211084394F82C1040EA0161C9F80010E0
:101E000001203866FFF77EFB044606E064E000BF71
:101E1000FFF778FB001B02282FD828688001F7D530
:101E20005AE031E02E2E2F447269766572732F537B
:101E3000544D3332463478785F48414C5F44726980
:101E40007665722F5372632F73746D3332663478F4
:101E5000785F68616C5F7263632E630004380240D0
:101E600000004742800E4742007000400000FFFF24
:101E7000FFF748FB001B022802D90320BDE8F88FBA
:101E800028688001F4D427E00128F7D0D9F80000B1
:101E9000E26900F4800191421CD1226A00F03F0106
:101EA000914217D147F6C071626A0140B1EB821FBF
:101EB00010D1A26A4FF0FF3300F4403103EB52021D
:101EC000B1EB024F06D194F82C1000F07060B0EB2B
:101ED000016F01D00120D1E70020CFE770B5154692
:101EE0000E46040003D094F8490010B107E0012029
:101EF00070BD002084F84800204600F01DF804F171
:101F000008012068FEF72AFB3146A2682068FEF728
:101F100009FCD4E901022946236BFEF793FA2168F4
:101F2000A06851F8202042F0010241F82020012051
:101F300084F84900002070BDFFF7CEB810B5401EF0
:101F4000B0F1807F01D3012010BD4FF0E02460612B
:101F50000F21601704F042FC0020A06107202061DF
:101F6000002010BD70477047F8B501680446086846
:101F7000CA684B6910F00F0F4FF0000559D003F0FD
:101F8000010602F49077374365D0C10705D0D1052B
:101F900003D5616C41F001016164410705D5D907A2
:101FA00003D0616C41F002016164810705D5D90756
:101FB00003D0616C41F004016164010707D502F0B0
:101FC0002001314303D0616C41F008016164616C10
:101FD00000293AD0800604D5900602D5204604F0A8
:101FE0005FFA20684069616CC0F38010090700D473
:101FF00060B3204604F02DFA20684069400621D5E0
:102000002068143050E8001F21F0400140E8001221
:10201000002AF5D1E06BA8B172490165E06BFFF7CA
:1020200036F8002811D0E06B016D01B0BDE8F0403A
:10203000084783060FD593060DD52046BDE8F84026
:1020400004F02EBA2046FFF78EFFF8BD2046FFF7BA
:102050008AFF6564F8BD266B2023012E7ED1C6065B
:102060007CD5D6067AD508684868009048694FF054
:10207000020640064DD5E26B106840684FF4807749
:102080000004000C3AD0A18D814237D9E085D06997
:10209000B8422DD020680C3050E8001F21F4807128
:1020A00040E80012002AF5D12068143050E8001FE3
:1020B00021F0010140E80012002AF5D12068143017
:1020C00050E8001F21F0400140E80012002AF5D13D
:1020D00084F84230256320680C3050E8001F21F05E
:1020E000100140E80012002AF5D1E06BFEF786FFF0
:1020F0006663A08DE18D401A81B206E0A18D814218
:10210000A8D1D069B842A5D166632046FFF72AFF5F
:10211000F8BDA08DE18D401A81B2E08D0028F7D086
:102120000029F5D020680C3050E8002F22F490727E
:1021300040E80027002FF5D12068143050E8002F28
:1021400022F0010240E80027002FF5D184F8423048
:10215000256320680C3050E8002F00E006E022F0F4
:10216000100240E80023002BF3D1CDE705062BD564
:10217000150629D594F841002128C9D1A068B0F5E9
:10218000805F01D12069B0B1206A411C21622168C1
:1021900000784860E08C401E0004000CE084B7D159
:1021A0002068C16821F08001C1602068C16841F0E9
:1021B0004001C160F8BD206A0088C0F30800486093
:1021C000206A801C2062E5E74006F3D55006F1D571
:1021D000CA68204622F04002CA6084F8413000F00C
:1021E0005FF9F8BD4564000870B5040023D0A0690C
:1021F0003B4900283B4A3C4B3C4D20681DD088425F
:102200000CD090420AD0984208D0A84206D040F2A2
:10221000731137A004F062FCA06908B3A069B0F59F
:10222000807F1DD0B0F5007F1AD0B0F5407F17D069
:102230004FF4BA7111E0012070BD884210D0904275
:102240000ED098420CD03949884209D0384988428A
:1022500006D0A84204D04FF4BC7125A004F03EFC87
:10226000A06838B1B0F5805F04D04FF4BD7120A0F4
:1022700004F034FCE06938B1B0F5004F04D040F20E
:102280007B111BA004F02AFC94F84100002520B922
:1022900084F84050204600F04DF8242084F8410096
:1022A0002068C16821F40051C160204604F05AF949
:1022B0002068016921F4904101612068416921F0A1
:1022C0002A0141612068C16841F40051C160656420
:1022D000202084F8410084F842006563002070BD2E
:1022E000001001400044004000480040001401403C
:1022F0002E2E2F447269766572732F53544D3332EC
:10230000463478785F48414C5F4472697665722F35
:102310005372632F73746D3332663478785F6861FB
:102320006C5F756172742E6300000000004C004009
:102330000050004010B586B0044614216846FDF7F1
:1023400079FF18492068884229D11748002102687E
:1023500042F010020260006800F010000590124880
:102360001438026842F001020260006800F00100C7
:1023700005904FF4C06000900220CDE901010320D8
:1023800003900720049069460848FEF707FF0022E3
:1023900011462520FFF748F92520FFF713F906B06D
:1023A00010BD00000010014044380240000002400F
:1023B00090F84230202B01D00220704721B11AB191
:1023C0000023036304F09EB90120704710B5006834
:1023D000084988420DD14FF47A7301220649074813
:1023E00000F00EF8BDE81040012203490348FFF752
:1023F000DFBF10BD0010014008000020BC0000201D
:102400002DE9F843044690F84100984616460D46DB
:10241000202802D00220BDE8F88385B17EB10020DB
:102420006064212084F84100FFF76CF8A68481469F
:10243000E684A0682027B0F5805F02D003E0012089
:10244000E9E7206910B12E4600250EE000260CE0D9
:102450008021204604F071F9A8B9C6B116F8010B25
:1024600021684860E08C401EE084E08C4B464FF0D1
:102470000002CDF800800028EAD14FF0400120464C
:1024800004F05BF940B184F841700320C3E735F8EC
:10249000020BC0F30800E3E784F841700020BAE7BC
:1024A0007047FEE72DE9F043174C81460025208850
:1024B00066884643A088A0F5D041043902D1A079AE
:1024C000012808D00021084603F0A2FC03F0BAFD61
:1024D0004FF0D84013E00020A0712A2767814FF009
:1024E0002B08A4F80C80014603F092FC0120A07197
:1024F000A4F80A80A781E9E7A0F880906D1CB54296
:10250000FAD3BDE8F0830000040100202DE9F04F6C
:102510003F492C252A2689882B2745F2105A4FF44B
:10252000305B4FF4285E4FF0F00C49F241394FF424
:10253000A07245F2103346F6040478B134484FF0E7
:102540000108494580F806800280A0F802C001D049
:10255000994233D10581468187814BE02C484FF069
:102560000008494580F80680A0F800C0428003D0EA
:10257000A14201D099420AD1058146818781A142B9
:1025800001D099423ED102804FF4F0710DE05145E7
:102590000DD1A0F808B0A0F80AE04FF42C518181C9
:1025A0004FF4F07101804FF4487141802AE02221FC
:1025B0000181202141812121818123E0A14203D198
:1025C00005814781868115E051450DD1A0F808B0FD
:1025D000A0F80AE04FF42C5585814FF4487505802A
:1025E0004FF4F075458005E02225058121254581C0
:1025F00020258581A14201D0994203D14FF4F07189
:1026000001804280BDE8F04F002003F0FDBA0000D9
:10261000040100202DE9F041344C90460246A08888
:1026200023460D460F0A160A5B89A0F5134141396E
:1026300014D0A0F5A641103910D0A0F5AA41103948
:1026400011D02646A0F5D04CB1793688B61A761E40
:10265000BCF1040C21D0012935D035E0184603F037
:10266000E5FC304620E0184603F0E0FC304603F07D
:10267000D1FC6089401C80B203F0D8FCD0B203F0DA
:10268000C9FCA08903F0D2FC384603F0C3FCA08942
:10269000401C80B203F0CAFC11E0012900D1B2B2A3
:1026A000184603F0C3FC100A03F0B4FCD0B203F0E8
:1026B000B1FCA08903F0BAFC384603F0ABFCE8B2E9
:1026C00003F0A8FC08E0B2B21146184603F0C4FCBF
:1026D000A089294603F0C0FC4FF0D8402189A0F81A
:1026E0007E10A0F88080BDE8F08100000401002089
:1026F0002DE9F04FA9B00025142168462895FDF773
:1027000099FD1C2119A8FDF795FD1C2120A8FDF7B6
:1027100091FDFB48016841F002010160016801F090
:1027200002012791016841F008010160016801F090
:1027300008012791016841F010010160016801F072
:1027400010012791016841F020010160016801F04A
:1027500020012791016841F040010160006800F00C
:1027600040002790E6480830016841F0010101600F
:1027700000684FF4004B00F0010027900224CDF8D0
:1027800000B001200394CDE90105DFF878A3D94614
:1027900069465046FEF702FD4CF2337003260C27C3
:1027A0008DE8F1006946D848FEF7F8FC4FF68070D6
:1027B0008DE8F1006946D548FEF7F0FC4FF48058EB
:1027C00001AACDF8008082E8F0006946D048FEF703
:1027D000E5FC01AACDF8008082E8F0006946CD480A
:1027E000FEF7DCFC012249465046FEF755FE0F205D
:1027F000CDE919051820CDE91B051D9508201E956A
:10280000CDE91F50CDE92150C34823952495259546
:102810004FF020442695CDE905400620CDE9070577
:102820001020CDE909500B950C958002CDE9105090
:10283000CDE90E5812950D95139520AA19A905A852
:102840001695FFF74BFB00B1FEE73220FEF732FC96
:102850000121002003F000FC3220FEF72BFC0020B9
:1028600003F0C6F9DFF8B4824FF6FF7A49F241353A
:10287000A8F8040045F2103645F2105746F6040950
:10288000FF2804D3504502D0B0F5134F75D1D320A3
:1028900003F0CCFB03F0A2F9A8F8040003F09EF9C2
:1028A000A8F8040003F09AF90AEA00205246A8F8B2
:1028B000040003F093F9B8F804100843A8F80400E2
:1028C000A8425AD0BF2003F0B1FB03F087F9A8F863
:1028D000040003F083F9A8F8040003F07FF9A8F8D6
:1028E000040003F07BF902EA0020A8F8040003F0DA
:1028F00075F9B8F804100843A8F8040048453CD01E
:10290000D42003F093FB03F069F9A8F8040003F066
:1029100065F9A8F8040003F061F902EA0020A8F8BC
:10292000040003F05BF9B8F804100843A8F80400A9
:10293000B04222D04FF45A4003F078FB03F04EF936
:10294000A8F804004FF45B4003F070FB03F046F975
:1029500002EA0020A8F804004FF45C4003F066FB94
:1029600003F03CF9B8F804100843A8F804005845EF
:1029700003D1A8F8047007E0FFE780B2A84203D0B3
:10298000B04201D0B84216D1D4F81C0120F00F009B
:10299000C4F81C01D4F81C0120F47060C4F81C01B8
:1029A000D4F81C0140F00300C4F81C01D4F81C0149
:1029B00040F400701BE0484503D0A0F545410539BF
:1029C00017D1D4F81C0120F00F00C4F81C01D4F872
:1029D0001C0120F47060C4F81C01D4F81C0140F004
:1029E0000A00C4F81C01D4F81C0140F44060C4F88B
:1029F0001C01B8F804104AA003F0E0FEB8F8040087
:102A0000A8427CD1CF2003F011FB002003F002FB91
:102A10002898401C2890C12003F0FCFA302003F0D5
:102A2000F9FAED2003F002FB642003F0F3FA03202F
:102A300003F0F0FA122003F0EDFA812003F0EAFA35
:102A4000E82003F0F3FA852003F0E4FA102003F005
:102A5000E1FA7A2003F0DEFACB2003F0E7FA39201E
:102A600003F0D8FA2C2003F0D5FA002003F0D2FAB4
:102A7000342003F0CFFA022003F0CCFAF72003F061
:102A8000D5FA202003F0C6FAEA2003F0CFFA00209E
:102A900003F0C0FA002003F0BDFAC02003F0C6FA2C
:102AA0001B2003F0B7FAC12003F0C0FA012003F0A5
:102AB000B1FAC52003F0BAFA302003F0ABFA3020A7
:102AC00003F0A8FAC72003F0B1FAB72003F0A2FA86
:102AD000362003F0ABFA482003F09CFA3A2003F0CA
:102AE000A5FA552003F096FAB12003F09FFA0020D2
:102AF00003F090FA1A2003F08DFAB62018E0ADE04A
:102B00003038024000040240000C02400010024035
:102B10000014024000180240040100A0040100203B
:102B2000204C43442049443A25780D0A0000000017
:102B300003F07CFA0A2003F06DFAA22003F06AFA8F
:102B4000F22003F073FA002003F064FA262003F069
:102B50006DFA012003F05EFAE02003F067FA0F201F
:102B600003F058FA2A2003F055FA282003F052FA0D
:102B7000082003F04FFA0E2003F04CFA082003F06F
:102B800049FA542003F046FAA92003F043FA4320FF
:102B900003F040FA0A2003F03DFA0F2003F03AFA5E
:102BA000002003F037FA002003F034FA002003F08D
:102BB00031FA002003F02EFAE12003F037FA00206A
:102BC00003F028FA152003F025FA172003F022FA63
:102BD000072003F01FFA112003F01CFA062003F06F
:102BE00019FA2B2003F016FA562003F013FA3C20B2
:102BF00003F010FA052003F00DFA102003F00AFA92
:102C00000F2003F007FA3F2003F004FA3F2003F0FF
:102C100001FA0F2003F0FEF92B2003F007FA002041
:102C200003F0F8F9002003F0F5F9012003F0F2F9C0
:102C30003F2003F0EFF92A2003F0F8F9002003F019
:102C4000E9F9002003F0E6F9002003F0E3F9EF20B2
:102C500003F0E0F9112003F0E9F9A5E048457CD143
:102C6000112003F0E3F91420FEF724FAD02003F03A
:102C7000DDF9072003F0CEF9422003F0CBF91D2047
:102C800003F0C8F9D12003F0D1F9002003F0C2F914
:102C90001A2003F0BFF9092003F0BCF9D22003F099
:102CA000C5F9012003F0B6F9222003F0B3F9C020E2
:102CB00003F0BCF9102003F0ADF93B2003F0AAF9B2
:102CC000002003F0A7F9022003F0A4F9112003F07B
:102CD000A1F9C52003F0AAF9032003F09BF9C8204D
:102CE00003F0A4F9002003F095F9252003F092F9F0
:102CF000212003F08FF9052003F08CF9002003F068
:102D000089F90A2003F086F9652003F083F925206C
:102D100003F080F9772003F07DF9502003F07AF971
:102D20000F2003F077F9002003F074F9F82003F086
:102D30007DF9012003F06EF9FE2003F077F9002001
:102D400003F068F9022003F065F9202003F06EF922
:102D5000362003F06BF9082000E02BE003F05AF96D
:102D60003A2003F063F9552003F054F92B2003F0C7
:102D70005DF9002003F04EF9002003F04BF901202B
:102D800003F048F93F2003F045F92A2003F04EF9FB
:102D9000002003F03FF9002003F03CF9012003F08C
:102DA00039F9DF2003F036F97820FEF783F929207E
:102DB00001F0FBBEB0427CD1ED2003F037F90120D9
:102DC00003F028F9FE2003F025F9EE2003F02EF998
:102DD000DE2003F01FF9212003F01CF9F12003F09D
:102DE00025F9012003F016F9DF2003F01FF9102068
:102DF00003F010F9C42003F019F98F2003F00AF949
:102E0000C62003F013F9002003F004F9E22003F0D8
:102E100001F9E22003F0FEF8E22003F0FBF8BF2006
:102E200003F004F9AA2003F0F5F8B02003F0FEF84F
:102E30000D2003F0EFF8002003F0ECF80D2003F074
:102E4000E9F8002003F0E6F8112003F0E3F8002091
:102E500003F0E0F8192003F0DDF8002003F0DAF8C1
:102E6000212003F0D7F8002003F0D4F82D2003F040
:102E7000D1F8002003F0CEF83D2003F0CBF800207D
:102E800003F0C8F85D2003F0C5F8002003F0C2F895
:102E90005D2003F0BFF8002003F0BCF8B12003F080
:102EA000C5F8802003F0B6F8002003F0B3F88B20BB
:102EB00000E0FCE303F0AEF8002003F0ABF896204E
:102EC00003F0A8F8002003F0A5F8B22003F0AEF854
:102ED000002003F09FF8002003F09CF8022003F08C
:102EE00099F8002003F096F8032003F093F80020EF
:102EF00003F090F8B32003F099F8002003F08AF86B
:102F0000002003F087F8002003F084F8002003F08D
:102F100081F8002003F07EF8002003F07BF8002009
:102F200003F078F8002003F075F8002003F072F841
:102F3000002003F06FF8002003F06CF8002003F08D
:102F400069F8002003F066F8002003F063F8002021
:102F500003F060F8002003F05DF8002003F05AF859
:102F6000002003F057F8002003F054F8002003F08D
:102F700051F8002003F04EF8002003F04BF8002039
:102F800003F048F8002003F045F8B42003F04EF8B1
:102F90008B2003F03FF8002003F03CF8962003F06C
:102FA00039F8002003F036F8A12003F033F80020B0
:102FB00003F030F8B52003F039F8022003F02AF8C6
:102FC000002003F027F8032003F024F8002003F08A
:102FD00021F8042003F01EF8002003F01BF8B620AF
:102FE00003F024F8002003F015F8002003F012F895
:102FF000B72003F01BF8002003F00CF8002003F0CA
:1030000009F83F2003F006F8002003F003F85E20E3
:1030100003F000F8002002F0FDFF642002F0FAFF48
:10302000002002F0F7FF8C2002F0F4FF002002F0F5
:10303000F1FFAC2002F0EEFF002002F0EBFFDC20FD
:1030400002F0E8FF002002F0E5FF702002F0E2FF4E
:10305000002002F0DFFF902002F0DCFF002002F0F1
:10306000D9FFEB2002F0D6FF002002F0D3FFDC20D6
:1030700002F0D0FF002002F0CDFFB82002F0D6FF12
:10308000002002F0C7FF002002F0C4FF002002F081
:10309000C1FF002002F0BEFF002002F0BBFF0020B5
:1030A00002F0B8FF002002F0B5FF002002F0B2FFEE
:1030B000BA2002F0BBFF242002F0ACFF002002F097
:1030C000A9FF002002F0A6FF002002F0A3FFC1200C
:1030D00002F0ACFF202002F09DFF002002F09AFFDA
:1030E000542002F097FF002002F094FFFF2002F02E
:1030F00091FF002002F08EFFC22002F097FF0A200D
:1031000002F088FF002002F085FF042002F082FF19
:10311000002002F07FFFC32002F088FF3C2002F075
:1031200079FF002002F076FF3A2002F073FF0020C2
:1031300002F070FF392002F06DFF002002F06AFFFC
:10314000372002F067FF002002F064FF3C2002F00D
:1031500061FF002002F05EFF362002F05BFF0020DE
:1031600002F058FF322002F055FF002002F052FF1B
:103170002F2002F04FFF002002F04CFF2C2002F025
:1031800049FF002002F046FF292002F043FF002003
:1031900002F040FF262002F03DFF002002F03AFF3F
:1031A000242002F037FF002002F034FF242002F038
:1031B00031FF002002F02EFF232002F02BFF002021
:1031C00002F028FF3C2002F025FF002002F022FF41
:1031D000362002F01FFF002002F01CFF322002F018
:1031E00019FF002002F016FF2F2002F013FF00202D
:1031F00002F010FF2C2002F00DFF002002F00AFF69
:10320000292002F007FF002002F004FF262002F030
:1032100001FF002002F0FEFE242002F0FBFE002051
:1032200002F0F8FE242002F0F5FE002002F0F2FE8B
:10323000232002F0EFFE002002F0ECFEC42002F09A
:10324000F5FE622002F0E6FE002002F0E3FE05201B
:1032500002F0E0FE002002F0DDFE842002F0DAFE43
:10326000002002F0D7FEF02002F0D4FE002002F091
:10327000D1FE182002F0CEFE002002F0CBFEA420EA
:1032800002F0C8FE002002F0C5FE182002F0C2FEC7
:10329000002002F0BFFE502002F0BCFE002002F031
:1032A000B9FE0C2002F0B6FE002002F0B3FE17209B
:1032B00002F0B0FE002002F0ADFE952002F0AAFE62
:1032C000002002F0A7FEF32002F0A4FE002002F08E
:1032D000A1FEE62002F09EFE002002F09BFEC5202B
:1032E00002F0A4FE322002F095FE002002F092FED1
:1032F000442002F08FFE002002F08CFE652002F0D8
:1033000089FE002002F086FE762002F083FE002077
:1033100002F080FE882002F07DFE002002F07AFE9E
:10332000C62002F083FE202002F074FE002002F08E
:1033300071FE172002F06EFE002002F06BFE0120ED
:1033400002F068FE002002F065FEC72002F06EFE6B
:10335000002002F05FFE002002F05CFE002002F080
:1033600059FE002002F056FEC82002F05FFE002049
:1033700002F050FE002002F04DFE002002F04AFE56
:10338000002002F047FEC92002F050FE002002F0AB
:1033900041FE002002F03EFE002002F03BFE002035
:1033A00002F038FE002002F035FE002002F032FE6E
:1033B000002002F02FFE002002F02CFE002002F080
:1033C00029FE002002F026FE002002F023FE00204D
:1033D00002F020FE002002F01DFE002002F01AFE86
:1033E000002002F017FE002002F014FEE02002F0A0
:1033F0001DFE162002F00EFE002002F00BFE1C2027
:1034000002F008FE002002F005FE212002F002FE7C
:10341000002002F0FFFD362002F0FCFD002002F04B
:10342000F9FD462002F0F6FD002002F0F3FD5220E7
:1034300002F0F0FD002002F0EDFD642002F0EAFD54
:10344000002002F0E7FD7A2002F0E4FD002002F007
:10345000E1FD8B2002F0DEFD002002F0DBFD992073
:1034600002F0D8FD002002F0D5FDA82002F0D2FD28
:10347000002002F0CFFDB92002F0CCFD002002F0C8
:10348000C9FDC42002F0C6FD002002F0C3FDCA2021
:1034900002F0C0FD002002F0BDFDD22002F0BAFD16
:1034A000002002F0B7FDD92002F0B4FD002002F0A8
:1034B000B1FDE02002F0AEFD002002F0ABFDF320F4
:1034C00002F0A8FD002002F0A5FDE12002F0AEFD13
:1034D000162002F09FFD002002F09CFD1C2002F04F
:1034E00099FD002002F096FD222002F093FD0020BD
:1034F00002F090FD362002F08DFD002002F08AFDE2
:10350000452002F087FD002002F084FD522002F0E9
:1035100081FD002002F07EFD642002F07BFD002092
:1035200002F078FD7A2002F075FD002002F072FDB5
:103530008B2002F06FFD002002F06CFD992002F05C
:1035400069FD002002F066FDA82002F063FD002066
:1035500002F060FDB92002F05DFD002002F05AFD8E
:10356000C42002F057FD002002F054FDCA2002F0F2
:1035700051FD002002F04EFDD22002F04BFD002054
:1035800002F048FDD82002F045FD002002F042FD87
:10359000E02002F03FFD002002F03CFDF32002F0AD
:1035A00039FD002002F036FDE22002F03FFD05204B
:1035B00002F030FD002002F02DFD0B2002F02AFD6C
:1035C000002002F027FD1B2002F024FD002002F065
:1035D00021FD342002F01EFD002002F01BFD4420DE
:1035E00002F018FD002002F015FD4F2002F012FD40
:1035F000002002F00FFD612002F00CFD002002F01F
:1036000009FD792002F006FD002002F003FD88206C
:1036100002F000FD002002F0FDFC972002F0FAFC11
:10362000002002F0F7FCA62002F0F4FC002002F0DB
:10363000F1FCB72002F0EEFC002002F0EBFCC2200F
:1036400002F0E8FC002002F0E5FCC72002F0E2FCFA
:10365000002002F0DFFCD12002F0DCFC002002F0B0
:10366000D9FCD62002F0D6FC002002F0D3FCDD20ED
:1036700002F0D0FC002002F0CDFCF32002F0CAFCE6
:10368000002002F0C7FCE32002F0D0FC052002F08D
:10369000C1FC002002F0BEFC0A2002F0BBFC0020AE
:1036A00002F0B8FC1C2002F0B5FC002000E0FDE2B6
:1036B00002F0B0FC332002F0ADFC002002F0AAFCC6
:1036C000442002F0A7FC002002F0A4FC502002F0ED
:1036D000A1FC002002F09EFC622002F09BFC002076
:1036E00002F098FC782002F095FC002002F092FC99
:1036F000882002F08FFC002002F08CFC972002F062
:1037000089FC002002F086FCA62002F083FC002049
:1037100002F080FCB72002F07DFC002002F07AFC71
:10372000C22002F077FC002002F074FCC72002F0F7
:1037300071FC002002F06EFCD12002F06BFC002036
:1037400002F068FCD52002F065FC002002F062FC6B
:10375000DD2002F05FFC002002F05CFCF32002F0B0
:1037600059FC002002F056FCE42002F05FFC01202E
:1037700002F050FC002002F04DFC012002F04AFC57
:10378000002002F047FC022002F044FC002002F07E
:1037900041FC2A2002F03EFC002002F03BFC3C20D1
:1037A00002F038FC002002F035FC4B2002F032FC25
:1037B000002002F02FFC5D2002F02CFC002002F023
:1037C00029FC742002F026FC002002F023FC842057
:1037D00002F020FC002002F01DFC932002F01AFCF5
:1037E000002002F017FCA22002F014FC002002F0DE
:1037F00011FCB32002F00EFC002002F00BFCBE20F6
:1038000002F008FC002002F005FCC42002F002FCDB
:10381000002002F0FFFBCD2002F0FCFB002002F0B4
:10382000F9FBD32002F0F6FB002002F0F3FBDD20D1
:1038300002F0F0FB002002F0EDFBF32002F0EAFBC7
:10384000002002F0E7FBE52002F0F0FB002002F090
:10385000E1FB002002F0DEFB002002F0DBFB002099
:1038600002F0D8FB022002F0D5FB002002F0D2FBD0
:10387000292002F0CFFB002002F0CCFB3C2002F01C
:10388000C9FB002002F0C6FB4B2002F0C3FB002066
:1038900002F0C0FB5D2002F0BDFB002002F0BAFB8D
:1038A000742002F0B7FB002002F0B4FB842002F089
:1038B000B1FB002002F0AEFB932002F0ABFB002036
:1038C00002F0A8FBA22002F0A5FB002002F0A2FB60
:1038D000B32002F09FFB002002F09CFBBE2002F010
:1038E00099FB002002F096FBC42002F093FB00201D
:1038F00002F090FBCD2002F08DFB002002F08AFB4D
:10390000D32002F087FB002002F084FBDC2002F0D1
:1039100081FB002002F07EFBF32002F07BFB002005
:1039200002F078FBE62002F081FB112002F072FB2E
:10393000002002F06FFB342002F06CFB002002F04C
:1039400069FB562002F066FB002002F063FB762044
:1039500002F060FB002002F05DFB772002F05AFBD2
:10396000002002F057FB662002F054FB002002F01A
:1039700051FB882002F04EFB002002F04BFB992007
:1039800002F048FB002002F045FBBB2002F042FBA6
:10399000002002F03FFB992002F03CFB002002F0E7
:1039A00039FB662002F036FB002002F033FB552085
:1039B00002F030FB002002F02DFB552002F02AFB24
:1039C000002002F027FB452002F024FB002002F03B
:1039D00021FB432002F01EFB002002F01BFB4420D1
:1039E00002F018FB002002F015FBE72002F01EFB9E
:1039F000322002F00FFB002002F00CFB552002F0F9
:103A000009FB002002F006FB762002F003FB0020F9
:103A100002F000FB662002F0FDFA002002F0FAFA44
:103A2000672002F0F7FA002002F0F4FA672002F0B3
:103A3000F1FA002002F0EEFA872002F0EBFA002003
:103A400002F0E8FA992002F0E5FA002002F0E2FA2A
:103A5000BB2002F0DFFA002002F0DCFA992002F02D
:103A6000D9FA002002F0D6FA772002F0D3FA00202B
:103A700002F0D0FA442002F0CDFA002002F0CAFA97
:103A8000562002F0C7FA002002F0C4FA232002F008
:103A9000C1FA002002F0BEFA332002F0BBFA002087
:103AA00002F0B8FA452002F0B5FA002002F0B2FAAE
:103AB000E82002F0BBFA002002F0ACFA002002F08D
:103AC000A9FA992002F0A6FA002002F0A3FA8720B2
:103AD00002F0A0FA002002F09DFA882002F09AFA83
:103AE000002002F097FA772002F094FA002002F00A
:103AF00091FA662002F08EFA002002F08BFA8820FC
:103B000002F088FA002002F085FAAA2002F082FA78
:103B1000002002F07FFABB2002F07CFA002002F0C5
:103B200079FA992002F076FA002002F073FA662002
:103B300002F070FA002002F06DFA552002F06AFAE5
:103B4000002002F067FA552002F064FA002002F02B
:103B500061FA442002F05EFA002002F05BFA442091
:103B600002F058FA002002F055FA552002F052FAFD
:103B7000002002F04FFAE92002F058FAAA2002F0E1
:103B800049FA002002F046FA002002F043FA002031
:103B900002F040FA002002F049FAAA2002F03AFAB4
:103BA000CF2002F043FA002002F034FA002002F0A5
:103BB00031FA002002F02EFA002002F02BFA002049
:103BC00002F028FA002002F025FA002002F022FA82
:103BD000002002F01FFA002002F01CFA002002F080
:103BE00019FA002002F016FA002002F013FA002061
:103BF00002F010FA002002F00DFA002002F00AFA9A
:103C0000002002F007FA002002F004FAF02002F08F
:103C10000DFA002002F0FEF9502002F0FBF900201E
:103C200002F0F8F9002002F0F5F9002002F0F2F9B4
:103C3000F32002F0FBF9002002F0ECF9F92002F089
:103C4000F5F9062002F0E6F9102002F0E3F9292048
:103C500002F0E0F9002002F0DDF93A2002F0E6F986
:103C6000552002F0D7F9112002F0E0F96420FDF7A9
:103C700021FA292002F0DAF9352002F0D7F90020E4
:103C800002F0C8F9512002F0D1F9FF2002F0C2F988
:103C9000532002F0CBF92C2002F0BCF9552002F0A1
:103CA000C5F9822002F0B6F92C20FDE3B8427DD19F
:103CB0004FF470445521204602F0CEF9651CAA212C
:103CC000284602F0C9F9A61C5221304602F0C4F978
:103CD000E71C0821384602F0BFF94FF20408012121
:103CE000404602F0B9F90D214FF4304002F0B4F92A
:103CF0000D214BF2010002F0AFF90D214BF2020051
:103D000002F0AAF94FF436493421484602F0A4F9EA
:103D100034214BF2016002F09FF934214BF2026032
:103D200002F09AF94FF4314B0D21584602F094F904
:103D30000D214BF2011002F08FF90D214BF2021010
:103D400002F08AF934214FF4374002F085F934212A
:103D50004BF2017002F080F934214BF2027002F054
:103D60007BF900214FF4324002F076F900214BF24A
:103D7000012002F071F900214BF2022002F06CF9EF
:103D800024214FF4384002F067F924214BF601005A
:103D900002F062F924214BF6020002F05DF90121E4
:103DA0004FF43F4002F058F90F2100E0FEE34FF4DA
:103DB000334002F051F90F214BF2013002F04CF97F
:103DC0000F214BF2023002F047F934214FF4394011
:103DD00002F042F934214BF6011002F03DF9342192
:103DE0004BF6021002F038F908214FF4354002F08A
:103DF00033F908214BF2015002F02EF908214BF261
:103E0000025002F029F903214FF4424002F024F954
:103E100024214FF43A4002F01FF924214BF60120EF
:103E200002F01AF924214BF6022002F015F90021C4
:103E30004FF43C4002F010F978214BF6014002F0BB
:103E40000BF900214BF6024002F006F900214FF475
:103E50003D4002F001F978214BF6015002F0FCF8E8
:103E600000214BF6025002F0F7F800214FF43E40DB
:103E700002F0F2F864214BF6016002F0EDF8002147
:103E80004FF4514002F0E8F833214DF2011002F0F6
:103E9000E3F800214DF2021002F0DEF834214DF279
:103EA000031002F0D9F800214DF2041002F0D4F80A
:103EB0003A214DF2051002F0CFF800214DF2061024
:103EC00002F0CAF84A214DF2071002F0C5F80021AD
:103ED0004DF2081002F0C0F85C214DF2091002F01A
:103EE000BBF800214DF20A1002F0B6F881214DF224
:103EF0000B1002F0B1F800214DF20C1002F0ACF8FA
:103F0000A6214DF20D1002F0A7F800214DF20E107F
:103F100002F0A2F8E5214DF20F1002F09DF8012108
:103F20004DF2101002F098F813214DF2111002F02A
:103F300093F801214DF2121002F08EF854214DF247
:103F4000131002F089F801214DF2141002F084F8E8
:103F500082214DF2151002F07FF801214DF216106A
:103F600002F07AF8CA214DF2171002F075F802211A
:103F70004DF2181002F070F800214DF2191002F005
:103F80006BF802214DF21A1002F066F801214DF291
:103F90001B1002F061F802214DF21C1002F05CF8D7
:103FA00034214DF21D1002F057F802214DF21E107F
:103FB00002F052F867214DF21F1002F04DF8022175
:103FC0004DF2201002F048F884214DF2211002F049
:103FD00043F802214DF2221002F03EF8A4214DF2E6
:103FE000231002F039F802214DF2241002F034F8C7
:103FF000B7214DF2251002F02FF802214DF22610C4
:1040000002F02AF8CF214DF2271002F025F8022104
:104010004DF2281002F020F8DE214DF2291002F0B6
:104020001BF802214DF22A1002F016F8F2214DF28F
:104030002B1002F011F802214DF22C1002F00CF8B6
:10404000FE214DF22D1002F007F803214DF22E1043
:1040500002F002F810214DF22F1001F0FDFF0321B4
:104060004DF2301001F0F8FF33214DF2311001F024
:10407000F3FF03214DF2321001F0EEFF6D214DF2FE
:10408000331001F0E9FF00214FF4524001F0E4FF4A
:1040900033214DF2012001F0DFFF00214DF202201B
:1040A00001F0DAFF34214DF2032001F0D5FF0021A9
:1040B0004DF2042001F0D0FF3A214DF2052001F02D
:1040C000CBFF00214DF2062001F0C6FF4A214DF240
:1040D000072001F0C1FF00214DF2082001F0BCFFD4
:1040E0005C214DF2092001F0B7FF00214DF20A20BA
:1040F00001F0B2FF81214DF20B2001F0ADFF002154
:104100004DF20C2001F0A8FFA6214DF20D2001F088
:10411000A3FF00214DF20E2001F09EFFE5214DF29C
:104120000F2001F099FF01214DF2102001F094FFC2
:1041300013214DF2112001F08FFF01214DF21220C9
:1041400001F08AFF54214DF2132001F085FF012177
:104150004DF2142001F080FF82214DF2152001F074
:104160007BFF01214DF2162001F076FFCA214DF2AE
:10417000172001F071FF02214DF2182001F06CFFB1
:1041800000214DF2192001F067FF02214DF21A20A3
:1041900001F062FF01214DF21B2001F05DFF0221C1
:1041A0004DF21C2001F058FF34214DF21D2001F08A
:1041B00053FF02214DF21E2001F04EFF67214DF208
:1041C0001F2001F049FF02214DF2202001F044FFA1
:1041D00084214DF2212001F03FFF02214DF22220E7
:1041E00001F03AFFA4214DF2232001F035FF022116
:1041F0004DF2242001F030FFB7214DF2252001F0CF
:104200002BFF02214DF2262001F026FFCF214DF297
:10421000272001F021FF02214DF2282001F01CFF90
:10422000DE214DF2292001F017FF02214DF22A2054
:1042300001F012FFF2214DF22B2001F00DFF0221BF
:104240004DF22C2001F008FFFE214DF22D2001F04F
:1042500003FF03214DF22E2001F0FEFE10214DF24E
:104260002F2001F0F9FE03214DF2302001F0F4FE81
:1042700033214DF2312001F0EFFE03214DF23220C7
:1042800001F0EAFE6D214DF2332001F0E5FE002140
:104290004FF4534001F0E0FE33214DF2013001F0C4
:1042A000DBFE00214DF2023001F0D6FE34214DF24A
:1042B000033001F0D1FE00214DF2043001F0CCFEBC
:1042C0003A214DF2053001F0C7FE00214DF20630D3
:1042D00001F0C2FE4A214DF2073001F0BDFE00217F
:1042E0004DF2083001F0B8FE5C214DF2093001F0CA
:1042F000B3FE00214DF20A3001F0AEFE81214DF2F5
:104300000B3001F0A9FE00214DF20C3001F0A4FEAB
:10431000A6214DF20D3001F09FFE00214DF20E302E
:1043200001F09AFEE5214DF20F3001F095FE0121DA
:104330004DF2103001F090FE13214DF2113001F0DA
:104340008BFE01214DF2123001F086FE54214DF218
:10435000133001F081FE01214DF2143001F07CFE9A
:1043600082214DF2153001F077FE01214DF2163019
:1043700001F072FECA214DF2173001F06DFE0221EC
:104380004DF2183001F068FE00214DF2193001F0B5
:1043900063FE02214DF21A3001F05EFE01214DF262
:1043A0001B3001F059FE02214DF21C3001F054FE89
:1043B00034214DF21D3001F04FFE02214DF21E302E
:1043C00001F04AFE67214DF21F3001F045FE022147
:1043D0004DF2203001F040FE84214DF2213001F0F9
:1043E0003BFE02214DF2223001F036FEA4214DF2B7
:1043F000233001F031FE02214DF2243001F02CFE79
:10440000B7214DF2253001F027FE02214DF2263072
:1044100001F022FECF214DF2273001F01DFE0221D6
:104420004DF2283001F018FEDE214DF2293001F066
:1044300013FE02214DF22A3001F00EFEF2214DF260
:104440002B3001F009FE02214DF22C3001F004FE68
:10445000FE214DF22D3001F0FFFD03214DF22E30F3
:1044600001F0FAFD10214DF22F3001F0F5FD03218E
:104470004DF2303001F0F0FD33214DF2313001F0DA
:10448000EBFD03214DF2323001F0E6FD6D214DF2DE
:10449000333001F0E1FD00214FF4544001F0DCFD28
:1044A00033214DF2014000E07FE301F0D5FD002112
:1044B0004DF2024001F0D0FD34214DF2034001F0F5
:1044C000CBFD00214DF2044001F0C6FD3A214DF232
:1044D000054001F0C1FD00214DF2064001F0BCFD98
:1044E0004A214DF2074001F0B7FD00214DF208408E
:1044F00001F0B2FD5C214DF2094001F0ADFD00215B
:104500004DF20A4001F0A8FD81214DF20B4001F06F
:10451000A3FD00214DF20C4001F09EFDA6214DF2BD
:104520000D4001F099FD00214DF20E4001F094FD87
:10453000E5214DF20F4001F08FFD01214DF21040B9
:1045400001F08AFD13214DF2114001F085FD01219A
:104550004DF2124001F080FD54214DF2134001F064
:104560007BFD01214DF2144001F076FD82214DF2D8
:10457000154001F071FD01214DF2164001F06CFD76
:10458000CA214DF2174001F067FD02214DF218409B
:1045900001F062FD00214DF2194001F05DFD0221A4
:1045A0004DF21A4001F058FD012100E000E34DF208
:1045B0001B4001F051FD02214DF21C4001F04CFD69
:1045C00034214DF21D4001F047FD02214DF21E4005
:1045D00001F042FD67214DF21F4001F03DFD022137
:1045E0004DF2204001F038FD84214DF2214001F0D0
:1045F00033FD02214DF2224001F02EFDA4214DF2A7
:10460000234001F029FD02214DF2244001F024FD58
:10461000B7214DF2254001F01FFD02214DF2264049
:1046200001F01AFDCF214DF2274001F015FD0221C6
:104630004DF2284001F010FDDE214DF2294001F03D
:104640000BFD02214DF22A4001F006FDF2214DF250
:104650002B4001F001FD02214DF22C4001F0FCFC49
:10466000FE214DF22D4001F0F7FC03214DF22E40CA
:1046700001F0F2FC10214DF22F4001F0EDFC03217E
:104680004DF2304001F0E8FC33214DF2314001F0B1
:10469000E3FC03214DF2324001F0DEFC6D214DF2CE
:1046A000334001F0D9FC00214FF4554001F0D4FC17
:1046B00033214DF2015001F0CFFC00214DF20250A8
:1046C00001F0CAFC34214DF2035001F0C5FC002179
:1046D0004DF2045001F0C0FC3A214DF2055001F0BA
:1046E000BBFC00214DF2065001F0B6FC4A214DF210
:1046F000075001F0B1FC00214DF2085001F0ACFC74
:104700005C214DF2095001F0A7FC00214DF20A5046
:1047100001F0A2FC81214DF20B5001F09DFC002123
:104720004DF20C5001F098FCA6214DF20D5001F015
:1047300093FC00214DF20E5001F08EFCE5214DF26C
:104740000F5001F089FC01214DF2105001F084FC62
:1047500013214DF2115001F07FFC01214DF2125056
:1047600001F07AFC54214DF2135001F075FC012147
:104770004DF2145001F070FC82214DF2155001F001
:104780006BFC01214DF2165001F066FCCA214DF27E
:10479000175001F061FC02214DF2185001F05CFC51
:1047A00000214DF2195001F057FC02214DF21A5030
:1047B00001F052FC01214DF21B5001F04DFC022191
:1047C0004DF21C5001F048FC34214DF21D5001F017
:1047D00043FC02214DF21E5001F03EFC67214DF2D8
:1047E0001F5001F039FC02214DF2205001F034FC41
:1047F00084214DF2215001F02FFC02214DF2225074
:1048000001F02AFCA4214DF2235001F025FC0221E5
:104810004DF2245001F020FCB7214DF2255001F05B
:104820001BFC02214DF2265001F016FCCF214DF267
:10483000275001F011FC02214DF2285001F00CFC30
:10484000DE214DF2295001F007FC02214DF22A50E1
:1048500001F002FCF2214DF22B5001F0FDFB022190
:104860004DF22C5001F0F8FBFE214DF22D5001F0DD
:10487000F3FB03214DF22E5001F0EEFB10214DF21F
:104880002F5001F0E9FB03214DF2305001F0E4FB21
:1048900033214DF2315001F0DFFB03214DF2325054
:1048A00001F0DAFB6D214DF2335001F0D5FB002110
:1048B0004FF4564001F0D0FB33214DF2016001F07E
:1048C000CBFB00214DF2026001F0C6FB34214DF21A
:1048D000036001F0C1FB00214DF2046001F0BCFB5C
:1048E0003A214DF2056001F0B7FB00214DF2066060
:1048F00001F0B2FB4A214DF2076001F0ADFB00214F
:104900004DF2086001F0A8FB5C214DF2096001F056
:10491000A3FB00214DF20A6001F09EFB81214DF2C4
:104920000B6001F099FB00214DF20C6001F094FB4B
:10493000A6214DF20D6001F08FFB00214DF20E60BB
:1049400001F08AFBE5214DF20F6001F085FB0121AA
:104950004DF2106001F080FB13214DF2116001F067
:104960007BFB01214DF2126001F076FB54214DF2E8
:10497000136001F071FB01214DF2146001F06CFB3A
:1049800082214DF2156001F067FB01214DF21660A6
:1049900001F062FBCA214DF2176001F05DFB0221BC
:1049A0004DF2186001F058FB00214DF2196001F042
:1049B00053FB02214DF21A6001F04EFB01214DF232
:1049C0001B6001F049FB02214DF21C6001F044FB29
:1049D00034214DF21D6001F03FFB02214DF21E60BB
:1049E00001F03AFB67214DF21F6001F035FB022117
:1049F0004DF2206001F030FB84214DF2216001F086
:104A00002BFB02214DF2226001F026FBA4214DF286
:104A1000236001F021FB02214DF2246001F01CFB18
:104A2000B7214DF2256001F017FB02214DF22660FF
:104A300001F012FBCF214DF2276001F00DFB0221A6
:104A40004DF2286001F008FBDE214DF2296001F0F3
:104A500003FB02214DF22A6001F0FEFAF2214DF231
:104A60002B6001F0F9FA02214DF22C6001F0F4FA0A
:104A7000FE214DF22D6001F0EFFA03214DF22E6080
:104A800001F0EAFA10214DF22F6001F0E5FA03215E
:104A90004DF2306001F0E0FA33214DF2316001F067
:104AA000DBFA03214DF2326001F0D6FA6D214DF2AE
:104AB000336001F0D1FA5521204601F0CDFAAA2148
:104AC000284601F0C9FA5221304601F0C5FA082102
:104AD000384601F0C1FA0021404601F0BDFACC2170
:104AE000584601F0B9FA00214BF2011001F0B4FA76
:104AF0000521484601F0B0FA70214FF4374001F02B
:104B0000ABFA70214BF2017001F0A6FA01214FF4CB
:104B1000384001F0A1FA03214BF6010001F09CFAA4
:104B200003214BF6020001F097FA03214BF6030034
:104B300001F092FA02214FF43C4001F08DFA00217D
:104B40004BF6014001F088FA00214BF6024001F0DB
:104B500083FAD0214FF4494001F07EFA02214CF64D
:104B6000011001F079FA50214CF6021001F074FAAC
:104B700050214CF6031001F06FFA50214CF604104E
:104B800001F06AFA00214FF4545001F065FA552102
:104B90004FF4685001F060FA4FF4885001F046FA83
:104BA0000120FCF787FA4FF4245001F03FFAFDE3AF
:104BB000A0F513414FF480744FF4E06640F20227F1
:104BC00040F23F184FF4274925392BD0F51DA0F5A9
:104BD000134128397ED0A0F513414FF4887B4FF460
:104BE0001C59203977D0A0F51341313974D0A0F584
:104BF000A841083971D0A0F5A8514FF4407B053980
:104C00006CD0A0F53541053969D0A0F5454105398D
:104C100066D0A0F58A4131397ED0A0F58A41353978
:104C20007BD0C4E747F6F001E52001F015FA2146F4
:104C3000012001F011FA3146022001F00DFA41F293
:104C40003001032001F008FA0021042001F004FAE9
:104C50003946082001F000FA0021092001F0FCF992
:104C600000210A2001F0F8F900210C2001F0F4F9EC
:104C700000210D2001F0F0F900210F2001F0ECF9E6
:104C80000021102001F0E8F90721112001F0E4F9DA
:104C90000021122001F0E0F90021132001F0DCF9DD
:104CA0000021072001F0D8F941F29061102001F0B5
:104CB000D3F940F22721112001F0CEF99D211220D5
:104CC00001F0CAF94FF4C851132001F0C5F92521AC
:104CD000292006E07CE033E1D6E1AAE244E3FDE3EB
:104CE000FDE301F0B9F90D212B2001F0B5F9072101
:104CF000302001F0B1F940F20331312001F0ACF97C
:104D00000321322001F0A8F940F20621352001F0FC
:104D1000A3F90821362001E0FEE3FEE301F09CF94F
:104D200040F20641372001F097F94FF441713820E5
:104D300001F092F90721392001F08EF940F2026169
:104D40003C2001F089F908213D2001F085F900217E
:104D5000502001F081F9EF21512001F07DF900216F
:104D6000522001F079F94146532001F075F9494686
:104D7000602001F071F90121612001F06DF900213D
:104D80006A2001F069F90021802001F065F9002115
:104D9000812001F061F90021822001F05DF90021FC
:104DA000832001F059F90021842001F055F90021F8
:104DB000852001F051F91021902001F04DF94FF4B8
:104DC000C061922001F048F940F233110720FDE361
:104DD00041F28F01EC2001F03FF941F23421EF2044
:104DE00001F03AF92146012001F036F9314602205E
:104DF00001F032F941F23001032001F02DF90021D8
:104E0000042001F029F93946082001F025F9002194
:104E1000092001F021F900210A2001F01DF90121EA
:104E20000C2001F019F900210D2001F015F90021E5
:104E30000F2001F011F90021102001F00DF90721D8
:104E4000112001F009F90021122001F005F90021DB
:104E5000132001F001F90121072001F0FDF83220B3
:104E6000FCF728F941F29041102001F0F5F840F2EA
:104E70002721112001F0F0F83220FCF71BF98A21DC
:104E8000122001F0E9F83220FCF714F94FF4D05168
:104E9000132001F0E1F80621292001F0DDF80D21B1
:104EA0002B2001F0D9F83220FCF704F90021202052
:104EB00001F0D2F80021212001F0CEF83220FCF7D9
:104EC000F9F80021302001F0C7F840F204613120E8
:104ED00001F0C2F840F20531322001F0BDF80021A6
:104EE000352001F0B9F840F60941362001F0B4F858
:104EF0004FF40171372001F0AFF840F20131382052
:104F000001F0AAF82946392001F0A6F800213C203A
:104F100001F0A2F840F60A213D2001F09DF8322070
:104F2000FCF7C8F80021502001F096F8EF2151203D
:104F300001F092F80021522001F08EF8414649E13B
:104F40000021084601F088F82146012001F084F88C
:104F50003146022001F080F841F23001032001F0D7
:104F60007BF80021042001F077F83946082001F091
:104F700073F80021092001F06FF800210A2001F0E8
:104F80006BF801210C2001F067F800210D2001F0E1
:104F900063F800210F2001F05FF83220FCF78AF857
:104FA00040F20111072001F057F83220FCF782F897
:104FB0004FF48651102001F04FF80721112001F025
:104FC0004BF85C465946122001F046F84FF4306128
:104FD000132001F041F80021292001F03DF844F2AE
:104FE00010012B2001F038F80021502001F034F896
:104FF000EF21512001F030F80021522001F02CF86F
:105000004146532001F028F84946602001F024F879
:105010000121612001F020F800216A2001F01CF834
:105020000021802001F018F80021812001F014F8FF
:105030000021822001F010F80021832001F00CF8FB
:105040000021842001F008F80021852001F004F8F7
:105050001021902001F000F80021922000F0FCFFC8
:105060000121932000F0F8FF2146952000F0F4FF85
:105070000021972000F0F0FF0021982000F0ECFFC5
:1050800040F2731107207BE341F21401E72000F0A6
:10509000E3FF2146012000F0DFFF4FF40071022002
:1050A00000F0DAFF41F23801032000F0D5FF394665
:1050B000082000F0D1FF0021092000F0CDFF0021E1
:1050C0000A2000F0C9FF00210C2000F0C5FF0021DC
:1050D0000D2000F0C1FF00210F2000F0BDFF0021D6
:1050E000102000F0B9FF0721112000F0B5FF0021CA
:1050F000122000F0B1FF0021132000F0ADFFC82006
:10510000FBF7D8FF41F29061102000F0A5FF40F2BC
:105110002721112000F0A0FF3220FBF7CBFF0C214C
:10512000122000F099FF3220FBF7C4FF4FF400611A
:10513000132000F091FF1121292000F08DFF0B2199
:105140002B2000F089FF3220FBF7B4FF0021202044
:1051500000F082FF44464146212000F07DFF0021FF
:10516000302000F079FF4FF483763146312000F093
:1051700073FF0021322000F06FFF4FF401713520E2
:1051800000F06AFF41F20A61362000F065FF29460F
:10519000372000F061FF3146382000F05DFF2946DE
:1051A000392000F059FF40F202413C2000F054FF4A
:1051B00040F60F413D2000F04FFF0021502000F04D
:1051C0004BFFEF21512000F047FF0021522000F05B
:1051D00043FF2146532000F03FFF4946602000F086
:1051E0003BFF0121612000F037FF00216A2000F021
:1051F00033FF0021802000F02FFF0021812000F0EC
:105200002BFF0021822000F027FF0021832000F0E7
:1052100023FF0021842000F01FFF0021852000F0E3
:105220001BFF1021902000F017FF4FF4C061922067
:10523000FDE32146012000F00FFF3146022000F07F
:105240000BFF41F23001032000F006FF0021042093
:1052500000F002FF40F20721082000F0FDFE0021CF
:10526000092000F0F9FE00210A2000F0F5FE0021DF
:105270000C2000F0F1FE00210D2000F0EDFE0021D9
:105280000F2000F0E9FE1420FBF714FF41F2B0619B
:10529000102000F0E1FE0121112000F0DDFE0121CF
:1052A000172000F0D9FE4FF49C71122000F0D4FEBC
:1052B0004FF40061132000F0CFFE0921292000F0F7
:1052C000CBFE09212A2000F0C7FE0021A42000F017
:1052D000C3FE0021502000F0BFFEEF21512000F05E
:1052E000BBFE0021522000F0B7FE4146532000F0E3
:1052F000B3FE4946602000F0AFFE0121612000F0BE
:10530000ABFE00216A2000F0A7FE0021802000F003
:10531000A3FE0021812000F09FFE0021822000F0EA
:105320009BFE0021832000F097FE0021842000F0E6
:1053300093FE0021852000F08FFE1321902000F0C5
:105340008BFE0021922000F087FE0321932000F0C5
:1053500083FE5946952000F07FFE40F2731107202E
:1053600000F07AFE32200DE10021072000F074FEEB
:105370003220FBF79FFE4FF48E71122000F06CFE7E
:105380000121A42000F068FE0F21082000F064FE37
:1053900008210A2000F060FE08210D2000F05CFECC
:1053A0002946302000F058FE072100E066E3312056
:1053B00000F052FE40F20361322000F04DFE314613
:1053C000332000F049FE3946342000F045FE02212A
:1053D000352000F041FE41F60F71362000F03CFE12
:1053E0002946372000F038FE0021382000F034FE36
:1053F0000021392000F030FE29463A2000F02CFE32
:1054000000213B2000F028FE07213C2000F024FE74
:1054100000213D2000F020FE3220FBF74BFE012151
:10542000072000F019FE0121172000F015FE3220A0
:10543000FBF740FE4FF4BD51102000F00DFE40F28E
:105440001721112000F008FE4FF48F71122000F098
:1054500003FE4FF47061132000F0FEFD00212A20AE
:1054600000F0FAFD0A21292000F0F6FD4FF49F71AB
:10547000122000F0F1FD0021502000F0EDFDEF21A1
:10548000512000F0E9FD0021522000F0E5FD4146E9
:10549000532000F0E1FD4946602000F0DDFD0121D0
:1054A000612000F0D9FD00216A2000F0D5FD002127
:1054B000802000F0D1FD0021812000F0CDFD0021F1
:1054C000822000F0C9FD0021832000F0C5FD0021ED
:1054D000842000F0C1FD0021852001E055E050E16D
:1054E00000F0BAFD1321902000F0B6FD594692203D
:1054F00000F0B2FD0521932000F0AEFD00219520C3
:1055000000F0AAFD0021972000F0A6FD00219820C0
:1055100000F0A2FD214601E0FBE1B8E2012000F02D
:105520009BFD3146022000F097FD41F23801032037
:1055300000F092FD0021042000F08EFD00210C20DF
:1055400000F08AFD00210F2000F086FD00212020C0
:1055500000F082FD0021212000F07EFD21210720A6
:1055600000F07AFD1420FBF7A5FD6121072000F073
:1055700073FD1420FBF79EFD40F27311072000F02D
:105580006BFD1420FBF796FD78E20021084600F041
:1055900063FD0021084600F05FFD0021084600F091
:1055A0005BFD0021084600F057FD0121A42000F01A
:1055B00053FD1420FBF77EFD4D464946602000F068
:1055C0004BFD3946082000F047FD00E0D4E04FF4E1
:1055D0000571302000F040FD43F21571312000F0DC
:1055E0003BFD40F20461322000F036FD40F61661CA
:1055F000332000F031FD42F21121342000F02CFD67
:105600004FF4A851352000F027FD48F2075136200D
:1056100000F022FD41F20741372000F01DFD41F26C
:105620000341382000F018FD2021392000F014FD3E
:105630001A21902000F010FD0021102000F00CFD38
:105640000721112000F008FD0021122000F004FDC8
:105650000021132000F000FD1420FBF72BFD4FF478
:10566000E661102000F0F8FC40F23711112000F044
:10567000F3FC1420FBF71EFD4FF4DC71122000F048
:10568000EBFC1420FBF716FD4FF47061132000F0C3
:10569000E3FC80212A2000F0DFFC4821292000F0D3
:1056A000DBFC1420FBF706FD2146012000F0D4FCB2
:1056B0003146022000F0D0FC41F23801032000F016
:1056C000CBFC3946082000F0C7FC00210A2000F07E
:1056D000C3FC00210C2000F0BFFC00210D2000F0D5
:1056E000BBFC30210E2000F0B7FC0021502000F060
:1056F000B3FCEF21512000F0AFFC0021522000F05C
:10570000ABFC4146532000F0A7FC2946602000F086
:10571000A3FC0121612000F09FFC00216A2000F021
:105720009BFC1121902000F097FC4FF4C061922067
:1057300000F092FC40F20241932000F08DFC022127
:10574000942000F089FC1420FBF7B4FC0121072011
:1057500000F082FC1420FBF7ADFC6121072000F073
:105760007BFC40F27311072000F076FC0021202022
:1057700000F072FC0021212000F06EFC22210020AC
:105780007AE10021084600F067FC0021084600F09D
:1057900063FC1420FBF78EFC0021084600F05CFC43
:1057A0000021084600F058FC0021084600F054FC97
:1057B0000021084600F050FC0121A42000F04CFC20
:1057C0001420FBF777FC4946602000F045FC40F6CA
:1057D0000601082000F040FC40F2037631463020FC
:1057E00000F03AFC0121312000F036FC0421322087
:1057F00000F032FC4FF48171332000F02DFC5D4647
:105800005946342000F028FC40F20311352000F006
:1058100023FC1F21362000F01FFC3146372000F00A
:105820001BFC0121382000F017FC0421392000F076
:1058300013FC1521902000F00FFC4FF48261102022
:1058400000F00AFC40F24721112000F005FC4FF463
:10585000DE71122000F000FC4FF46061132000F0B4
:10586000FBFB7820FBF726FC2146012000F0F4FB2F
:105870004FF40071022000F0EFFB41F230010320F1
:1058800000F0EAFB08210A2000F0E6FB00210C20D2
:1058900000F0E2FB20210E2000F0DEFB00210F20B3
:1058A00000F0DAFB0021202000F0D6FB00212120AF
:1058B00000F0D2FB3D212A2000F0CEFB1420FBF7A4
:1058C000F9FB2D21292000F0C7FB0021502000F01A
:1058D000C3FB4DF2EF01512000F0BEFB002152202E
:1058E00000F0BAFB4146532000F0B6FB00216120D6
:1058F00000F0B2FB00216A2000F0AEFB29469220A6
:1059000000F0AAFB0521932000F0A6FB2146FFF73B
:10591000B9BB0121002000F09FFB0A20FBF7CAFB66
:1059200041F22861102000F097FB0E21122000F0B8
:1059300093FB40F63921132000F08EFB0A20FBF781
:10594000B9FB4021112000F087FB5021152000F009
:1059500083FB0A20FBF7AEFB1E21122000F07CFB2C
:105960000A20FBF7A7FB4FF4B151102000F074FBA5
:1059700042F63921132000F06FFB0A20FBF79AFB57
:105980002146012000F068FB5946022000F064FB2C
:1059900041F23801032000F05FFB3946082000F097
:1059A0005BFB08210A2000F057FB0021302000F0AB
:1059B00053FB40F20241312000F04EFB4FF4837163
:1059C000322000F049FB40F20351332000F044FB49
:1059D0004FF48271342000F03FFB40F2013135205A
:1059E00000F03AFB2946362000F036FB40F2053144
:1059F000372000F031FB4FF40271382000F02CFB0F
:105A000040F60B71392000F027FB0221412000F005
:105A100023FB4946602000F01FFB0121612000F0BC
:105A20001BFB4FF40471902000F016FB00E0D0E067
:105A30004FF48571922000F00FFB0421932000F0B9
:105A40000BFB2146A02000F007FB0121072000F0FE
:105A500003FB2121072000F0FFFA2321072000F09B
:105A6000FBFA3321072000F0F7FA40F23311072048
:105A700000F0F2FA0021A02000F0EEFA0020FCF77E
:105A800045FD5046FCF70EFD29B0BDE8F08F3021F2
:105A9000152000F0E1FA10219A2000F0DDFA202113
:105AA000112000F0D9FA43F22841102000F0D4FA76
:105AB0000221122000F0D0FA41F23801132000F048
:105AC000CBFA2820FBF7F6FA1221084600F0C4FAB8
:105AD0002820FBF7EFFA43F22041102000F0BCFA37
