:020000040800F2
:1000000038B30020A1010008D39D0008635A0008FE
:10001000D19D0008452100088DA5000800000000C2
:10002000000000000000000000000000099F000820
:10003000F921000800000000D59D0008699F000814
:10004000BB010008BB010008BB010008BB010008A0
:10005000BB010008BB010008BB010008BB01000890
:10006000BB010008BB010008BB010008BB01000880
:10007000BB010008BB010008BB010008BB01000870
:10008000BB010008BB010008BB010008BB01000860
:10009000BB010008BB010008BB010008BB01000850
:1000A000BB010008BB010008BB010008BB01000840
:1000B000BB010008BB010008BB010008BB01000830
:1000C000BB010008BB010008BB010008BB01000820
:1000D000BB01000881A50008BB010008BB010008A6
:1000E000BB010008BB010008BB010008BB01000800
:1000F000BB010008BB010008BB010008BB010008F0
:10010000BB010008BB010008BB010008BB010008DF
:10011000BB010008BB010008BB010008BB010008CF
:1001200049210008BB010008BB010008BB01000811
:10013000BB010008BB010008BB010008BB010008AF
:10014000BB010008BB010008BB010008BB0100089F
:10015000BB010008BB010008BB010008BB0100088F
:10016000BB010008BB010008BB010008BB0100087F
:10017000BB010008BB010008BB0100080000000033
:10018000BB010008BB010008DFF810D000F0F4FA52
:100190000048004721BC0008AFF3008038B30020BE
:1001A0000648804706480047FEE7FEE7FEE7FEE711
:1001B000FEE7FEE7FEE7FEE7FEE7FEE701A0000838
:1001C000890100082DE9F05F0546002092469B4614
:1001D00088460646814640241BE02846414647465D
:1001E000224600F083F953465A46C01A914110D373
:1001F00011461846224600F06AF92D1A67EB0108ED
:100200004F4622460120002100F061F917EB00095A
:100210004E41201EA4F10104DFDC484631462A4647
:100220004346BDE8F09F40EA01039B0703D009E085
:1002300008C9121F08C0042AFAD203E011F8013BD2
:1002400000F8013B521EF9D27047D2B201E000F82B
:10025000012B491EFBD270470022F6E710B513466A
:100260000A4604461946FFF7F0FF204610BD421C1F
:1002700010F8011B0029FBD1801A70472DE9FE4FB1
:1002800081EA030404F0004421F0004100944FF09F
:10029000000B23F0004350EA01045ED052EA03044D
:1002A0005BD0C3F30A54C1F30A552C44A4F2F334CF
:1002B0000194A0FB0254C1F3130141F48011C3F374
:1002C000130343F4801301FB024400FB034E840A32
:1002D000970A44EA815447EA8357A4FB07680295CA
:1002E0008D0A05FB07854FEA932C04FB0C54270568
:1002F000029D4FEA065847EA1637B5EB08056EEB44
:10030000070C870E920E47EA811742EA8312A7FB79
:100310000201B6EB0B0164EB00042B0D43EA0C3336
:100320005E1844EB1C50DA465146E7FB0201C5F368
:1003300013044FEA0B3343EA14534FEA0432019C8F
:1003400043EA0603A4F10C040294009CCDE900B436
:1003500000F0EBF803B0BDE8F08F00200146F9E7AC
:100360002DE9F04D81EA030404F0004B21F0004533
:1003700014464FF0000A23F0004150EA050220D055
:1003800054EA01021DD0C5F30A570246C5F3130310
:10039000C1F31300C1F30A5640F4801543F48013EF
:1003A000A7EB0608101BD64608F2FD3873EB0500D4
:1003B00002D308F1010801E092185B41B8F1000F87
:1003C00003DA00200146BDE8F08D00204FF48011D3
:1003D000064684460EE0171B73EB050705D3121B78
:1003E00063EB050306434CEA010C49084FEA300071
:1003F00092185B4150EA0107EDD152EA030012D096
:1004000082EA040083EA0501084305D0101BAB41D2
:1004100006D20122002306E000224FF0004302E052
:100420006FF0010253101AEB06004CEB085110EB71
:100430000A0041EB0B01BDE8F04D00F067B870B564
:10044000C1F30A5201F000450024C1F3130140F248
:10045000FF3341F480119A4201DA002070BD40F26E
:1004600033439A42A2F2334203DC524200F03EF898
:1004700000E090402C43F1D0404270BD00F00042BB
:1004800030F000400AD0C10D01F56071C0F31600D4
:1004900042EA0151C208400711437047002001465B
:1004A000704730B50B46014600202022012409E0A8
:1004B00021FA02F59D4205D303FA02F5491B04FA1D
:1004C00002F52844151EA2F10102F1DC30BD202AFC
:1004D00004DB203A00FA02F1002070479140C2F19B
:1004E000200320FA03F3194390407047202A04DBCD
:1004F000203A21FA02F00021704721FA02F3D0409D
:10050000C2F12002914008431946704710B5141EED
:1005100073F1000408DA401C41F1000192185B41BC
:100520001A4301D120F0010010BD2DE9F04D924693
:100530009B4611B1B1FA81F202E0B0FA80F22032AA
:100540009046FFF7C4FF04460F4640EA0A0041EA1E
:100550000B0153465A46084313D0114653EA010093
:1005600019D0C8F140025046FFF7C0FF05460E46BD
:10057000504659464246FFF7AAFF084305D00120DE
:1005800004E020463946BDE8F08D0020054346EAE8
:10059000E0762C4337430A986305E40AA0EB080091
:1005A0000022FD0A44EA47540A3002D500200146E1
:1005B000E9E7010510196941DDE9084500196941BC
:1005C000BDE8F04DA2E72DE9FE4F804681EA030029
:1005D000C00F0C46009021F0004123F00045B8EB1D
:1005E0000200A94105D24046214690461C460B46D2
:1005F000024623F00040104347D0270DC7F30A00FE
:10060000C3F30A510290401A019040286BDAC3F3F9
:10061000130040F4801B0098924620B10023D2EBD7
:10062000030A63EB0B0B01985946C0F14002504698
:10063000FFF74DFF06460D4650465946019A00F019
:10064000ADF810EB08006141002487EA115284EAFA
:10065000E7731A4340D0009A62B3019A012A4FEA25
:10066000075215DC001B61EB02014FF0004202EA69
:100670000752CDE90042001C41F5801132462B465D
:10068000FFF753FF03B0BDE8F08F40462146F9E77E
:10069000001B61EB0201001C41F5801300185B4157
:1006A0002018A2F5001747EB030140EAD570B619F0
:1006B0006D4111E06D084FEA360645EAC0754FEA14
:1006C0000752001B61EB0201001C41F58011490833
:1006D0004FEA30000019514132462B4603B0BDE8C5
:1006E000F04FFFF713BF0098012240000023D0EB2A
:1006F000020263EBE073009821464FEAE074B8EB26
:10070000000061EB0401E9E783F000435BE781F05F
:10071000004158E7C1F30A52C1F3130140F2FF331D
:1007200041F480119A4202DA00200146704740F2FB
:1007300033439A42A2F2334202DC5242FFF7D6BE62
:10074000FFF7C5BE30B5041E71F1000404DB4FF0A5
:100750000044404264EB0101141E73F1000405DB08
:100760001C464FF00043524263EB0403994208BF1A
:10077000904230BD00207047064C074D06E0E0680F
:1007800040F0010394E8070098471034AC42F6D3D8
:10079000FFF7FEFCD4AE0208F4AE0208202A06DB06
:1007A000CB17203A41FA02F043EAE07306E041FA3F
:1007B00002F3D040C2F1200291400843194670472D
:1007C000F0B5F1B1002300BF02EB430C32F813E0A7
:1007D000BCF802C02EF0030E2CF0030C50F80E50A3
:1007E00050F80C6000EB0E0400EB0C0740F80E60B4
:1007F00040F80C507E68656802338B4266607D600D
:10080000E2D3F0BD2DE9F04104889846164607462C
:10081000012A0D460CD1E4B3281D214690ED000AB3
:100820000139B1EE400A80ED000A00F10800F5D16F
:10083000FF2C0CDDB4F5806F10DBB4F5805F22D0A7
:10084000B4F5006F11D0B4F5806F17D021E03F2CC4
:1008500010DC102C12D0202C07D01AE0B4F5807FC9
:1008600003D0B4F5007F0ED013E03846294600F0DF
:100870005FF90EE0402C06D0802C0AD1384629467C
:1008800000F08AF805E07A6828462146012300F046
:100890004DFBB8F1000F04D0B989BA682846FFF7BC
:1008A0008FFF012E1CD100EE104A002CB8EE400A3A
:1008B00008BFBDE8F081B7EE001A81EE000A00BF64
:1008C00095ED001A95ED012A20EE011A22EE402A3C
:1008D00085ED001A85ED012A013C05F10805EFD1EF
:1008E000BDE8F08100224260FF294FF0FF02018045
:1008F0000EDDB1F5806F16DB29D0B1F5805F2BD00E
:10090000B1F5006F46D142F67473C0F6010336E0CC
:100910003F2913DC102924D020293BD142F69473BF
:10092000C0F601032BE0B1F5807F1FD0B1F5007F49
:1009300030D142F6B473C0F6010320E040291AD04A
:10094000802927D142F65473C0F6010317E042F61E
:100950004473C0F6010312E042F6A473C0F601032B
:100960000DE042F66473C0F6010308E042F68473BA
:10097000C0F6010303E042F6C473C0F60103191D7B
:1009800003F108020C331B88126809688381C0E9EF
:100990000112002250B270472DE9F0472DED028B75
:1009A00003888046084601EB830AD8F8042000211A
:1009B000B1EBD30F4FEA530900F0AB80D9080AEB33
:1009C000890C00EB890E0027C4190AEB070594ED8A
:1009D000000A95ED003A94ED011A95ED014A0EEBEF
:1009E00007030CEB070694ED022A95ED025A70EE10
:1009F000035A93ED006AD6ED001AD6ED012AD6ED22
:100A0000023AD6ED034AC4ED005A71EE045A93ED52
:100A1000017AC4ED015A72EE055AD3ED020AC4ED13
:100A2000025AD4ED035AD5ED036A31EE441A35EE7D
:100A3000A68A36EE214AD3ED037A84ED038A83ED4C
:100A4000004A37EE224A83ED014A30EEA34A83ED95
:100A5000024A37EEA44A83ED034AD31931EEC64A5F
:100A600033EEE06AD3ED000AD3ED011A30EE430A0B
:100A700032EE452A32EEC75A60EE202A61EE213A64
:100A800021EE201A20EE210A31EE400A85ED010AFE
:100A900024EE210A25EE211A25EE205A72EEA32A11
:100AA00024EE204A30EE450AC5ED002A86ED000A04
:100AB00034EE010A86ED010A93ED020A93ED031A62
:100AC00035EEE63A22EE004A23EE015A23EE003AD2
:100AD00022EE012A34EEE77A33EE422A85ED032A2C
:100AE00026EE012A27EE011A27EE003A26EE000A2A
:100AF00034EE054A32EE432A30EE010A013907F19D
:100B0000100785ED024A86ED022A86ED030A7FF47E
:100B10005BAF4946022300F009FAD8F8042050469A
:100B200049460223BDEC028BBDE8F04700F0FEB958
:100B30002DE9F04F81B02DED088B8EB00288034671
:100B4000500801EB800505EB800691ED000A91ED60
:100B5000011A96ED002A96ED013A04935B6806EBC4
:100B6000800730EE024A30EE420A31EE032A31EEBF
:100B7000431A95ED013A95ED005A0593930897EDC8
:100B8000017AD7ED000A029374EE452A72EE433AD9
:100B900034EE054A32EE032A6FF0010334EE204AA8
:100BA00032EE072A03EB920230EE036A71EE451A29
:100BB00030EE430A31EE051A81ED004A0A9181EDCB
:100BC000012A510836EE476A71EEA01A72EEE02A49
:100BD00073EEC73A30EE070A31EE601A00950196BF
:100BE00003970D91C10085ED006AC5ED011AC6EDB0
:100BF000002AC6ED013A87ED000A87ED011A0C9133
:100C000000EB40016FF007036FF003074FEA800E1F
:100C100007EBC00B07EB800A03EB001903EB810223
:100C20008C000020002500210B9100BF0A9E059B2F
:100C300007900695089406EB04080C9C311806EB07
:100C4000040C06EB0E0491ED020A9CED022AD4ED91
:100C5000020A30EE026AD8ED022A36EE204A34EE5D
:100C6000224A91ED031A9CED033AD4ED031AD8ED14
:100C7000033A81ED024A94ED034A31EE037A98ED8E
:100C8000035A37EE044ACDF824E034EE054A81EDEC
:100C9000034A0B9930EE420A31EE431A30EE212A14
:100CA00003EB010E32EE634A31EE602A0D9932EE0B
:100CB000225A36EE602A37EE613A30EE610A31EEA2
:100CC000201A1F18581932EE622A33EE633A30EEBA
:100CD000230A002931EE621A00F0CC800A998E189E
:100CE00001EB0A0301EB0905594493ED007AD6EDB7
:100CF000010AD1ED003A77EE202AD5ED014A72EED5
:100D0000A35A75EEA45A13ED016AD6ED001A51EDFF
:100D1000016AD5ED007AC3ED005A11ED018A76EE35
:100D2000215A95ED009A35EE888A38EE098A03ED4E
:100D3000018A97ED028A97ED039A24EE08AA25EE20
:100D400009BA25EE085A24EE094A35EE444A37EE30
:100D5000605A84ED034A36EE614A35EE666A33EE38
:100D6000E47A36EE276A74EE070A66EE091A20EE78
:100D7000899A60EE880A26EE086A3AEE0BAA71EEAE
:100D8000E00A36EE096A84ED02AAC1ED000A01ED1F
:100D9000016A90ED046AD0ED050A62EE061A23EEB0
:100DA000208A23EE063A22EE202A33EE422A8CEDE8
:100DB000032A32EEE32A35EEE63A71EE881A33EE74
:100DC000673A32EE642A0D98CCED021A62EE461AAA
:100DD00023EE066A23EE203A22EE202A31EEC33AB1
:100DE00032EE462A013886ED013A86ED002A0D9052
:100DF0009EED062A9EED073A0C9820EE026A61EEFF
:100E0000030A21EE021A20EE030A083031EE400AEE
:100E100037EEE61ADDF824E00C9088ED030A37EE91
:100E2000440A31EE451A0B9821EE034A20EE033AAC
:100E300020EE020A36EE206A21EE021A34EE400A53
:100E4000183088ED026A85ED010A31EE030A089C2C
:100E50000B9085ED000A069D07980EF1080E0834E8
:100E600010350830A9F10809083AABF1080BAAF1CE
:100E7000080ADBE697ED026A97ED037A64EE060A4C
:100E800065EE071A25EE065A24EE074A30EEA16AEF
:100E900035EE444A84ED026A84ED034A90ED044A3B
:100EA00090ED055A22EE046A23EE057A23EE043A09
:100EB00022EE052A36EE074A33EE422A8CED024A2C
:100EC0008CED032A9EED062A9EED073A029D20EE48
:100ED000024A21EE035A21EE021A20EE030A0A9872
:100EE000059A34EE052A31EE400A2946042388ED9E
:100EF000022A88ED030A00F019F8049C0098626841
:100F00002946042300F012F8626801982946042358
:100F100000F00CF862680398294604230EB0BDEC7B
:100F2000088B01B0BDE8F04FAFF300802DE9F04F22
:100F300081B02DED108BA0B0DFED04CA009004301D
:100F4000CDE902320190CDE91E1101E0F304353FF5
:100F50001F9A4FF0000AD308DF00A7EBD200C000B1
:100F60001D904FEAC20C03EB430503EB83025801CB
:100F700006931E01019B2C014FEAC20EED00CDE944
:100F80000C0ECDE90A5600BF0A9D191803EB05099E
:100F90001D9D03EB0E0003EB070810ED014A86468A
:100FA0009A19181903EB050B13ED011A11ED012A1B
:100FB00018ED013A12ED017A50ED010A59ED011ACE
:100FC0005BED012A31EE025A33EE046A77EE203AE5
:100FD00071EEA24A75EE235A76EE246A75EEA67A71
:100FE00043ED017A75EEE65AD8ED007A9EED008A5F
:100FF00099ED00BA9BED00CAD3ED006A41ED015AAC
:10100000D1ED005A92ED009A90ED00AA37EE88EAF1
:101010007BEE0C8A36EEA5DA39EE0AFA35EE635A23
:1010200036EE646A7EEE684A7DEE0F9A7DEE4F3AA8
:1010300035EE24DA35EE645A7EEE28AA02ED01DAA6
:1010400033EEC6DA00ED015A36EE235A31EE421A7B
:1010500033EE442A37EE603A31EEE24A37EEC86AA0
:101060007BEE4C0A79EEAABA79EEEA9A72EE441A4D
:1010700032EE042A36EE604A36EE206AC3ED00BA3C
:10108000C1ED009A82ED00DA80ED005A36EEE55AA5
:1010900039EE4A7A61EEAC1A22EE2C2A24EE2C4A62
:1010A00026EE2C6A71EE210A73EE022A75EE043ADE
:1010B00077EE064A31EE611A33EE422A35EE443AB3
:1010C00037EE464A2646744670EEA45A70EEE40A9D
:1010D00031EE045A1F9A1E9948ED015A73EEE25AF6
:1010E0004BED010A72EEA30A204604ED015A33EEDD
:1010F000425ADDF834E0C8ED005ACBED000A84ED29
:10110000005A0C9831EE441A34460B9E924409ED75
:10111000011A32EE031A8A45634489ED001AFFF47E
:1011200033AF1F984028C0F0D4810298009E80B24F
:1011300005900698CDE90E4CC0EBC000C00000241D
:1011400001251097049000BF0598039B044403EB0E
:10115000C40191ED000A03EB04128DED1D0A92ED1E
:10116000000A04EB440203EBC2008DED1C0A90ED73
:10117000000A03EB44118DED1B0A91ED000A04EB0C
:101180008401C80003EBC1018DED1A0A91ED000A3C
:101190004FEAC20A4FEA021B03EB02128DED190A55
:1011A00092ED000AC4EBC4024FEAC40CD10003EB79
:1011B000C2028DED180A92ED000A0CF104024FEA0A
:1011C000041E1A448DED170A92ED000A0EF1040276
:1011D0001A448DED160A92ED000A0AF104024FEA54
:1011E00044191A448DED150A92ED000A09F1040222
:1011F0001A448DED140A92ED000A043018448DED66
:10120000130A90ED000A0BF1040018448DED120A48
:1012100090ED000A081D18440994D0ED006A079665
:10122000B44608952B46DDE90C54DDE90A76DDF875
:1012300010808DED110A00BF10980E990CEB050976
:101240000CEB000E0CEB04000CEB060B0CEB010A94
:101250000CEB07020CEB0801DCED027A99ED028A37
:101260009EED029A90ED02AA9BED02DA9AED02EA57
:1012700092ED02FAD1ED028A37EE88BA39EE0ACA47
:101280007DEE0E9A7FEE28AA7BEE29BAF0EE6C3A3C
:101290007CEE2ACA7BEEACDACCED02DA7BEEECBA5D
:1012A000DCED03CAD9ED03DADEED03EAD0ED03FA93
:1012B0009BED030A9AED031A92ED032A91ED033A8E
:1012C0003CEEAD4A3EEEAF5A30EE016A32EE037AA2
:1012D00074EE060A75EE071ADDED1A4ADDED135AB3
:1012E00070EEA12A70EEE10ACCED032A64EEAB1A8F
:1012F00065EEA02A71EEA21A64EEA00A65EEAB2A92
:1013000070EEE20AC9ED021AC9ED030A7BEE690A22
:101310007CEE6A1A34EE464A35EE475A9DED1CCAF9
:10132000DDED154A30EE856A34EE617A6CEE062A00
:1013300024EE87BA2CEE077A24EE866A30EEC55A80
:1013400031EE844ADDED180ADDED111A37EE466AFA
:101350008BED036A20EE856A21EE847A20EE844AC2
:1013600021EE855A37EE066A34EE454A39EE4A5A7E
:101370003FEE687A7EEEEF1A30EE410A32EE431A03
:101380007BEE222A35EE472A35EE073A31EEC15A76
:1013900031EE811ACBED022A8AED026A8AED034A08
:1013A00037EEC84A3DEE4E6A7CEEED0A22EE232A65
:1013B00023EE233A25EE235A21EE231AF0EE63CAD8
:1013C00034EE027A76EE031A70EE852A70EE017A18
:1013D000DDED1D3ADDED164A37EE278A32EEE19A51
:1013E00023EE88AA24EE89BA23EE899ADDED173A16
:1013F00037EE677A71EEA21A63EE872A66EEA17A5B
:1014000063EEA11A26EE877A24EE888A31EEC77A37
:1014100034EE422A36EE433A30EEC54A30EE410A07
:10142000DDED190ADDED121A39EE488A32EE001AA6
:1014300034EE435A8EED038A81ED037A20EE816A01
:1014400021EE857A20EE855A21EE811A3AEE0BAA1A
:1014500072EEA72A36EE076A35EE411A8EED02AA21
:10146000C1ED022A80ED026A80ED031A1F9833EE67
:10147000041A03441E989DED1B4A9DED145A32EE4A
:10148000400A83420F9824EE002A25EE013A24EE0A
:10149000011A25EE000A32EE032A31EE400A844496
:1014A00082ED022A82ED030AFFF4C6AE089D06987B
:1014B000079E0135099C854206F10806FFF444AEFB
:1014C0000298C00002901F983F2806981F903FF690
:1014D0003FAD20B0BDEC108B01B0BDE8F08F10B572
:1014E00078B14FF400710446FFF7FCF950B94FF49E
:1014F0008060208242F65470C0F6020060610020D5
:1015000000E0FF2040B210BD10B568B14021044694
:10151000FFF7E8F948B98020208243F65470C0F6FE
:1015200002006061002000E0FF2040B210BD10B555
:1015300078B14FF480610446FFF7D4F950B94FF405
:101540000060208244F25410C0F602006061002066
:1015500000E0FF2040B210BD10B570B180210446FC
:10156000FFF7C0F950B94FF48070208246F2541052
:10157000C0F602006061002000E0FF2040B210BD14
:1015800010B568B110210446FFF7ACF948B9202026
:10159000208246F25450C0F602006061002000E054
:1015A000FF2040B210BD10B578B14FF40061044681
:1015B000FFF798F950B94FF48050208246F2D4508A
:1015C000C0F602006061002000E0FF2040B210BDC4
:1015D00010B578B14FF480710446FFF783F950B924
:1015E0004FF4007020824AF2D450C0F602006061CD
:1015F000002000E0FF2040B210BD10B568B12021EE
:101600000446FFF76FF948B9402020824AF6D450CB
:10161000C0F602006061002000E0FF2040B210BD73
:10162000F0B581B014460E46054673B128463146E2
:1016300022461F4600F060F8284621463A4601231C
:1016400001B0BDE8F040FFF7DDB828463146002282
:101650000123FFF7D7F828463146224601B0BDE8FE
:10166000F04000F0A3B8B1F5007F0ADA7F2916DC5C
:10167000202929D040293BD141F2FB51C0F600017D
:101680000847B1F5006F14DAB1F5007F21D0B1F54C
:10169000806F2DD141F2DF41C0F60001084780295B
:1016A0001CD0B1F5807F23D141F25951C0F6000121
:1016B0000847B1F5805F16D0B1F5006F18D141F23F
:1016C0002F51C0F60001084741F28151C0F60001D8
:1016D000084741F2D151C0F60001084741F20951D3
:1016E000C0F60001084741F2A751C0F600010847C3
:1016F0004FF0FF307047000080B591ED001A91ED7A
:10170000012AD0F814E0008831EE023AB6EE000A61
:1017100031EE421AB0F1010C23EE003A21EE001A2C
:1017200082ED003A82ED011A08BF80BD01F1080385
:1017300001EBCC010EF108000832043111ED011A61
:1017400091ED002A93ED003A93ED014A90ED005A95
:1017500090ED016A33EE417A72EE040A67EE051AE3
:1017600060EE862A27EE066A31EE031A34EE422A2C
:1017700025EE205A31EE611A32EE062A31EE621A57
:1017800032EE452A21EE001A22EE002A82ED001ADE
:1017900082ED012ABCF1010C03F1080300F10800FD
:1017A00002F10802A1F10801C8D180BD91ED000A43
:1017B00091ED011A0388406930EE002A31EE011ADA
:1017C000A3F1010C32EE013AB6EE000A32EE411AF4
:1017D00023EE003A21EE001A00F1080301F108009F
:1017E00001EBCC0182ED003A82ED011A083204319E
:1017F00011ED011A90ED003A91ED002A90ED014AA9
:1018000093ED005A93ED016A31EE437A72EE040AC9
:1018100067EE051A27EE067A31EE031A34EE422AF5
:1018200025EE205A20EE866A31EE211A32EE072A82
:1018300031EE061A32EE452A21EE001A22EE002A77
:1018400082ED001A82ED012ABCF1010C03F10803BC
:1018500000F1080002F10802A1F10801C8D17047A7
:1018600070B50025012410EE100AFEF707FE41ECCA
:10187000100B2146284600F005F8BDE87040012015
:1018800002F03EBA02460020012900D101201AB11F
:10189000012A03D10AF0CEB80AF0F6B8704710B5A5
:1018A0000146806B026C12F0500F05D0026CD2061C
:1018B00026D501F07AFC10BD016C41F40071016481
:1018C00001688A6812F0405F17D1027EAAB9CA6A1D
:1018D00012F4700F02D08A6852050ED44A6822F0C2
:1018E00020024A60016C21F480710164016CC9041A
:1018F00003D4016C41F00101016401F049FC10BD09
:10190000806BC26CBDE810400846104710B5806B74
:1019100040210164416C41F00401416401F045FC47
:1019200010BD10B5806B01F03FFC10BD10B5044632
:101930004B48416821F4403141604168626811437D
:1019400041602068416821F48071416020684168ED
:10195000226941EA022141602068416821F040711A
:10196000416020684168A268114341602068816835
:1019700021F40061816020688168E2681143816020
:10198000A06A6FF07061C8422068816821F07061C0
:101990008160206881680CD0A26A11438160206850
:1019A000816821F04051816020688168E26A1143BA
:1019B00001E021F0405181602068816821F002013E
:1019C000816020688168227E41EA4201816094F84A
:1019D000200000283FD0606A401E072804D94FF439
:1019E000F56120A00AF00EF92068416841F4006119
:1019F00041602068416821F460414160206841688D
:101A0000264B626A03EB4232114341602068C16A8F
:101A100021F47001C1622068C16AA28B204B03EBE4
:101A200002521143C1622068816821F40071816013
:101A30002068816894F8302041EA42218160206862
:101A4000816821F48061816020688168626941EA6F
:101A50008221816010BD2068416821F40061D4E7D3
:101A6000002301402E2E2F447269766572732F5326
:101A7000544D3332463478785F48414C5F44726944
:101A80007665722F5372632F73746D3332663478B8
:101A9000785F68616C5F6164632E630000E0FFFF44
:101AA0000000F0FFF0B54B4801262DED028B8BB006
:101AB0000078494C022813D00020A07060794FF6BE
:101AC000FF7590B1284604F015F80A2143A004F0F0
:101AD0005DF900F09BFD00206071207060700AE0ED
:101AE000A07800B966710120E7E7207800286CD162
:101AF0006078322869D2C0B2322802D39FED3C8A86
:101B00000FE000EE100A9FED3B1AB8EE400AC0EE5F
:101B1000010A9FED390A08F043FEDFED380A20EE96
:101B2000208ABCEEC80AB8EE400AFFF799FEB0EE74
:101B3000480A08F0EBF96078314FF0EE400A00EB0C
:101B4000800007EB8000B0EE480A08F0EDF86078FE
:101B500000EB800007EB8000016900910FC80AF0DC
:101B60009FF860783223401CC2B226A102A808F078
:101B70001FFD28491F20232308802748C822192138
:101B800005800A20009504F0F3F90C2002A9CDE9A4
:101B900000010346B42219210A2007F097FE60785D
:101BA000401CC0B2607032280FD3267032213846F4
:101BB00001F020F800F022FB0BB03846BDEC028BA0
:101BC0003221BDE8F04000F053BC0BB0BDEC028BFD
:101BD000F0BD00003700002028000020467265712B
:101BE00075656E637920526573706F6E7365000062
:101BF00000504348000044420000FA440000C8423C
:101C00004C93002050726F67726573733A2025649D
:101C10002F25640024000020260000202DE9F0413B
:101C200056482DED028BAEB0007802287ED0002001
:101C3000534D0027A870E87870B19FED528AB0EE3E
:101C4000480AFFF70DFEB0EE480A08F05FF985ED8F
:101C5000020A00F0B1F8EF704B4A95ED020AA2F1CA
:101C60001001A1F1100008F0C9F800F099F9DFF8AF
:101C70001C8198F80000002879D04348012264387C
:101C80001103D0ED158A424802F04AFA4FF4FA7077
:101C900002F036F83F4E002404EBC40006EB80004F
:101CA00000F1200200F1100195ED020A08F0A6F8FB
:101CB000641CE4B2082CEFD3002002A900EBC002A0
:101CC00006EB8202103201EB001392E8341083E835
:101CD0003410401CC0B20828F0D30A469FED2E8A6B
:101CE00008210020B0EE480A02EB0013401CD3ED9F
:101CF000000A884230EE800AF6DB00EE901A27498F
:101D0000B8EEE01AC0EE010A10EE900A884207DD34
:101D100038EEE00A80EE201A9FED210A21EE008ABB
:101D20002048214907804FF6FF7000E024E008803A
:101D30000090CA23E622BE213C2004F019F918EED7
:101D4000100AFEF79BFB41EC100B18A153EC102B73
:101D500022A808F02DFC0C2022A9CDE900010346A1
:101D60007822BE213C2007F0B1FD88F800702EB02B
:101D7000BDEC028BBDE8F081012059E7370000205F
:101D80002800002000007A444893002036000020FC
:101D900000040240E4310020000000006F12833A8A
:101DA00000800E442400002026000020252E3366EB
:101DB000206BA6B8000000002DE9FC474FF6FF7627
:101DC000304603F097FE504D1F20504F28800A21C7
:101DD0003E804FA003F0DAFF4FF4FC68A5F80080C6
:101DE0004FF0100A3E804FA1CDE900A15346C82212
:101DF00023210A2007F06AFD4FF00009A5F80090A2
:101E00000C243E804BA0CDE90040234650223721D0
:101E10000F2007F05BFD49A0CDE900400C235022C4
:101E200046210F2007F052FD45A0CDE900400C23CC
:101E3000502255210F2007F049FD42A0CDE9004076
:101E40000C23502264210F2007F040FDA5F80080EC
:101E50003E803EA1CDE900A11023C8227D210A20A9
:101E600007F034FDA5F800903E803DA0CDE900408C
:101E70000C23642291210F2007F028FD3BA0CDE91F
:101E800000400C236422A0210F2007F01FFD2CA08E
:101E9000CDE900400C236422AF210F2007F016FD8E
:101EA00035A0CDE900400C236422BE210F2007F0AD
:101EB0000DFDA5F800803E8031A1CDE900A11023E1
:101EC000C822D7210A2007F001FDA5F800903E8026
:101ED00030A0CDE900400C236422EB210F2007F055
:101EE000F5FC48F2304028807823E62219460A2083
:101EF00003F074FF02B0D223BDE8F047E622194692
:101F00000A2003F06BBF0000240000202600002000
:101F10004261736963204D6561737572656D656EAD
:101F200074000000496E707574205369676E616CAF
:101F30000000000056696E3A2031560056733A0090
:101F400066733A0052696E3A000000004F75747073
:101F50007574205369676E616C2841432900000045
:101F6000566F7574284F70656E293A00566F7574F8
:101F700028524C293A000000526F75743A00000054
:101F80004F7574707574205369676E616C28444393
:101F900029000000566F7574284443293A00000058
:101FA000F0B55B498FB0002008805A484FF6FF74A7
:101FB00052230480E62246213C20009403F0D8FFFF
:101FC000554D2868FEF75AFA41EC100B53A153EC1B
:101FD000102B02A808F0ECFA0C2602AF3346782248
:101FE00046213C20CDE9006707F070FC6123E62222
:101FF00055213C20009403F0BBFF95ED010A00221F
:1020000055213C2003F02EFE7023E62264213C2063
:10201000009403F0ADFF95ED001ADFED420A81EE6A
:10202000200AF3EE040A70EEC00A80EE801A9FEDDB
:102030003E0A21EE000A10EE100AFEF71FFA41ECEC
:10204000100B3AA153EC102B02A808F0B1FA0C23A4
:10205000782264213C20CDE9006707F037FC9D23FE
:10206000E62291218220009403F082FF2869FEF786
:1020700005FA41EC100B29A153EC102B02A808F033
:1020800097FA0C23782291218220CDE9006707F08E
:102090001DFCBB23E622AF213C20009403F068FF27
:1020A00095ED050A0022AF213C2003F0DBFDF7236C
:1020B000E622EB215A20009403F05AFF286AFEF72B
:1020C000DDF941EC100B15A153EC102B02A808F020
:1020D0006FFA0C237822EB215A20CDE9006707F034
:1020E000F5FB1548007800280FD1CA23E622BE214F
:1020F0003C20009403F03CFF10A0CDE900600C23CD
:102100007822BE213C2007F0E1FB0FB0F0BD0000BB
:10211000240000202600002028930020252E33666E
:10212000205600000000D4425839B43C252E3366B6
:10213000206BA6B800000000360000202D2D2D20B9
:102140006BA6B800FEE70000014801F035BB0000B7
:102150009430002001681823CAB2103AB2FBF3F29F
:10216000054B6FF30901032A9B5CC36500D9091D68
:1021700081650846704700009CC0000810B5014604
:1021800000208B698A6A4FF0C07453B1B3F5005FC9
:1021900015D072B1012A0CD0022A0AD0032A09D123
:1021A00004E01AB1012A06D0022A03D1C96AC90182
:1021B00000D5012010BDC96AA142FAD010BD002A85
:1021C000F7D0012AF2D0022AF3D0032AF3D010BDAF
:1021D00030B50468256825F48025256004686360AF
:1021E0008368402B036803D099600068C26030BDEB
:1021F0009A600068C16030BD704700002DE9F04F63
:102200002DED048BB0EE408A0A26DFF8DCA1B5EE96
:10221000C08AC82575488BB04FF6E078F1EE10FA09
:10222000AAF800804FF6FF74048032DD18EE100A21
:102230006F4988420DDBDFED6F0A88EE200A10EE51
:10224000100AFEF71BF941EC100B6BA153EC102B9D
:102250001BE018EE100A6D4988420DDBDFED6C0AB9
:1022600088EE200A10EE100AFEF708F941EC100B78
:1022700068A153EC102B08E018EE100AFEF7FEF8E8
:1022800041EC100B68A153EC102B02A808F090F958
:1022900003E06AA102A808F08BF9D823E6222946B8
:1022A0003046009403F064FE102002A9CDE900013D
:1022B0000346DC222946304607F008FBB5EEC08A0B
:1022C000F1EE10FA7EDD2827B4269FED620A08F0B1
:1022D000A7F9F0EE408A9FED600A08F0A1F918EE28
:1022E000100A5E49B0EE409A08445D49884275D8AC
:1022F000B0EE480A08F094F930EE680ADFED590AAA
:1023000039EE681AAAF8008020EE200A3C46C14641
:10231000C0EE010AB3EE0E0A30EE800ABCEEC00A2F
:1023200010EE100A85B2C8464A462146284603F0F8
:10233000B1FD601C81B24246284603F0ABFD641D2E
:10234000A4B2B442EFD9F01B00EE100AB8EEC00AF6
:10235000DFED450A20EE200A9FED441AAAF800900E
:10236000C0EE010A00EE106A4E46B8EE400A30EEAA
:10237000600ABCEEC00A10EE100A1FFA80F8E81CD2
:1023800082B2E81E434680B2194603F027FD08F1E9
:10239000030083B2801F81B22A46104603F01EFD5F
:1023A0006FF00104A346B2465E4604FB04F705EB5A
:1023B000040900BF06FB0670042809DC08EB0600D0
:1023C00081B200E00AE01FFA89F0524603F062FD94
:1023D000761C022EEEDD641C022CE5DD0BB0BDEC9C
:1023E000048BBDE8F08F00002400002026000020B0
:1023F00000247449002474492D33644220467265D8
:10240000713A20252E3266204D487A0000007A4429
:1024100000007A442D33644220467265713A2025CB
:102420002E3266206B487A002D3364422046726556
:10243000713A20252E316620487A00002D336442FF
:1024400020467265713A204E6F7420466F756E6437
:10245000000000000000C84200504348000038BDA2
:1024600000507B050000344300000442000070422D
:102470002DE9F0432DED048B0A468DB04A4B47F60B
:10248000FF71DC241980494B00214FF00A091980A3
:102490009FED478ADFED478A9FED479A1EE000BF18
:1024A00001EB810300EB8303D3ED000AF5EEC00AD4
:1024B000F1EE10FA11DD93ED030AB4EEC80AF1EE65
:1024C00010FA03DDB0EE408AF0EE608AB4EEC90A7D
:1024D000F1EE10FA01D2B0EE409A491C9142DFDBD6
:1024E0004FF6FF70009004F12003E6222146484693
:1024F00003F03EFD18EE900A3049884213DBDFED11
:10250000300A88EEA00A10EE100AFDF7B7FF054664
:102510000E4618EE100AFDF7B1FF41EC100B29A191
:1025200053EC102B0EE018EE900AFDF7A7FF0546BE
:102530000E4618EE100AFDF7A1FF41EC100B27A183
:1025400053EC102BCDE9005602A808F031F802AF89
:102550004FF00C08CDE900871023DC2221464846C5
:1025600007F0B4F918EE100AFDF788FF05460E468D
:1025700019EE100AFDF782FF41EC100BCDE9005671
:1025800053EC102B1BA102A808F012F8CDE900872C
:1025900004F110011023DC22484607F097F90DB032
:1025A000BDEC048BBDE8F083240000202600002051
:1025B0000000C8C2000000000000C84200007A44C9
:1025C00000007A445065616B3A20252E31666442E2
:1025D000204020252E31666B487A00005065616BE3
:1025E0003A20252E31666442204020252E3166484F
:1025F0007A00000052616E67653A20252E31662010
:102600007E20252E31662064420000002DE9F04F27
:10261000DFF8A4B1B4242DED028B91B04FF01E0869
:102620004FF0D2094FF0000A23462825ABF800A04E
:102630004A461946404603F0D1FB42462346294606
:10264000104603F0CBFB9FED5D0A07F0E9FFB0EE0B
:10265000408A9FED5B0A07F0E3FF5A4802AFF0EEB5
:10266000408A4EC887E84E000FC806AF002687E8AC
:102670000F0002A800EB860090ED000A524810EE11
:10268000101A01445148814235D807F0C9FF70EE55
:10269000480AA9EB080000EE100A38EEC81A2146D5
:1026A000B8EEC00A20EE800AC0EE010A00EE108AE1
:1026B000B8EE400A30EE800ABCEEC00A10EE100AF6
:1026C00087B2601F83B23A46104603F087FB40484A
:1026D000ABF800A04FF6FF71018006A90C2051F85D
:1026E00026100C23CDE90001A7F10A00611D80B27C
:1026F0001E2207F0EBF8761C042EBADB31481422B8
:102700000838D0E90010CDE90F102E490AA8203171
:10271000FDF789FD0027A4EB05090FA830F9171074
:102720005020323101FB09F191FBF0F0201A86B202
:10273000AE421CD3A6421AD8334608F10502194608
:10274000404603F04BFB2249ABF800A04FF6FF7068
:10275000088007EB87000AA908440C21CDE9001086
:10276000B61FB1B20C231922052007F0AFF87F1C69
:10277000042FD2DB1649ABF800A04FF6FF7008809B
:102780000C2614A0CDE9006004F1140108F13C000E
:102790003346502207F09AF811A0CDE9006005F108
:1027A00032010C231422052007F090F811B0BDEC83
:1027B000028BBDE8F08F0000240000200000C8421A
:1027C0000050434884D80008000038BD00507B0505
:1027D000260000204672657175656E637900000001
:1027E0006442000072B6FEE770B515460C46064618
:1027F0003BB1B3F5804F07D040F2B51130A009F0DE
:1028000001FA6FF0704056E03B48864204D040F237
:10281000BB112BA009F0F6F920680F2804D94FF45A
:10282000DE7127A009F0EEF96068401E0E2804D979
:1028300040F2BD1122A009F0E5F9A068401EFE2873
:1028400004D94FF4DF711EA009F0DCF9E0680F280D
:1028500004D940F2BF111AA009F0D4F9A06968B1F7
:10286000B0F1805F0AD0B0F1005F07D0B0F1405FF7
:1028700004D04FF4E07112A009F0C4F955B1022D53
:1028800008D0042D06D0062D04D040F2C1110CA0B2
:1028900009F0B8F9A1692068A268084361680901D4
:1028A00041EA02210843A18940EA014056F8251077
:1028B000124A1140084346F82500002070BD000070
:1028C0002E2E2F447269766572732F53544D333216
:1028D000463478785F48414C5F4472697665722F60
:1028E0005372632F73746D3332663478785F6C6C17
:1028F0005F66736D632E6300040100A00000F0CFDB
:1029000070B50C460546B0F1204F03D0E4215FA01E
:1029100009F078F9206848B1022807D0042805D0CA
:10292000062803D0E52159A009F06CF9606828B1A8
:10293000022803D0E62155A009F064F9A06838B157
:10294000042805D0082803D0E72150A009F05AF93F
:10295000E06838B1102805D0202803D0E8214BA02A
:1029600009F050F9206930B1B0F5807F03D0E9213A
:1029700046A009F047F9606930B1B0F5007F03D097
:10298000EA2142A009F03EF9A06930B1B0F5806FAC
:1029900003D0EC213DA009F035F9E06930B1B0F584
:1029A000006F03D0EE2139A009F02CF9206A30B174
:1029B000B0F5805F03D0EF2134A009F023F9606AFD
:1029C00030B1B0F5005F03D0F02130A009F01AF962
:1029D000A06A30B1B0F5804F03D0F1212BA009F0EF
:1029E00011F9E06A30B1B0F5004F03D0F22127A011
:1029F00009F008F9206B30B1B0F5002F03D0F321B6
:102A000022A009F0FFF8E06B78B1B0F5803F0CD060
:102A1000B0F5003F09D0B0F5403F06D0B0F5802FAB
:102A200003D0FA2119A009F0EDF8206855F820101C
:102A300021F0010145F82010A268082A23D00020C7
:102A40006168204B1143E26802432069114301434E
:102A500060690143E0690143206A0143606A014300
:102A6000A06A0143E06A0143206B0143A069084367
:102A7000E16B0143206855F820209A430A4345F84A
:102A80002020002070BD4020DAE700002E2E2F44C9
:102A90007269766572732F53544D333246347878A9
:102AA0005F48414C5F4472697665722F5372632FA1
:102AB00073746D3332663478785F6C6C5F66736DF7
:102AC000632E63007FFF0F0070B515460C46064667
:102AD000B0F1204F04D040F2831137A009F092F8F2
:102AE00020680F2804D94FF4C27133A009F08AF886
:102AF0006068401E0E2804D940F285112EA009F00E
:102B000081F8A068401EFE2804D94FF4C3712AA0A2
:102B100009F078F8E0680F2804D940F2871126A060
:102B200009F070F82069801E0E2804D94FF4C47192
:102B300021A009F067F86069801E0F2804D940F2CF
:102B400089111DA009F05EF8A16969B1B1F1805F3A
:102B50000AD0B1F1005F07D0B1F1405F04D04FF46B
:102B6000C57115A009F04EF855B1022D08D0042DFD
:102B700006D0062D04D040F28B110FA009F042F8C8
:102B8000D4E9000140EA0110A168A289090241EAE2
:102B900002410843218A164A02EB01510843217D74
:102BA000520102EB01610843A169084306EB85016C
:102BB0004860002070BD00002E2E2F44726976659B
:102BC00072732F53544D3332463478785F48414CFA
:102BD0005F4472697665722F5372632F73746D331D
:102BE00032663478785F6C6C5F66736D632E630059
:102BF0000000F0FF9FED190A02292ADB0022DFED19
:102C0000180A0DE002EB820300EB830393ED031A35
:102C1000B4EEE01AF1EE10FA01DDF0EE410A521CBA
:102C20008A42EFDBB0EE081A002270EEC10A12E011
:102C300002EB820300EB830393ED031AB4EEE01A78
:102C4000F1EE10FA06D202EB820100EB810090ED6A
:102C5000000A7047521C8A42EADB704700000000FD
:102C60000000C8C270B5054608680C46122804D991
:102C70004FF44F71BEA008F0C5FF6068401E0328E6
:102C800004D940F23D31BAA008F0BCFFA06890B171
:102C9000012810D002280ED003280CD004280AD016
:102CA000052808D0062806D0072804D040F23E3177
:102CB000AFA008F0A7FFBD4EA06998B3B0F5803F64
:102CC00030D0B0F5003F2DD0B0F5403F2AD0B0F560
:102CD000802F27D0B0F5A02F24D0B0F5C02F21D061
:102CE000B0F5E02F1ED0B0F5002F1BD0B0F5102F9F
:102CF00018D0B0F5202F15D0B0F5302F12D0B0F588
:102D0000402F0FD0B0F5502F0CD0B0F5602F09D068
:102D1000B0F5702F06D0B04204D040F23F3194A0FD
:102D200008F070FF2069401E032804D94FF4507149
:102D30008FA008F067FF607D30B1012804D040F219
:102D400041318BA008F05EFF207D30B1012804D016
:102D500040F2423186A008F055FF2868406810F024
:102D6000407009D0B0F1807F0BD0B0F1007F0DD062
:102D7000B0F1407F0ED010E0E068B0F5805F11D375
:102D80000BE0E068B0F5806F0CD306E0E068FF2848
:102D900008D902E0E0683F2804D940F2463174A027
:102DA00008F030FFA069B0420FD0E06968B1B0F51B
:102DB000801F0AD0B0F5001F07D0B0F5401F04D027
:102DC00040F24B316AA008F01DFF95F83C00012845
:102DD00019D0012085F83C00206807212A680928BD
:102DE00013D9D3680A3800EB400081408B43D3608D
:102DF0002078A1680A3800EB400081402868C2684A
:102E00001143C16010E0022070BD136900EB400067
:102E100081408B4313612178A06801EB4101884018
:102E200029680A69104308612868816B21F4401100
:102E300081632868816B228A5D4B03EB0252114348
:102E400081632079217C401AC01C00EB80001F2187
:102E500081402868826B8A4382632079217C401AF2
:102E6000C01C00EB8001208880B2884029688A6BF2
:102E700010438863A069B0422868816821F47021FA
:102E80008160286881680CD0A2691143816028683C
:102E9000816821F44011816028688168E2691143EA
:102EA00001E021F440118160607D002828684168BC
:102EB00002D041F4806101E021F480614160207D15
:102EC00000282868416802D041F4805101E021F4D3
:102ED000805141606068012816D002281FD0032865
:102EE000286827D0016A6FF30B0101622868016A24
:102EF000E2681143016230492A682E488A4227D18C
:102F00002268122A20D023E0286841696FF30B0160
:102F1000416128684169E26811434161EBE7286833
:102F200081696FF30B01816128688169E26811434F
:102F30008161E0E7C1696FF30B01C1612868C16974
:102F4000E2681143C161D6E7426842F48002426000
:102F50002A688A4208D12168102901D0112903D199
:102F6000416841F400014160002085F83C0070BDDB
:102F70002E2E2F447269766572732F53544D33325F
:102F8000463478785F48414C5F4472697665722FA9
:102F90005372632F73746D3332663478785F68616F
:102FA0006C5F6164635F65782E63000001000F0051
:102FB0000000F0FF0023014000200140F8B500268A
:102FC0000546009608680C46122804D940F28B6129
:102FD0005DA008F017FE6068401E0F2804D940F27B
:102FE0008C6159A008F00EFEA06890B1012810D0A5
:102FF00002280ED003280CD004280AD0052808D0B7
:10300000062806D0072804D040F28D614EA008F0B3
:10301000F9FD95F83C00012819D0012085F83C0005
:10302000206807212A68092813D9D3680A3800EBD9
:10303000400081408B43D3602178A0680A3901EBBE
:10304000410188402968CA681043C86010E0022026
:10305000F8BD136900EB400081408B431361217878
:10306000A06801EB4101884029680A6910430861A2
:1030700060681F21072813D22A68536B401E00EB9B
:10308000800081408B43536321792088491E80B2A0
:1030900001EB8101884029684A6B1043486327E0AF
:1030A0002A680D2812D2136BC01F00EB80008140EC
:1030B0008B43136321792088C91F80B201EB810102
:1030C000884029680A6B1043086311E0D36A0D3801
:1030D00000EB800081408B43D362217920880D3939
:1030E00080B201EB810188402968CA6A1043C86236
:1030F00024492A6822488A4206D12268122A03D12A
:10310000426842F4800242602A688A4218D12168EB
:10311000102901D0112913D1416841F40001416007
:10312000206810280CD1184818490068B0FBF1F04D
:1031300000EB8000400000E0401E00900028FBD122
:1031400085F83C600020F8BD2E2E2F44726976650C
:1031500072732F53544D3332463478785F48414C64
:103160005F4472697665722F5372632F73746D3387
:1031700032663478785F68616C5F6164632E6300E7
:1031800000230140002001402000002040420F00A9
:1031900000680349884202D1024901200870704743
:1031A0000020014000000020704770472DE9F047E3
:1031B00004004FF000057DD07249206888420AD093
:1031C0007149884207D07149884204D04FF4A171F7
:1031D0006FA008F017FD606868B1B0F5803F0AD0B5
:1031E000B0F5003F07D0B0F5403F04D040F24311A6
:1031F00067A008F007FDA0684FF080774FF00078D7
:103200004FF0407950B1B84208D0404506D048450B
:1032100004D04FF4A2715EA008F0F4FC206930B134
:10322000012804D040F2451159A008F0EBFC207EA3
:1032300030B1012804D04FF4A37155A008F0E2FC8E
:10324000614EA06A80B3B8422ED040452CD048458C
:103250002AD0B0F1806F27D0B0F1A06F24D0B0F1A8
:10326000C06F21D0B0F1E06F1ED0B0F1006F1BD065
:10327000B0F1106F18D0B0F1206F15D0B0F1306FF1
:1032800012D0B0F1406F0FD0B0F1506F0CD0B0F150
:10329000606F09D0B0F1706F06D0B04204D040F238
:1032A00047113BA008F0AEFCE06848B1B0F5006FF4
:1032B00006D000E043E04FF4A47135A008F0A2FC72
:1032C000E069401E0F2804D940F2491130A008F0EF
:1032D00099FC94F8300030B1012804D04FF4A57166
:1032E0002BA008F08FFC6069012807D030B10228BC
:1032F00004D040F24B1126A008F084FC94F8200082
:1033000030B1012804D04FF4A67121A008F07AFC56
:10331000A06AB0420FD0E06A68B1B0F1805F0AD015
:10332000B0F1005F07D0B0F1405F04D04FF4A87156
:1033300017A008F067FC206C002618B108E00120F7
:10334000BDE8F087204600F041F8666484F83C60F0
:10335000206CC00610D4206C20F4885040F002008D
:1033600020642046FEF7E2FA6664206C20F002003A
:1033700040F00100206400E0012584F83C6028460C
:10338000DEE7000000200140002101400022014052
:103390002E2E2F447269766572732F53544D33323B
:1033A000463478785F48414C5F4472697665722F85
:1033B0005372632F73746D3332663478785F68614B
:1033C0006C5F6164632E63000100000F70B586B00E
:1033D000064614216846FCF73FFF1E4930688842C4
:1033E00035D11D480025016841F4807101600068F5
:1033F00000F48070059018481438016841F001010C
:1034000001600068694600F00100059054200090BA
:103410000320CDE90105114800F0D8FC114C1048FB
:10342000C4E900050015A560C4E9035040006061CF
:103430008000C4E906054FF44030C4E90805204681
:1034400000F08AFA08B1FFF7CDF9B463A66306B0BD
:1034500070BD0000002001404438024000000240DE
:1034600010640240943000202DE9F8430026044601
:103470000096007E17468846354630B1012804D0B4
:1034800040F25A5153A008F0BDFBE06A68B1B0F1B8
:10349000805F0AD0B0F1005F07D0B0F1405F04D088
:1034A00040F25B514BA008F0ADFB94F83C000128C2
:1034B00007D0012084F83C0020688168C90703D048
:1034C00012E00220BDE8F883816841F001018160CB
:1034D0004E484F490068B0FBF1F000EB400000E0BF
:1034E000401E00900028FBD120688168C90503D5E3
:1034F000816821F48071816020688168C9075ED08D
:10350000216C40F20162914341F480712164406872
:10351000400505D5206C20F4005040F48050206414
:10352000206CC00404D5606C20F00600606400E0EC
:10353000666484F83C60A16B3748364EC863A16B63
:1035400036480864A16B3648C86421686FF02200D1
:1035500008602068416841F08061416020688168AE
:1035600041F48071816021683B4642464C31A06B3A
:1035700000F062FB054670682A49C006206806D044
:10358000884224D1816811F0405F13D01FE0884247
:10359000F8D0254A904203D1D1F80423D206F1D0C5
:1035A000224A904213D1D1F8041301F01F011029CF
:1035B000E8D30CE0816841F08041816007E0206C35
:1035C00040F010002064606C40F001006064284608
:1035D00078E700002E2E2F447269766572732F53A0
:1035E000544D3332463478785F48414C5F447269B9
:1035F0007665722F5372632F73746D33326634782D
:10360000785F68616C5F6164632E63002000002056
:1036100040420F00002301409F18000823190008B2
:103620000D19000800200140002101400022014046
:1036300070B5044600682149002588420AD0204917
:10364000884207D01F49884204D040F2ED511EA0A5
:1036500008F0D8FA94F83C0001280CD0012084F836
:103660003C002068816821F0010181602068816848
:10367000C90702D01DE0022070BD816821F480716D
:103680008160A06B90F83510022907D100F038F85E
:10369000050003D0206C40F04000206420684168A1
:1036A00021F080614160206C20F4885040F00100DE
:1036B0002064002084F83C00284670BD00200140B2
:1036C00000210140002201402E2E2F4472697665B0
:1036D00072732F53544D3332463478785F48414CDF
:1036E0005F4472697665722F5372632F73746D3302
:1036F00032663478785F68616C5F6164632E630062
:103700002DE9F0410446876D00F040FD064694F82F
:1037100035000025022806D08020606584F83450EA
:103720000120BDE8F0812068016821F016010160E8
:103730002068416921F080014161206C08B9A06CCA
:1037400020B12068016821F008010160206801684B
:1037500021F0010101600CE000F018FD801B05283C
:1037600007D920206065032084F8350084F83450A0
:10377000D7E720680068C007EED194F85C103F20BE
:103780008840B860012084F8350084F83450002067
:10379000C7E790F83510022903D080214165012048
:1037A0007047052180F835100068016821F001019B
:1037B00001600020704700002DE9F84304464FF0F7
:1037C0000009CDF8009063484FF41651A56D0068CC
:1037D000B0FBF1F72E6894F85C10082000FA01F1B4
:1037E00031420FD021680A6852070BD50A6822F0CF
:1037F00004020A6094F85C108840A860606D40F094
:103800000100606594F85C104FF0010808FA01F0BF
:10381000304208D021684969090604D5A860606D66
:1038200040F00200606594F85C100420884030424B
:1038300008D021680968890704D5A860606D40F048
:103840000400606594F85C1010208840304218D065
:1038500021680968090714D5A86020680168490330
:1038600004D50068000308D5A16C07E00168C9050C
:1038700003D4016821F008010160216C09B12046E0
:10388000884794F85C1020208840304231D021686D
:103890000968C9062DD5A86094F835000528206868
:1038A000016806D0490347D5006800031DD4616C48
:1038B0001CE021F0160101602068416921F08001BF
:1038C0004161206C08B9A06C20B12068016821F02A
:1038D0000801016094F85C103F208840A86084F8DB
:1038E000358084F83490216D1FE0E16B09B12046EA
:1038F0008847606D00282BD0606DC00714D005206C
:1039000084F835002068016821F001010160009809
:10391000401C0090B84203D820680068C007F6D168
:1039200084F8358084F83490E16C002910D001B01F
:103930002046BDE8F04308470168C905D5D40168B1
:1039400021F01001016084F8358084F83490CCE7D0
:10395000BDE8F883200000202DE9F041044600F086
:1039600015FC0546002C7CD0A249206888423ED038
:10397000A049183188423AD09E493031884236D029
:103980009C494831884232D09A49603188422ED0D1
:103990009849783188422AD096499031884226D079
:1039A0009449A831884222D0934988421FD0924935
:1039B000183188421BD090493031884217D08E4947
:1039C0004831884213D08C49603188420FD08A49EF
:1039D000783188420BD088499031884207D0864997
:1039E000A831884203D0B72184A008F00BF96068A1
:1039F000C0B1B0F1007F15D0B0F1806F12D0B0F13E
:103A0000C06F0FD0B0F1006F0CD0B0F1206F09D0B3
:103A1000B0F1406F06D0B0F1606F03D0B82177A04D
:103A200008F0F0F8A06838B1402805D0802803D00D
:103A3000B92172A008F0E6F8E068B0F5007F04D084
:103A400018B1BA216DA008F0DDF82069B0F5806FDB
:103A500004D018B1BB2169A008F0D4F8606958B14E
:103A600000E071E0B0F5006F06D0B0F5805F03D0E4
:103A7000BC2162A008F0C6F8A06948B1B0F5005FAB
:103A800006D0B0F5804F03D0BD215CA008F0BAF895
:103A9000E06940B1B0F5807F05D0202803D0BE2179
:103AA00056A008F0AFF8206A60B1B0F5803F09D0A9
:103AB000B0F5003F06D0B0F5403F03D0BF214FA086
:103AC00008F0A0F8606A002832D0042806D0C0218F
:103AD0004AA008F097F8606A002829D0A06A48B187
:103AE000012807D0022805D0032803D0C52143A010
:103AF00008F088F8E06A60B1B0F5000F09D0B0F1C5
:103B0000807F06D0B0F1C07F03D0C6213BA008F073
:103B100079F8206B60B1B0F5001F09D0B0F5800FC7
:103B200006D0B0F5C00F03D0C72134A008F06AF862
:103B3000022084F83500002684F83460206801688B
:103B400021F0010101600EE00120BDE8F08100BF1D
:103B500000F01CFB401B052805D9202060650320D0
:103B600084F83500F1E720680068C007F0D12268CA
:103B7000116830480140D4E901031843D4E9033502
:103B80002B43184363691843A3691843E369184337
:103B9000236A18430843616A042903D1D4E90B134B
:103BA00019430843106020684069656A20F00700E7
:103BB00029460543012704290CD1A06A0543E06A80
:103BC00040B12046FEF7DAFA20B14020606584F863
:103BD0003570B9E7206845612046FEF7BBFA94F8D6
:103BE0005C203F2191408160666584F8357000203B
:103BF000ABE7000010600240106402402E2E2F44FC
:103C00007269766572732F53544D33324634787827
:103C10005F48414C5F4472697665722F5372632F1F
:103C200073746D3332663478785F68616C5F646D8D
:103C3000612E63003F8010F02DE9F047894604466D
:103C4000876D0025581E4FF6FF711E46904688422C
:103C500004D340F2CB111CA007F0D4FF94F8340039
:103C600001280DD0012084F8340094F8351000208C
:103C7000012907D084F8340002252846BDE8F087E2
:103C80000220FBE7022184F8351060653346424686
:103C900049462046FEF79CFA94F85C103F20884085
:103CA000B8602068016841F016010160206C20B105
:103CB0002068016841F0080101602068016841F056
:103CC00001010160D9E700002E2E2F44726976654C
:103CD00072732F53544D3332463478785F48414CD9
:103CE0005F4472697665722F5372632F73746D33FC
:103CF00032663478785F68616C5F646D612E630052
:103D000070B5044600F042FA0546601C02D0044833
:103D10000078044400F03AFA401BA042FAD370BD88
:103D2000140000202DE9F04186B014216846FCF70C
:103D300093FA20480168002939D1012101601E4809
:103D40000024016841F00101016000684FF48058CF
:103D500000F001000C27CDF80080CDE904700326A7
:103D600002250396CDE901546946144800F02EF867
:103D70004FF68070CDE9000502AA694682E8D000BE
:103D80000F4800F023F84CF23370CDE9000502AA89
:103D9000694682E8D0000B4800F018F802AA69468C
:103DA00082E8D000CDE90085074800F00FF806B0A2
:103DB000BDE8F081040000203838024000140240C1
:103DC00000100240000C0240001802402DE9F84F9C
:103DD000DFF888B20D46044658451BD0A0488442FF
:103DE00018D0A048844215D09F48844212D09F48E2
:103DF00084420FD09E4884420CD09E48844209D011
:103E00009D48844206D09D48844203D0AC219CA0AA
:103E100007F0F8FE28680104090C01D0000C03D05B
:103E2000AD2197A007F0EEFE6868F8B101281DD01B
:103E300011281BD0022819D0122817D0B0F5881FDE
:103E400014D0B0F5041F11D0B0F5441F0ED0B0F55A
:103E5000901F0BD0B0F5081F08D0B0F5481F05D053
:103E6000032803D0AE2186A007F0CCFE00264FF039
:103E7000010A4FF0030900BF0AFA06F02F688046D6
:103E8000074047457ED1287900F00300012801D082
:103E900002281DD1E86848B1012807D0022805D0C2
:103EA000032803D0C02176A007F0ACFEA168720001
:103EB00009FA02F08143E86890400843A060606816
:103EC000297920EA0800C1F30011B1400143616083
:103ED0002879C043800712D0A86838B1012805D0DE
:103EE000022803D0D12166A007F08CFEE1687200A1
:103EF00009FA02F08143A86890400843E0602879FD
:103F000000F0030002282ED12869F8B109281DD03D
:103F100001281BD0022819D0032817D0042815D057
:103F2000052813D0062811D007280FD008280DD057
:103F30000A280BD00B2809D00C2807D00D2805D053
:103F40000F2803D0DE214EA007F05CFEF00804EB42
:103F50008002106A7107CB0E0F21994088432969AE
:103F60009940014311622068720009FA02F1884306
:103F7000297901F00301914001432160686810F440
:103F8000403F00E063E062D04C48016841F480416A
:103F90000160006826F0030100F48040009048486A
:103FA0000A18D2F80808B1070B0F0F21994088436F
:103FB0005C4501D1002123E029498C4201D1012136
:103FC0001EE028498C4201D1022119E026498C4289
:103FD00001D1032114E025498C4201D104210FE0D5
:103FE00023498C4201D105210AE022498C4201D1AA
:103FF000062105E020498C4201D1072100E008217B
:1040000099400143C2F808182E4908686A68B84305
:10401000D20200D5384308602A49091D08686A6839
:10402000B843920200D5384308602649091F086842
:104030006A68B843920300D53843086021490839BB
:1040400008686A68B843D20300D538430860761C14
:10405000102EFFF411AFBDE8F88F00000000024001
:104060000004024000080240000C02400010024020
:104070000014024000180240001C024000200240D0
:104080002E2E2F447269766572732F53544D33323E
:10409000463478785F48414C5F4472697665722F88
:1040A0005372632F73746D3332663478785F68614E
:1040B0006C5F6770696F2E63000000004438024037
:1040C00000300140083C014070B50C00054604D1A9
:1040D0004FF4BE7103A007F095FD2869204000D081
:1040E000012070BD2E2E2F447269766572732F5396
:1040F000544D3332463478785F48414C5F4472699E
:104100007665722F5372632F73746D333266347811
:10411000785F68616C5F6770696F2E6300000000F4
:1041200070B515460C00064604D140F29D1108A05A
:1041300007F068FD45B1012D04D04FF4CF7104A004
:1041400007F060FDB46170BD2004B06170BD000077
:104150002E2E2F447269766572732F53544D33326D
:10416000463478785F48414C5F4472697665722FB7
:104170005372632F73746D3332663478785F68617D
:104180006C5F6770696F2E630000000001488068F3
:104190007047000014000020024881680278114432
:1041A00081607047140000200B4810B5016841F48D
:1041B00000710160016841F480610160016841F4AF
:1041C00080710160032000F0C3F80F2000F006F8B2
:1041D00000F024F8002010BD003C024070B50D4DE9
:1041E00004464FF47A712878B1FBF0F00A49096867
:1041F000B1FBF0F000F0E6FC48B9102C07D2002229
:104200002146501E00F054F800206C6070BD012063
:1042100070BD000014000020200000200A4808B5EE
:10422000016841F480410160006800F48040009022
:104230000548001F016841F080510160006800F0EE
:104240008050009008BD00004438024010B50400C2
:1042500003D5BC2107A007F0D5FC002C09DB04F036
:104260001F01012088406109890001F1E021C1F8A6
:10427000000110BD2E2E2F447269766572732F5384
:10428000544D3332463478785F48414C5F4472690C
:104290007665722F5372632F73746D333266347880
:1042A000785F68616C5F636F727465782E6300007D
:1042B00070B515460C460646102A03D3A82114A053
:1042C00007F0A0FC102C03D3A92111A007F09AFC41
:1042D0001E480068C0F30223C3F107022046042AE7
:1042E00000D90422191D072901D2002300E0DB1E9A
:1042F000012404FA02F1491E014099409C40641EC9
:104300002C4021433046BDE8704006F078B90000EB
:104310002E2E2F447269766572732F53544D3332AB
:10432000463478785F48414C5F4472697665722FF5
:104330005372632F73746D3332663478785F6861BB
:104340006C5F636F727465782E6300000CED00E0A3
:1043500010B5044607280BD0062C09D0052C07D031
:10436000042C05D0032C03D0902108A007F04AFCB0
:10437000154904F0070208684FF6FF03184040EAA9
:104380000220124A1043086010BD00002E2E2F4458
:104390007269766572732F53544D33324634787890
:1043A0005F48414C5F4472697665722F5372632F88
:1043B00073746D3332663478785F68616C5F636FF5
:1043C000727465782E6300000CED00E00000FA05C1
:1043D0002DE9F0470E4604007DD02068401E0E28CF
:1043E00004D940F25A217AA007F00CFC96B1012EB4
:1043F00010D0022E0ED0032E0CD0042E0AD0052E83
:1044000008D0062E06D0072E04D040F25B2170A003
:1044100007F0F8FBDFF8F081D8F80000F7B200F001
:104420000700B04207D288F80070D8F8000000F00A
:104430000700B0424FD12068744D810729D540074D
:1044400003D5286840F4E05028602078000703D5A1
:10445000286840F460402860A068A0B1802812D08D
:10446000902810D0A0280ED0B0280CD0C0280AD098
:10447000D02808D0E02806D0F02804D040F27E21D1
:1044800053A007F0BFFB2868A16820F0F0000843A4
:1044900028602078C00743D0DFF870916068A9F1E8
:1044A000080988B1012822D0022824D0032822D06C
:1044B00040F2852146A007F0A5FB6068012816D0D0
:1044C000022818D0032816D0D9F800008007002849
:1044D00033DA286800E030E0616820F00300084328
:1044E0002860FFF753FE814641F2883A11E0D9F87F
:1044F00000008003EBE7D9F800008001E7E700BF88
:10450000FFF744FEA0EB0901514502D90320BDE8A5
:10451000F0872868616800F00C00B0EB810FEFD1E4
:10452000D8F80010404601F00701B14207D90770E2
:10453000006800F00700B04201D00120E7E72078D2
:104540004FF4805640074FF4A0574FF4C0584FF433
:10455000E05914D5E06860B1B0420AD0B84208D042
:10456000404506D0484504D040F2C32118A007F0CA
:1045700049FB2868E16820F4E0500843286020786F
:10458000000715D5206960B1B0420AD0B84208D002
:10459000404506D0484504D040F2CA210CA007F09F
:1045A00031FB2868216920F4604040EAC10028609E
:1045B00000F054F82968164AC1F30311515CC84051
:1045C0001449086014480068FFF708FE00209EE7C1
:1045D0002E2E2F447269766572732F53544D3332E9
:1045E000463478785F48414C5F4472697665722F33
:1045F0005372632F73746D3332663478785F6861F9
:104600006C5F7263632E6300003C02400838024016
:10461000A4C000082000002018000020044805491C
:1046200000680968044AC1F38221515CC8407047A0
:104630002000002008380240B4C0000804480549A2
:1046400000680968044AC1F34231515CC8407047B0
:104650002000002008380240B4C00008154810B5FA
:10466000006810F00C02144813D04110042A0FD037
:10467000082A0ED10F4C241F2268236802F03F0243
:104680005B0207D52068C0F38810A0FB010106E09B
:10469000084610BD2168C1F38811A1FB0001002369
:1046A000FBF790FD2168C1F30141491C4900B0FBB3
:1046B000F1F010BD083802400024F4002DE9F84F55
:1046C00004007DD020680F2803D9E621F7A007F069
:1046D00099FA2078DFF80C94C007A9F1040555D0A9
:1046E00060684FF480364FF4A02738B1B04205D04F
:1046F000B84203D0EB21EDA007F084FAF948001D81
:104700000168C1F38101012908D00068C0F381006C
:1047100002280AD1D9F80000400206D52868800393
:1047200034D560680028CCD030E06068B04203D156
:10473000286840F480300CE0B842286803D140F487
:1047400080202860F4E720F480302860286820F476
:1047500080202860606860B1FFF718FD064604E01D
:10476000FFF714FD801B64287ED828688003F7D5E6
:104770000CE0FFF70BFD064605E000BFFFF706FD66
:10478000801B6428F0D828688003F7D42078DFF8ED
:10479000588380074FF0000A56D5E06830B10128F1
:1047A00004D040F21D11C1A007F02CFA20691F2887
:1047B00004D94FF48F71BDA007F024FAC94800E076
:1047C00092E0001D016811F00C0F08D00068C0F3E2
:1047D0008100022810D1D9F8000040020CD42868CA
:1047E000800702D5E06801287ED12868216920F081
:1047F000F80040EAC10017E0E068B8B10120C8F84D
:104800000000FFF7C3FC064605E000BFFFF7BEFC53
:10481000801B0228A8D828688007F7D5286820F0D0
:10482000F801206941EAC00028600DE0C8F800A046
:10483000FFF7ACFC064604E0FFF7A8FC801B02284B
:1048400092D828688007F7D4207800072ED5A54E87
:10485000A64F60697036D0B1012808D04FF4AF710F
:1048600092A007F0CFF900E04BE1606978B1012038
:104870003860FFF78BFC074605E000BFFFF786FCBA
:10488000C01B0228C6D830688007F7D50EE0C7F8ED
:1048900000A0FFF77BFC074605E000BFFFF776FCB2
:1048A000C01B0228B6D830688007F7D420784007AC
:1048B00076D5A068002740B1012806D0052804D08D
:1048C0004FF4C57179A007F09DF9DFF818B20BF12C
:1048D0003C0BDBF80000C0000DD4DBF8001041F009
:1048E0008051CBF8001000E038E1DBF80000012730
:1048F00000F0805000907E4E3068C00511D43068C2
:1049000040F480703060FFF741FC009006E000BF8B
:10491000FFF73CFC0099401A022891D83068C00586
:10492000F6D5704EA0686C3601280FD00528306887
:1049300010D020F001003060306820F004003060BA
:10494000A068B8B1FFF722FC00900FE0306840F09B
:104950000100F4E740F004003060F7E7FFF716FCD1
:104960000099411A41F2883081428BD83068800723
:10497000F4D50EE0FFF70AFC009007E0FFF706FC15
:104980000099411A41F2883081428BD83068800703
:10499000F4D42FB1DBF8001021F08051CBF80010D7
:1049A000A069002876D0012809D0022807D040F25B
:1049B000CD113EA007F026F9A0690028F2D04948A1
:1049C000001D0068C0F381000228A0696DD0022894
:1049D00005D0C8F860A0FFF7D9FB044694E0E06971
:1049E00038B1B0F5800F04D04FF4EB712FA007F071
:1049F00009F9206A801E3D2804D940F2D7112BA066
:104A000007F000F9606A3238B0F5BF7F04D94FF47F
:104A1000EC7126A007F0F6F8A06A02280AD0042854
:104A200008D0062806D0082804D040F2D9111FA0CB
:104A300007F0E8F8E06A801E0D2804D94FF4ED7104
:104A40001AA007F0DFF84746C8F860A0FFF79EFB02
:104A5000064604E0FFF79AFB801B022851D828681D
:104A60008001F7D4D4E907010843A16A214A490823
:104A700002EB0141626A41EA8211084394F82C106A
:104A800040EA0161C9F8001001203866FFF77EFB9B
:104A9000044606E064E000BFFFF778FB001B022835
:104AA0002FD828688001F7D55AE031E02E2E2F4408
:104AB0007269766572732F53544D33324634787869
:104AC0005F48414C5F4472697665722F5372632F61
:104AD00073746D3332663478785F68616C5F7263CB
:104AE000632E63000438024000004742800E4742B4
:104AF000007000400000FFFFFFF748FB001B02288A
:104B000002D90320BDE8F88F28688001F4D427E09B
:104B10000128F7D0D9F80000E26900F48001914241
:104B20001CD1226A00F03F01914217D147F6C071B3
:104B3000626A0140B1EB821F10D1A26A4FF0FF33CD
:104B400000F4403103EB5202B1EB024F06D194F86E
:104B50002C1000F07060B0EB016F01D00120D1E7A4
:104B60000020CFE770B515460E46040003D094F838
:104B7000490010B107E0012070BD002084F8480012
:104B8000204600F01DF804F108012068FDF7B8FE8A
:104B90003146A2682068FDF797FFD4E90102294653
:104BA000236BFDF721FE2168A06851F8202042F018
:104BB000010241F82020012084F84900002070BD46
:104BC000FFF7B0B810B5401EB0F1807F01D30120CF
:104BD00010BD4FF0E02460610F21601705F00FFD5C
:104BE0000020A06107202061002010BD2DE9F05FAA
:104BF000044600683A4E3B4FDFF8EC80DFF8EC905B
:104C0000DFF8ECA00D464FF0804BB04215D0584570
:104C100013D0B84211D040450FD048450DD04FEACF
:104C2000B641884209D03349884206D0504504D065
:104C300040F2A97130A006F0E5FF286890B1102875
:104C400010D020280ED030280CD040280AD0502870
:104C500008D0602806D0702804D040F2AA7126A09F
:104C600006F0D0FF6868802805D020B140F2AB7113
:104C700021A006F0C7FF94F83C0001282DD00122A6
:104C800084F83C20022084F83D00216848688B6845
:104C900020F0700C286840EA0C0048602068B042A0
:104CA0000FD058450DD0B8420BD0404509D04845EB
:104CB00007D0504505D01F49884202D01E4988427E
:104CC00004D1696823F080031943816084F83D2092
:104CD000002084F83C00BDE8F09F0220FBE70000C4
:104CE000000001400004004000080040000C0040AB
:104CF00000040140001400402E2E2F447269766596
:104D000072732F53544D3332463478785F48414C98
:104D10005F4472697665722F5372632F73746D33BB
:104D200032663478785F68616C5F74696D5F65784E
:104D30002E630000004001400018004070B50400E0
:104D400057D0484920688E03474D884229D0B04249
:104D500027D04649884224D04549884221D0A842DC
:104D60001FD0444988421CD04349884219D0434946
:104D7000884216D04249884213D04249884210D016
:104D8000414988420DD0414988420AD04049884271
:104D900007D04049884204D040F213113EA006F0EB
:104DA00031FFA06860B110280AD0202808D0402820
:104DB00006D0602804D04FF48A7137A006F022FF95
:104DC000206950B1B0F5807F07D0B0F5007F04D0E6
:104DD00040F2151130A006F015FF2068B0420AD04D
:104DE000A84208D0E0684FF6FE71401E884209D9FB
:104DF00003E0012070BDE06820B94FF48B7126A05C
:104E000006F000FFA06930B1802804D040F21711ED
:104E100021A006F0F7FE94F83D0028B9002084F8A0
:104E20003C00204600F054F8022084F83D00211D8B
:104E3000206805F0EDF8012084F8460084F83E0073
:104E400084F83F0084F8400084F8410084F8420070
:104E500084F8430084F8440084F8450084F83D0059
:104E6000002070BD00000140000C00400004004024
:104E70000008004000100040001400400004014001
:104E8000004001400044014000480140001800403B
:104E9000001C0040002000402E2E2F4472697665D1
:104EA00072732F53544D3332463478785F48414CF7
:104EB0005F4472697665722F5372632F73746D331A
:104EC00032663478785F68616C5F74696D2E630058
:104ED00008B50068B0F1804F08D10548016841F07D
:104EE00001010160006800F00100009008BD0000B1
:104EF000403802402DE9F05F044600682D4D2E4EEB
:104F00002E4FDFF8BC80DFF8BC90DFF8BCA0DFF8E4
:104F1000BCB0A84226D0B0F1804F23D0B04221D0FF
:104F2000B8421FD040451DD04FEAB541884219D044
:104F30002749884216D0484514D0504512D02549FB
:104F400088420FD0244988420CD058450AD02349C2
:104F5000884207D02249884204D040F2951121A00E
:104F600006F050FE94F83D00012802D00120BDE873
:104F7000F09F022084F83D002068A8420ED0B0F1D6
:104F8000804F0BD0B04209D0B84207D0404505D081
:104F9000484503D0504501D0584504D1816801F0FF
:104FA0000701062903D0016841F0010101600020DA
:104FB000DDE7000000000140000400400008004060
:104FC000000C004000040140004001400018004077
:104FD000001400400044014000480140001C004013
:104FE000002000402E2E2F447269766572732F5375
:104FF000544D3332463478785F48414C5F4472698F
:105000007665722F5372632F73746D333266347802
:10501000785F68616C5F74696D2E630010B504463B
:105020000168214881422BD0B1F1804F28D01F4820
:10503000814225D01E48814222D01E4881421FD085
:105040001D4881421CD01D48814219D01C48814214
:1050500016D01C48814213D01B48814210D01B48F7
:1050600081420DD01A4881420AD01A48814207D0A5
:105070001948814204D04FF4DD7118A006F0C2FD3A
:105080002068016A41F21112114207D1016A92109F
:10509000114203D1016821F001010160012084F86F
:1050A0003D00002010BD0000000001400004004051
:1050B00000080040000C00400010004000140040B8
:1050C000000401400040014000440140004801400C
:1050D00000180040001C0040002000402E2E2F44ED
:1050E0007269766572732F53544D33324634787833
:1050F0005F48414C5F4472697665722F5372632F2B
:1051000073746D3332663478785F68616C5F74698C
:105110006D2E63002DE9F84F05460020009095F8AC
:105120003C000C46012841D0012085F83C000220BB
:1051300085F83D0020684FF4805B584516D07028F4
:1051400014D0B0F5005F11D040280FD050280DD0FA
:1051500060280BD050B1102808D0202806D0302865
:1051600004D041F2C341D4A006F04CFD2868816808
:1051700021F0770121F47F4181602068DC49DD4A1C
:10518000DD4BDE4EDE4FDFF87CC3DFF87C834FF073
:1051900080494FF4004A50287ED00FDC202804D0EC
:1051A00007DC0028FBD0102877D161E10220BDE8A0
:1051B000F88F3028F9D04028F6D126E160286DD04C
:1051C000702874D0584544D04FF400584045EBD176
:1051D000286888420ED048450CD090420AD09842A8
:1051E00008D0B04206D0B84204D041F2EE41B2A09D
:1051F00006F008FDA06858B1584509D0404507D0D1
:10520000B0F5405F04D041F2F141ABA006F0FAFCEA
:105210006068504509D040B1022806D00A2804D061
:1052200041F2F241A4A006F0EDFCE0680F2804D999
:1052300041F2F341A0A006F0E5FCD4E90121E368C6
:10524000286804F04DFF2868816841F4804181603E
:1052500029E128688842FBD04845F9D09042F7D030
:105260009842F5D0B042F3D0A8498842F0D0A8497E
:105270008842EDD0B842EBD06045E9D0A5498842DC
:10528000E6D0A5498842E3D04045E1D0A349884211
:10529000DED0A349884203E04FE002E180E006E06F
:1052A000D6D041F2CF4184A006F0ACFCFBE02868E8
:1052B000884212D0484510D090420ED098420CD06F
:1052C000B0420AD0B84208D0604506D0404504D06C
:1052D00041F2D64178A006F095FCA06860B158452F
:1052E0000AD0B0F5005F07D0B0F5405F04D041F2BE
:1052F000D94171A006F086FC6068504509D040B1E4
:10530000022806D00A2804D041F2DA416AA006F049
:1053100079FCE0680F2804D941F2DB4166A006F071
:1053200071FCD4E90121E368286804F0D9FE2968FA
:10533000886840F077008860B5E02868884212D01D
:10534000484510D090420ED098420CD0B0420AD0BE
:10535000B84208D0604506D0404504D041F2025121
:1053600055A006F04FFC6068504509D040B10228B6
:1053700006D00A2804D041F205514FA006F042FCA5
:10538000E0680F2804D941F206514BA006F03AFC20
:10539000E2686168286804F0B5FE5021286831E0B1
:1053A0002868884212D0484510D090420ED09842CA
:1053B0000CD0B0420AD0B84208D0604506D0404573
:1053C00004D041F212513CA006F01CFC606850452C
:1053D00009D040B1022806D00A2804D041F2155164
:1053E00035A006F00FFCE0680F2804D941F21651F1
:1053F00031A006F007FCE2686168286804F093FEBB
:105400006021286804F076FE4DE02868884212D0BA
:10541000484510D090420ED098420CD0B0420AD0ED
:10542000B84208D0604506D0404504D041F2225130
:1054300021A006F0E7FB6068504509D040B1022882
:1054400006D00A2804D041F225511BA006F0DAFB51
:10545000E0680F2804D941F2265117A006F0D2FBCC
:10546000E2686168286804F04DFE40212868C9E7B9
:105470002868884212D0484510D090420ED09842F9
:105480000CD0B0420AD0B84208D0604506D04045A2
:1054900004D041F2355108A006F0B4FB2168286819
:1054A000B0E701200090012085F83D00002085F83C
:1054B0003C0000987BE600002E2E2F447269766532
:1054C00072732F53544D3332463478785F48414CD1
:1054D0005F4472697665722F5372632F73746D33F4
:1054E00032663478785F68616C5F74696D2E630032
:1054F000000001400004004000080040000C004093
:10550000000401400040014000180040001000402D
:10551000001400400044014000480140001C0040CD
:105520000020004070477047F8B5016804460868DD
:10553000CA684B6910F00F0F4FF0000559D003F007
:10554000010602F49077374365D0C10705D0D10535
:1055500003D5616C41F001016164410705D5D907AC
:1055600003D0616C41F002016164810705D5D90760
:1055700003D0616C41F004016164010707D502F0BA
:105580002001314303D0616C41F008016164616C1A
:1055900000293AD0800604D5900602D5204604F0B2
:1055A00069FE20684069616CC0F38010090700D46F
:1055B00060B3204604F037FE20684069400621D5DC
:1055C0002068143050E8001F21F0400140E800122C
:1055D000002AF5D1E06BA8B172490165E06BFEF7D6
:1055E000D8F8002811D0E06B016D01B0BDE8F040A3
:1055F000084783060FD593060DD52046BDE8F84031
:1056000004F038BE2046FFF78EFFF8BD2046FFF7B6
:105610008AFF6564F8BD266B2023012E7ED1C60665
:105620007CD5D6067AD508684868009048694FF05E
:10563000020640064DD5E26B106840684FF4807753
:105640000004000C3AD0A18D814237D9E085D069A1
:10565000B8422DD020680C3050E8001F21F4807132
:1056600040E80012002AF5D12068143050E8001FED
:1056700021F0010140E80012002AF5D12068143021
:1056800050E8001F21F0400140E80012002AF5D147
:1056900084F84230256320680C3050E8001F21F068
:1056A000100140E80012002AF5D1E06BFEF728F85F
:1056B0006663A08DE18D401A81B206E0A18D814222
:1056C000A8D1D069B842A5D166632046FFF72AFF6A
:1056D000F8BDA08DE18D401A81B2E08D0028F7D091
:1056E0000029F5D020680C3050E8002F22F4907289
:1056F00040E80027002FF5D12068143050E8002F33
:1057000022F0010240E80027002FF5D184F8423052
:10571000256320680C3050E8002F00E006E022F0FE
:10572000100240E80023002BF3D1CDE705062BD56E
:10573000150629D594F841002128C9D1A068B0F5F3
:10574000805F01D12069B0B1206A411C21622168CB
:1057500000784860E08C401E0004000CE084B7D163
:105760002068C16821F08001C1602068C16841F0F3
:105770004001C160F8BD206A0088C0F3080048609D
:10578000206A801C2062E5E74006F3D55006F1D57B
:10579000CA68204622F04002CA6084F8413000F016
:1057A0005FF9F8BD19A2000870B5040023D0A06904
:1057B0003B4900283B4A3C4B3C4D20681DD0884269
:1057C0000CD090420AD0984208D0A84206D040F2AD
:1057D000731137A006F016FAA06908B3A069B0F5F6
:1057E000807F1DD0B0F5007F1AD0B0F5407F17D074
:1057F0004FF4BA7111E0012070BD884210D0904280
:105800000ED098420CD03949884209D03849884294
:1058100006D0A84204D04FF4BC7125A006F0F2F9DE
:10582000A06838B1B0F5805F04D04FF4BD7120A0FE
:1058300006F0E8F9E06938B1B0F5004F04D040F265
:105840007B111BA006F0DEF994F84100002520B979
:1058500084F84050204600F04DF8242084F84100A0
:105860002068C16821F40051C160204604F064FD45
:105870002068016921F4904101612068416921F0AB
:105880002A0141612068C16841F40051C16065642A
:10589000202084F8410084F842006563002070BD38
:1058A0000010014000440040004800400014014046
:1058B0002E2E2F447269766572732F53544D3332F6
:1058C000463478785F48414C5F4472697665722F40
:1058D0005372632F73746D3332663478785F686106
:1058E0006C5F756172742E6300000000004C004014
:1058F0000050004010B586B0044614216846FAF7FF
:10590000ABFC18492068884229D117480021026859
:1059100042F010020260006800F01000059012488A
:105920001438026842F001020260006800F00100D1
:1059300005904FF4C06000900220CDE901010320E2
:1059400003900720049069460848FEF73FFA0022BA
:1059500011462520FEF7ACFC2520FEF777FC06B0AB
:1059600010BD000000100140443802400000024019
:1059700090F84230202B01D00220704721B11AB19B
:105980000023036304F0A8BD0120704710B5006830
:10599000084988420DD14FF47A730122064907481D
:1059A00000F00EF8BDE81040012203490348FFF75C
:1059B000DFBF10BD00100140100000208C3100201E
:1059C0002DE9F843044690F84100984616460D46E6
:1059D000202802D00220BDE8F88385B17EB10020E6
:1059E0006064212084F84100FEF7D0FBA684814644
:1059F000E684A0682027B0F5805F02D003E0012094
:105A0000E9E7206910B12E4600250EE000260CE0E3
:105A10008021204604F07BFDA8B9C6B116F8010B21
:105A200021684860E08C401EE084E08C4B464FF0DB
:105A30000002CDF800800028EAD14FF04001204656
:105A400004F065FD40B184F841700320C3E735F8E8
:105A5000020BC0F30800E3E784F841700020BAE7C6
:105A60007047FEE72DE9F041204C4FF4807120464D
:105A7000FEF72AFB074661152046FEF725FB1C4C66
:105A800006464FF000080125A7B92079012811D159
:105A9000FEF77CFBA168401A0A280BD9FEF776FBBB
:105AA000A060E078012808D0257084F8018084F88F
:105AB0000280E570277116B114E0A570FAE76079ED
:105AC00001280FD1FEF762FBE168401A0A2809D9C4
:105AD000FEF75CFBE060657084F8008084F802806B
