:020000040800F2
:1000000030CC0020A10100082FAC0008DF660008FA
:100010002DAC00080D270008DDB40008000000002A
:100020000000000000000000000000008DAD00088E
:10003000A92800080000000031AC00088FAD0008BE
:10004000BB010008BB010008BB010008BB010008A0
:10005000BB010008BB010008BB010008BB01000890
:10006000BB010008BB010008BB010008BB01000880
:10007000BB010008BB010008BB010008BB01000870
:10008000BB010008BB010008BB010008BB01000860
:10009000BB010008BB010008BB010008BB01000850
:1000A000BB010008BB010008BB010008BB01000840
:1000B000BB010008BB010008BB010008BB01000830
:1000C000BB010008BB010008BB010008BB01000820
:1000D000BB01000875B40008BB010008BB010008A3
:1000E000BB010008BB010008BB010008BB01000800
:1000F000BB010008BB010008BB010008BB010008F0
:10010000BB010008BB010008BB010008BB010008DF
:10011000BB010008BB010008BB010008BB010008CF
:10012000F9270008BB010008BB010008BB0100085B
:10013000BB010008BB010008BB010008BB010008AF
:10014000BB010008BB010008BB010008BB0100089F
:10015000BB010008BB010008BB010008BB0100088F
:10016000BB010008BB010008BB010008BB0100087F
:10017000BB010008BB010008BB0100080000000033
:10018000BB010008BB010008DFF810D000F05AFBEB
:100190000048004729CC0008AFF3008030CC002095
:1001A0000648804706480047FEE7FEE7FEE7FEE711
:1001B000FEE7FEE7FEE7FEE7FEE7FEE729AE000802
:1001C000890100082DE9F05F0546002092469B4614
:1001D00088460646814640241BE02846414647465D
:1001E000224600F046FA53465A46C01A914110D3AF
:1001F00011461846224600F02DFA2D1A67EB010829
:100200004F4622460120002100F024FA17EB000996
:100210004E41201EA4F10104DFDC484631462A4647
:100220004346BDE8F09F40EA01039B0703D009E085
:1002300008C9121F08C0042AFAD203E011F8013BD2
:1002400000F8013B521EF9D27047D2B201E000F82B
:10025000012B491EFBD270470022F6E710B513466A
:100260000A4604461946FFF7F0FF204610BD421C1F
:1002700010F8011B0029FBD1801A70472DE9FE4FB1
:10028000804681EA0300C00F0C46009021F0004137
:1002900023F00045B8EB0200A94105D240462146B3
:1002A00090461C460B46024623F00040104347D0C0
:1002B000270DC7F30A00C3F30A510290401A0190B8
:1002C00040286BDAC3F3130040F4801B0098924679
:1002D00020B10023D2EB030A63EB0B0B01985946C4
:1002E000C0F14002504600F0B5F906460D465046B2
:1002F0005946019A00F0CDF910EB08006141002445
:1003000087EA115284EAE7731A4340D0009A62B335
:10031000019A012A4FEA075215DC001B61EB02012A
:100320004FF0004202EA0752CDE90042001C41F5BD
:10033000801132462B4600F004FA03B0BDE8F08F7E
:1003400040462146F9E7001B61EB0201001C41F524
:10035000801300185B412018A2F5001747EB03013A
:1003600040EAD570B6196D4111E06D084FEA3606C6
:1003700045EAC0754FEA0752001B61EB0201001C01
:1003800041F5801149084FEA3000001951413246C9
:100390002B4603B0BDE8F04F00F0C4B9009801222D
:1003A00040000023D0EB020263EBE073009821468B
:1003B0004FEAE074B8EB000061EB0401E9E783F079
:1003C00000435BE781F0004158E72DE9FE4F81EAE9
:1003D000030404F0004421F0004100944FF0000BAE
:1003E00023F0004350EA01045ED052EA03045BD0DC
:1003F000C3F30A54C1F30A552C44A4F2F334019414
:10040000A0FB0254C1F3130141F48011C3F31303A1
:1004100043F4801301FB024400FB034E840A970A55
:1004200044EA815447EA8357A4FB076802958D0A82
:1004300005FB07854FEA932C04FB0C542705029D0E
:100440004FEA065847EA1637B5EB08056EEB070C7E
:10045000870E920E47EA811742EA8312A7FB020138
:10046000B6EB0B0164EB00042B0D43EA0C335E1872
:1004700044EB1C50DA465146E7FB0201C5F3130476
:100480004FEA0B3343EA14534FEA0432019C43EA28
:100490000603A4F10C040294009CCDE900B400F022
:1004A00050F903B0BDE8F08F00200146F9E72DE9CF
:1004B000F04D81EA030404F0004B21F0004514469E
:1004C0004FF0000A23F0004150EA050220D054EA20
:1004D00001021DD0C5F30A570246C5F31303C1F349
:1004E0001300C1F30A5640F4801543F48013A7EBC0
:1004F0000608101BD64608F2FD3873EB050002D340
:1005000008F1010801E092185B41B8F1000F03DA2D
:1005100000200146BDE8F08D00204FF48011064612
:1005200084460EE0171B73EB050705D3121B63EB24
:10053000050306434CEA010C49084FEA30009218C3
:100540005B4150EA0107EDD152EA030012D082EA82
:10055000040083EA0501084305D0101BAB4106D215
:100560000122002306E000224FF0004302E06FF07A
:10057000010253101AEB06004CEB085110EB0A0075
:1005800041EB0B01BDE8F04D00F0CCB870B5C1F304
:100590000A5201F000450024C1F3130140F2FF3379
:1005A00041F480119A4201DA002070BD40F23343D9
:1005B0009A42A2F2334203DC524200F05AF800E0C1
:1005C00090402C43F1D0404270BD00F0004230F02A
:1005D00000400AD0C10D01F56071C0F3160042EA77
:1005E0000151C2084007114370470020014670477F
:1005F00001F0004330B421F0004150EA010206D07E
:100600000A0DA2F56072C1F31301002A02DC30BCAE
:1006100000207047440F44EAC104C100E01830BC18
:1006200000EBC25000F047B830B50B460146002041
:100630002022012409E021FA02F59D4205D303FAA4
:1006400002F5491B04FA02F52844151EA2F1010225
:10065000F1DC30BD202A04DB203A00FA02F1002050
:1006600070479140C2F1200320FA03F319439040F0
:100670007047202A04DB203A21FA02F0002170475B
:1006800021FA02F3D040C2F12002914008431946FA
:100690007047202A06DBCB17203A41FA02F043EAE2
:1006A000E07306E041FA02F3D040C2F1200291402B
:1006B0000843194670470029A8BF7047401C4900ED
:1006C00008BF20F00100704710B4B0FA80FC00FAB7
:1006D0000CF050EA010404BF10BC704749B1CCF1E2
:1006E000200421FA04F411FA0CF118BF012121436E
:1006F0000843A3EB0C01CB1D4FEA00614FEA102029
:1007000042BF002010BC704700EBC35010440029CA
:10071000A4BF10BC7047401C490008BF20F0010076
:1007200010BC704710B5141E73F1000408DA401CA9
:1007300041F1000192185B411A4301D120F0010000
:1007400010BD2DE9F04D92469B4611B1B1FA81F2F0
:1007500002E0B0FA80F220329046FFF77BFF0446B9
:100760000F4640EA0A0041EA0B0153465A46084345
:1007700013D0114653EA010019D0C8F14002504687
:10078000FFF777FF05460E46504659464246FFF7AB
:1007900061FF084305D0012004E020463946BDE84A
:1007A000F08D0020054346EAE0762C4337430A9853
:1007B0006305E40AA0EB08000022FD0A44EA47545E
:1007C0000A3002D500200146E9E701051019694108
:1007D000DDE9084500196941BDE8F04DA2E7C1F324
:1007E0000A52C1F3130140F2FF3341F480119A42DF
:1007F00002DA00200146704740F233439A42A2F2E7
:10080000334202DC5242FFF734BFFFF723BF000040
:1008100030B5041E71F1000404DB4FF00044404287
:1008200064EB0101141E73F1000405DB1C464FF05C
:100830000043524263EB0403994208BF904230BD2B
:1008400000207047064C074D06E0E06840F00103C9
:1008500094E8070098471034AC42F6D3FFF798FCB1
:1008600088C00208A8C0020830B58C1810F8012B07
:1008700012F00F0301D110F8013B120906D110F854
:10088000012B03E010F8015B01F8015B5B1EF9D15D
:1008900001E001F8013B521EFBD1A142E6D300204A
:1008A00030BD0000F0B5F1B1002300BF02EB430CF6
:1008B00032F813E0BCF802C02EF0030E2CF0030C4B
:1008C00050F80E5050F80C6000EB0E0400EB0C07D3
:1008D00040F80E6040F80C507E68656802338B4229
:1008E00066607D60E2D3F0BD2DE9F0410488984652
:1008F00016460746012A0D460CD1E4B3281D2146B1
:1009000090ED000A0139B1EE400A80ED000A00F1D5
:100910000800F5D1FF2C0CDDB4F5806F10DBB4F5C9
:10092000805F22D0B4F5006F11D0B4F5806F17D07E
:1009300021E03F2C10DC102C12D0202C07D01AE024
:10094000B4F5807F03D0B4F5007F0ED013E03846B5
:10095000294600F05FF90EE0402C06D0802C0AD129
:100960003846294600F08AF805E07A68284621468C
:10097000012300F04DFBB8F1000F04D0B989BA682B
:100980002846FFF78FFF012E1CD100EE104A002CE5
:10099000B8EE400A08BFBDE8F081B7EE001A81EE5C
:1009A000000A00BF95ED001A95ED012A20EE011A0C
:1009B00022EE402A85ED001A85ED012A013C05F161
:1009C0000805EFD1BDE8F08100224260FF294FF019
:1009D000FF0201800EDDB1F5806F16DB29D0B1F585
:1009E000805F2BD0B1F5006F46D144F22813C0F6DA
:1009F000010336E03F2913DC102924D020293BD104
:100A000044F24813C0F601032BE0B1F5807F1FD0FC
:100A1000B1F5007F30D144F26813C0F6010320E045
:100A200040291AD0802927D144F20813C0F60103C7
:100A300017E044F2F803C0F6010312E044F2581341
:100A4000C0F601030DE044F21813C0F6010308E0FC
:100A500044F23813C0F6010303E044F27813C0F601
:100A60000103191D03F108020C331B881268096881
:100A70008381C0E90112002250B270472DE9F0478E
:100A80002DED028B03888046084601EB830AD8F8D7
:100A900004200021B1EBD30F4FEA530900F0AB80E3
:100AA000D9080AEB890C00EB890E0027C4190AEB60
:100AB000070594ED000A95ED003A94ED011A95EDC5
:100AC000014A0EEB07030CEB070694ED022A95EDA5
:100AD000025A70EE035A93ED006AD6ED001AD6ED75
:100AE000012AD6ED023AD6ED034AC4ED005A71EE62
:100AF000045A93ED017AC4ED015A72EE055AD3ED12
:100B0000020AC4ED025AD4ED035AD5ED036A31EE60
:100B1000441A35EEA68A36EE214AD3ED037A84EDE7
:100B2000038A83ED004A37EE224A83ED014A30EE14
:100B3000A34A83ED024A37EEA44A83ED034AD31950
:100B400031EEC64A33EEE06AD3ED000AD3ED011A66
:100B500030EE430A32EE452A32EEC75A60EE202AC2
:100B600061EE213A21EE201A20EE210A31EE400AF0
:100B700085ED010A24EE210A25EE211A25EE205AE0
:100B800072EEA32A24EE204A30EE450AC5ED002A73
:100B900086ED000A34EE010A86ED010A93ED020AA1
:100BA00093ED031A35EEE63A22EE004A23EE015A9F
:100BB00023EE003A22EE012A34EEE77A33EE422A9F
:100BC00085ED032A26EE012A27EE011A27EE003AC8
:100BD00026EE000A34EE054A32EE432A30EE010AD0
:100BE000013907F1100785ED024A86ED022A86EDEC
:100BF000030A7FF45BAF4946022300F009FAD8F8F4
:100C00000420504649460223BDEC028BBDE8F04764
:100C100000F0FEB92DE9F04F81B02DED088B8EB0BC
:100C200002880346500801EB800505EB800691ED34
:100C3000000A91ED011A96ED002A96ED013A04930F
:100C40005B6806EB800730EE024A30EE420A31EE76
:100C5000032A31EE431A95ED013A95ED005A0593BA
:100C6000930897ED017AD7ED000A029374EE452AB6
:100C700072EE433A34EE054A32EE032A6FF0010376
:100C800034EE204A32EE072A03EB920230EE036A7A
:100C900071EE451A30EE430A31EE051A81ED004A35
:100CA0000A9181ED012A510836EE476A71EEA01AC9
:100CB00072EEE02A73EEC73A30EE070A31EE601AA0
:100CC0000095019603970D91C10085ED006AC5ED71
:100CD000011AC6ED002AC6ED013A87ED000A87ED3C
:100CE000011A0C9100EB40016FF007036FF003074E
:100CF0004FEA800E07EBC00B07EB800A03EB0019ED
:100D000003EB81028C000020002500210B9100BF25
:100D10000A9E059B07900695089406EB04080C9C18
:100D2000311806EB040C06EB0E0491ED020A9CED63
:100D3000022AD4ED020A30EE026AD8ED022A36EE1B
:100D4000204A34EE224A91ED031A9CED033AD4ED89
:100D5000031AD8ED033A81ED024A94ED034A31EECD
:100D6000037A98ED035A37EE044ACDF824E034EEC6
:100D7000054A81ED034A0B9930EE420A31EE431ADF
:100D800030EE212A03EB010E32EE634A31EE602A87
:100D90000D9932EE225A36EE602A37EE613A30EE85
:100DA000610A31EE201A1F18581932EE622A33EE0A
:100DB000633A30EE230A002931EE621A00F0CC804B
:100DC0000A998E1801EB0A0301EB0905594493EDCA
:100DD000007AD6ED010AD1ED003A77EE202AD5ED62
:100DE000014A72EEA35A75EEA45A13ED016AD6EDCC
:100DF000001A51ED016AD5ED007AC3ED005A11EDEC
:100E0000018A76EE215A95ED009A35EE888A38EE01
:100E1000098A03ED018A97ED028A97ED039A24EE81
:100E200008AA25EE09BA25EE085A24EE094A35EE3D
:100E3000444A37EE605A84ED034A36EE614A35EE95
:100E4000666A33EEE47A36EE276A74EE070A66EED7
:100E5000091A20EE899A60EE880A26EE086A3AEEB0
:100E60000BAA71EEE00A36EE096A84ED02AAC1ED22
:100E7000000A01ED016A90ED046AD0ED050A62EE08
:100E8000061A23EE208A23EE063A22EE202A33EEBB
:100E9000422A8CED032A32EEE32A35EEE63A71EE71
:100EA000881A33EE673A32EE642A0D98CCED021AB6
:100EB00062EE461A23EE066A23EE203A22EE202A3C
:100EC00031EEC33A32EE462A013886ED013A86ED1C
:100ED000002A0D909EED062A9EED073A0C9820EE12
:100EE000026A61EE030A21EE021A20EE030A0830BC
:100EF00031EE400A37EEE61ADDF824E00C9088ED7A
:100F0000030A37EE440A31EE451A0B9821EE034AE4
:100F100020EE033A20EE020A36EE206A21EE021A93
:100F200034EE400A183088ED026A85ED010A31EE90
:100F3000030A089C0B9085ED000A069D07980EF1A8
:100F4000080E083410350830A9F10809083AABF149
:100F5000080BAAF1080ADBE697ED026A97ED037A1F
:100F600064EE060A65EE071A25EE065A24EE074AD5
:100F700030EEA16A35EE444A84ED026A84ED034AFC
:100F800090ED044A90ED055A22EE046A23EE057AAC
:100F900023EE043A22EE052A36EE074A33EE422AC1
:100FA0008CED024A8CED032A9EED062A9EED073A4F
:100FB000029D20EE024A21EE035A21EE021A20EE93
:100FC000030A0A98059A34EE052A31EE400A2946AA
:100FD000042388ED022A88ED030A00F019F8049C26
:100FE000009862682946042300F012F862680198AC
:100FF0002946042300F00CF862680398294604236C
:101000000EB0BDEC088B01B0BDE8F04FAFF300802F
:101010002DE9F04F81B02DED108BA0B0DFED04CAAB
:1010200000900430CDE902320190CDE91E1101E0BB
:10103000F304353F1F9A4FF0000AD308DF00A7EBF7
:10104000D200C0001D904FEAC20C03EB430503EB36
:101050008302580106931E01019B2C014FEAC20E28
:10106000ED00CDE90C0ECDE90A5600BF0A9D191816
:1010700003EB05091D9D03EB0E0003EB070810EDC4
:10108000014A86469A19181903EB050B13ED011A4C
:1010900011ED012A18ED013A12ED017A50ED010A25
:1010A00059ED011A5BED012A31EE025A33EE046A62
:1010B00077EE203A71EEA24A75EE235A76EE246A54
:1010C00075EEA67A43ED017A75EEE65AD8ED007A10
:1010D0009EED008A99ED00BA9BED00CAD3ED006A3F
:1010E00041ED015AD1ED005A92ED009A90ED00AA1F
:1010F00037EE88EA7BEE0C8A36EEA5DA39EE0AFA8C
:1011000035EE635A36EE646A7EEE684A7DEE0F9ADB
:101110007DEE4F3A35EE24DA35EE645A7EEE28AA9B
:1011200002ED01DA33EEC6DA00ED015A36EE235A4B
:1011300031EE421A33EE442A37EE603A31EEE24A9B
:1011400037EEC86A7BEE4C0A79EEAABA79EEEA9AD3
:1011500072EE441A32EE042A36EE604A36EE206A07
:10116000C3ED00BAC1ED009A82ED00DA80ED005ABD
:1011700036EEE55A39EE4A7A61EEAC1A22EE2C2AA6
:1011800024EE2C4A26EE2C6A71EE210A73EE022A16
:1011900075EE043A77EE064A31EE611A33EE422AD2
:1011A00035EE443A37EE464A2646744670EEA45A67
:1011B00070EEE40A31EE045A1F9A1E9948ED015A66
:1011C00073EEE25A4BED010A72EEA30A204604EDDB
:1011D000015A33EE425ADDF834E0C8ED005ACBED47
:1011E000000A84ED005A0C9831EE441A34460B9EE6
:1011F000924409ED011A32EE031A8A45634489EDDF
:10120000001AFFF433AF1F984028C0F0D481029831
:10121000009E80B205900698CDE90E4CC0EBC00050
:10122000C000002401251097049000BF0598039B7F
:10123000044403EBC40191ED000A03EB04128DEDAD
:101240001D0A92ED000A04EB440203EBC2008DED8F
:101250001C0A90ED000A03EB44118DED1B0A91ED81
:10126000000A04EB8401C80003EBC1018DED1A0AEA
:1012700091ED000A4FEAC20A4FEA021B03EB021289
:101280008DED190A92ED000AC4EBC4024FEAC40CBA
:10129000D10003EBC2028DED180A92ED000A0CF1A9
:1012A00004024FEA041E1A448DED170A92ED000A5B
:1012B0000EF104021A448DED160A92ED000A0AF1AD
:1012C00004024FEA44191A448DED150A92ED000A02
:1012D00009F104021A448DED140A92ED000A04305B
:1012E00018448DED130A90ED000A0BF10400184428
:1012F0008DED120A90ED000A081D18440994D0EDF6
:10130000006A0796B44608952B46DDE90C54DDE9E2
:101310000A76DDF810808DED110A00BF10980E9945
:101320000CEB05090CEB000E0CEB04000CEB060BB0
:101330000CEB010A0CEB07020CEB0801DCED027A66
:1013400099ED028A9EED029A90ED02AA9BED02DAD7
:101350009AED02EA92ED02FAD1ED028A37EE88BAEE
:1013600039EE0ACA7DEE0E9A7FEE28AA7BEE29BAE4
:10137000F0EE6C3A7CEE2ACA7BEEACDACCED02DA07
:101380007BEEECBADCED03CAD9ED03DADEED03EA5D
:10139000D0ED03FA9BED030A9AED031A92ED032AAE
:1013A00091ED033A3CEEAD4A3EEEAF5A30EE016AA3
:1013B00032EE037A74EE060A75EE071ADDED1A4A6C
:1013C000DDED135A70EEA12A70EEE10ACCED032A8E
:1013D00064EEAB1A65EEA02A71EEA21A64EEA00AC2
:1013E00065EEAB2A70EEE20AC9ED021AC9ED030AF6
:1013F0007BEE690A7CEE6A1A34EE464A35EE475AAD
:101400009DED1CCADDED154A30EE856A34EE617A39
:101410006CEE062A24EE87BA2CEE077A24EE866A52
:1014200030EEC55A31EE844ADDED180ADDED111AB1
:1014300037EE466A8BED036A20EE856A21EE847AE8
:1014400020EE844A21EE855A37EE066A34EE454A8C
:1014500039EE4A5A3FEE687A7EEEEF1A30EE410AD4
:1014600032EE431A7BEE222A35EE472A35EE073A52
:1014700031EEC15A31EE811ACBED022A8AED026AB1
:101480008AED034A37EEC84A3DEE4E6A7CEEED0A1D
:1014900022EE232A23EE233A25EE235A21EE231AA5
:1014A000F0EE63CA34EE027A76EE031A70EE852A05
:1014B00070EE017ADDED1D3ADDED164A37EE278A32
:1014C00032EEE19A23EE88AA24EE89BA23EE899AB5
:1014D000DDED173A37EE677A71EEA21A63EE872ACE
:1014E00066EEA17A63EEA11A26EE877A24EE888A48
:1014F00031EEC77A34EE422A36EE433A30EEC54A30
:1015000030EE410ADDED190ADDED121A39EE488A96
:1015100032EE001A34EE435A8EED038A81ED037ADF
:1015200020EE816A21EE857A20EE855A21EE811A1D
:101530003AEE0BAA72EEA72A36EE076A35EE411A8A
:101540008EED02AAC1ED022A80ED026A80ED031A37
:101550001F9833EE041A03441E989DED1B4A9DED1F
:10156000145A32EE400A83420F9824EE002A25EEE8
:10157000013A24EE011A25EE000A32EE032A31EE7A
:10158000400A844482ED022A82ED030AFFF4C6AECB
:10159000089D0698079E0135099C854206F10806BC
:1015A000FFF444AE0298C00002901F983F280698AE
:1015B0001F903FF63FAD20B0BDEC108B01B0BDE8F1
:1015C000F08F10B578B14FF400710446FFF7FCF9C5
:1015D00050B94FF48060208244F20810C0F6020037
:1015E0006061002000E0FF2040B210BD10B568B17E
:1015F00040210446FFF7E8F948B98020208245F2EF
:101600000810C0F602006061002000E0FF2040B238
:1016100010BD10B578B14FF480610446FFF7D4F9DE
:1016200050B94FF40060208245F20830C0F6020045
:101630006061002000E0FF2040B210BD10B570B125
:1016400080210446FFF7C0F950B94FF48070208222
:1016500047F20830C0F602006061002000E0FF2081
:1016600040B210BD10B568B110210446FFF7ACF9C7
:1016700048B92020208247F20870C0F6020060615D
:10168000002000E0FF2040B210BD10B578B14FF44B
:1016900000610446FFF798F950B94FF4805020825A
:1016A00047F28870C0F602006061002000E0FF2071
:1016B00040B210BD10B578B14FF480710446FFF709
:1016C00083F950B94FF4007020824BF28870C0F655
:1016D00002006061002000E0FF2040B210BD10B5A4
:1016E00068B120210446FFF76FF948B940202082F5
:1016F0004BF68870C0F602006061002000E0FF2019
:1017000040B210BDF0B581B014460E46054673B127
:101710002846314622461F4600F060F828462146FA
:101720003A46012301B0BDE8F040FFF7DDB8284696
:10173000314600220123FFF7D7F8284631462246DA
:1017400001B0BDE8F04000F0A3B8B1F5007F0ADABF
:101750007F2916DC202929D040293BD141F2DF61C5
:10176000C0F600010847B1F5006F14DAB1F5007F4B
:1017700021D0B1F5806F2DD141F2C351C0F60001E7
:10178000084780291CD0B1F5807F23D141F23D610B
:10179000C0F600010847B1F5805F16D0B1F5006FC3
:1017A00018D141F21361C0F60001084741F26561AA
:1017B000C0F60001084741F2B561C0F600010847D4
:1017C00041F2ED51C0F60001084741F28B61C0F6CD
:1017D000000108474FF0FF307047000080B591EDE1
:1017E000001A91ED012AD0F814E0008831EE023A97
:1017F000B6EE000A31EE421AB0F1010C23EE003AC7
:1018000021EE001A82ED003A82ED011A08BF80BD78
:1018100001F1080301EBCC010EF10800083204319C
:1018200011ED011A91ED002A93ED003A93ED014A72
:1018300090ED005A90ED016A33EE417A72EE040A9F
:1018400067EE051A60EE862A27EE066A31EE031A65
:1018500034EE422A25EE205A31EE611A32EE062A83
:1018600031EE621A32EE452A21EE001A22EE002AEB
:1018700082ED001A82ED012ABCF1010C03F108038C
:1018800000F1080002F10802A1F10801C8D180BDF1
:1018900091ED000A91ED011A0388406930EE002AAB
:1018A00031EE011AA3F1010C32EE013AB6EE000A54
:1018B00032EE411A23EE003A21EE001A00F108033D
:1018C00001F1080001EBCC0182ED003A82ED011A32
:1018D0000832043111ED011A90ED003A91ED002A21
:1018E00090ED014A93ED005A93ED016A31EE437A8F
:1018F00072EE040A67EE051A27EE067A31EE031A35
:1019000034EE422A25EE205A20EE866A31EE211A64
:1019100032EE072A31EE061A32EE452A21EE001A7F
:1019200022EE002A82ED001A82ED012ABCF1010CA0
:1019300003F1080300F1080002F10802A1F1080117
:10194000C8D1704710B50106014604D5044809F016
:10195000C7FD002010BD03A009F0C2FD012010BD8D
:10196000B8EA00084144393835313A20436F6E7483
:10197000726F6C20576F7264204F4B3A203078257D
:101980003032580D0A00000010B500249FED060B00
:1019900020460BF07FF8052002F0F0FF2146BDE85D
:1019A000104003A009F09CBD0000000080842E417F
:1019B0004144393835313A204578697420506F7781
:1019C00065722D446F776E206D6F64652C20436FB8
:1019D0006E74726F6C20576F72643A2030782530C5
:1019E00032580D0A0000000070B5144D0E46044632
:1019F00000224021284603F0D1F900228021284608
:101A000003F0CCF900221021284603F0C7F9002288
:101A10002021284603F0C2F914B1012C03D004E0C0
:101A20000AF0D0FF01E00AF0ADFF31462046BDE8E4
:101A300070409FED030B00F019B800000004024055
:101A4000000000000088C34070B50025012410EE9E
:101A5000100AFEF7BAFD41EC100B2146284600F0B3
:101A600005F8BDE87040012002F088BF70B5002481
:101A70002DED028BB0EE408AF0EE608A054601291A
:101A800000D101242046FFF75DFF65B1012D15D17E
:101A9000B0EE480AF0EE680ABDEC028B2046BDE8C5
:101AA00070400AF0CDBFB0EE480AF0EE680ABDEC17
:101AB000028B2046BDE870400AF0ECBFBDEC028B03
:101AC00070BD10B50146806B026C12F0500F05D04E
:101AD000026CD20626D502F0A6F910BD016C41F4C5
:101AE0000071016401688A6812F0405F17D1027EBC
:101AF000AAB9CA6A12F4700F02D08A6852050ED4CD
:101B00004A6822F020024A60016C21F4807101646D
:101B1000016CC90403D4016C41F00101016402F0BD
:101B200075F910BD806BC26CBDE8104008461047C7
:101B300010B5806B40210164416C41F004014164A7
:101B400002F071F910BD10B5806B02F06BF910BD99
:101B500010B504464B48416821F44031416041686A
:101B60006268114341602068416821F480714160DE
:101B700020684168226941EA022141602068416889
:101B800021F04071416020684168A26811434160C2
:101B90002068816821F40061816020688168E268C2
:101BA00011438160A06A6FF07061C842206881684B
:101BB00021F070618160206881680CD0A26A1143B5
:101BC00081602068816821F04051816020688168CF
:101BD000E26A114301E021F0405181602068816890
:101BE00021F00201816020688168227E41EA420181
:101BF000816094F8200000283FD0606A401E0728CA
:101C000004D94FF4F56120A00BF000F8206841687A
:101C100041F4006141602068416821F46041416005
:101C200020684168264B626A03EB423211434160EF
:101C30002068C16A21F47001C1622068C16AA28B68
:101C4000204B03EB02521143C1622068816821F4EA
:101C5000007181602068816894F8302041EA422157
:101C600081602068816821F48061816020688168DA
:101C7000626941EA8221816010BD2068416821F4D7
:101C80000061D4E7002301402E2E2F44726976654F
:101C900072732F53544D3332463478785F48414C39
:101CA0005F4472697665722F5372632F73746D335C
:101CB00032663478785F68616C5F6164632E6300BC
:101CC00000E0FFFF0000F0FFF0B57A4F00252DED9A
:101CD000048B83B001263878774C20B101F0E6FD03
:101CE00026713D7002E0207900282AD04FF6FF705F
:101CF00004F07CFD322002F041FEFFF745FE0A2190
:101D00006EA004F0BFFE01F039F871A009F0E8FB05
:101D10009FED780B8DED000B9FED780B79A053ECC8
:101D2000102B09F0DDFB322180A009F0D9FB84489B
:101D300009F0D6FB83A009F0D3FB257125706570EF
:101D400005E0207800287DD1607832287AD260784A
:101D500000F032FDB0EE408ABCEEC80AB8EE400A90
:101D6000FFF772FEB0EE480A09F004F960787E4D84
:101D7000F0EE400A00EB400005EBC000B0EE480A70
:101D800008F04EFE607800EB400005EBC000D0E9A3
:101D90000412CDE900120FC80AF090FF60783221DA
:101DA000401CC0B209F06CFB6078401CC0B260708F
:101DB00032287BD326703221284601F03DFDB0EE5B
:101DC000408A00F0D3FD3221284600F009FF67A0C9
:101DD00009F086FB18EE100AFEF7F7FB41EC100B3A
:101DE0006CA053EC102B09F07BFB9FED718A9FEDEB
:101DF000719A9FED710A0020F0EE408A00EB4001DD
:101E000005EBC101D1ED030AF4EEC80AF1EE10FAB8
:101E100003DD91ED000AB0EE608AF4EEC90AF1EE3E
:101E200010FA03D2D1ED008AB0EE609A401C32283D
:101E3000E4DB10EE100AFEF7C8FB04460D4618EE70
:101E4000100A00E032E0FEF7C0FB41EC100B5BA093
:101E500053EC102BCDE9004509F042FB18EE900A37
:101E6000FEF7B3FB04460D4619EE100AFEF7ADFB74
:101E700041EC100B59A053EC102BCDE9004509F0B3
:101E80002FFB38EE490A10EE100AFEF79EFB41ECDC
:101E9000100B5AA053EC102B09F022FB03B05DA0ED
:101EA000BDEC048BBDE8F04009F01ABB03B0BDECFB
:101EB000048BF0BD3D300020283000204672657153
:101EC00075656E637920526573706F6E736500007F
:101ED0000D0A3D3D3D204652455155454E43592042
:101EE0005357454550205354415254203D3D3D0DDC
:101EF0000A00000000000000006A08410000000025
:101F0000000059404672657175656E6379205261B3
:101F10006E67653A20252E316620487A207E20257E
:101F20002E316620487A0D0A00000000546F74615B
:101F30006C20506F696E74733A2025640D0A00009E
:101F400048EB00083D3D3D3D3D3D3D3D3D3D3D3D7A
:101F50003D3D3D3D3D3D3D3D3D3D3D3D3D3D3D3DB1
:101F60003D3D3D0D0A000000589300200D0A3D3D07
:101F70003D204652455155454E43592053574545FE
:101F80005020434F4D504C45544544203D3D3D0D60
:101F90000A0000002D336442204672657175656E3B
:101FA00063793A20252E316620487A0D0A00000018
:101FB0000000C8C20000C842000000004D61782047
:101FC0004761696E3A20252E326620644220402007
:101FD000252E316620487A0D0A0000004D696E20DA
:101FE0004761696E3A20252E3266206442204020E7
:101FF000252E316620487A0D0A0000004761696E7F
:102000002052616E67653A20252E32662064420DAB
:102010000A0000003D3D3D3D3D3D3D3D3D3D3D3DDA
:102020003D3D3D3D3D3D3D3D3D3D3D3D3D3D3D3DE0
:102030003D3D3D3D3D3D0D0A0D0A00002DE9F04FAF
:102040005D4F5E4D5E4C4FF0010A2DED028BA1B04D
:10205000387800269FED5B8A48B101F027FC84F8B0
:1020600003A03E70A67084ED028A2E7001E0E07835
:10207000A8B14FF6FF7004F0B9FB322002F07EFCED
:10208000FFF782FC9FED500AFFF7DEFC9FED4F0A41
:1020900008F070FF84ED030A00F0A4F8E6704C4AE3
:1020A00094ED030AA2F11001A1F1100008F0C8FD9F
:1020B00000F0B2F92878A946002878D045484FF4B6
:1020C000805BA0F2C4452ECD80E82E000122594647
:1020D000414802F063FE4FF4FA7002F04FFC3F4FAC
:1020E000002500BF05EBC50007EB800000F12002D2
:1020F00000F1100194ED030A08F0A2FD6D1CEDB291
:10210000082DEFD300206B4600EBC00207EB8202E4
:10211000103203EB001192E8241181E82411401CD5
:10212000C0B20828F0D3F0EE480A08211A46B0EEF3
:10213000600A002002EB0013401C93ED011A884254
:1021400071EE200A93ED001A31EE000AF2DB01EE87
:10215000101A2048B8EEC11A1030C0EE811A00EEF5
:10216000901A1F49B8EEE01AC0EE010AC0ED011A3C
:10217000C0ED000A068180ED038A10EE900A8842C5
:102180000ADD144890ED000A30EE600A80EE201A55
:10219000B0EE000A21EE008A0022594684ED028A40
:1021A00084F802A089F800600B4802F0F7FD21B026
:1021B000BDEC028BBDE8F08F3C3000203E300020AB
:1021C000283000200000000000007A4400504348FE
:1021D000549300200898002000040240F0310020B1
:1021E0006F12833A2DE9FC474FF6FF76304604F034
:1021F000FDFA5C4C1F205C4F20800A213E805BA0D2
:1022000004F040FC4FF4FC68A4F800804FF0100A82
:102210003E805BA1CDE900A15346C82223210A20BC
:1022200008F0D0F94FF00009A4F800900C253E808A
:1022300057A0CDE900502B46502237210F2008F03F
:10224000C1F955A0CDE900500C23502246210F20A2
:1022500008F0B8F951A0CDE900500C2350225521C7
:102260000F2008F0AFF94EA0CDE900500C2350220A
:1022700064210F2008F0A6F9A4F800803E804AA14E
:10228000CDE900A11023C8227D210A2008F09AF987
:10229000A4F800903E8049A0CDE900500C236422B0
:1022A00091210F2008F08EF947A0CDE900500C23B2
:1022B0006422A0210F2008F085F938A0CDE9005054
:1022C0000C236422AF210F2008F07CF941A0CDE956
:1022D00000500C236422BE210F2008F073F9A4F8EB
:1022E00000803E803DA1CDE900A11023C822D72166
:1022F0000A2008F067F9A4F800903E803CA0CDE9E0
:1023000000500C236422EB210F2008F05BF948F207
:10231000304020807823E62219460A2004F0DAFBB8
:10232000D223E62219460A2004F0D4FBA4F8008048
:102330003E8032A1CDE900A11023C822FF210A204E
:1023400008F040F9A4F800903E8031A0CDE900509B
:102350000C23642240F213110F2008F033F9BDE87A
:10236000FC87000024300020263000204261736981
:1023700063204D6561737572656D656E7400000054
:10238000496E707574205369676E616C00000000BF
:1023900056696E3A2031560056733A0066733A0019
:1023A00052696E3A000000004F75747075742053C6
:1023B00069676E616C28414329000000566F75748F
:1023C000284F70656E293A00566F757428524C2953
:1023D0003A000000526F75743A0000004F75747037
:1023E0007574205369676E616C28444329000000AE
:1023F000566F7574284443293A0000004761696E9E
:10240000204D6561737572656D656E740000000026
:102410004761696E3A0000002DE9F043A2490020AF
:102420002DED028B8FB00880A0484FF6FF74522329
:102430000480E62246213C20009404F015FC9C4FC9
:102440003868FEF7C2F841EC100B9AA153EC102B40
:1024500002A809F055F80C2502AECDE900562B462E
:10246000782246213C2008F0ADF86123E622552170
:102470003C20009404F0F8FB97ED010A002255215E
:102480003C2004F06BFA7023E62264213C20009487
:1024900004F0EAFB384600F03BF910EE100AFEF7B4
:1024A00094F841EC100B85A153EC102B02A809F015
:1024B00027F8CDE900560C23782264213C2008F04F
:1024C00081F8DFF804824FF09D034FF0E60298F8A0
:1024D00002004FF0910100284FF0820000947DD05F
:1024E00004F0C2FB07F2D440D0F80000FEF76DF80C
:1024F00041EC100B6FA153EC102B02A809F000F86F
:10250000CDE900560C2378229121822008F05AF858
:10251000BB23E622AF213C20009404F0A5FB97EDFD
:10252000050A0022AF213C2004F018FAF723E62226
:10253000EB215A20009404F097FB386AFEF745F827
:1025400041EC100B5BA153EC102B02A808F0D8FF54
:10255000CDE900560C237822EB215A2008F032F8FE
:1025600040F2131940F21F13E62249465A20009404
:1025700004F07AFBD7ED000A9FED541A80EE810A31
:1025800010EE100AFEF721F89FED511B53EC112BB2
:10259000FDF718FF41EC180B97ED040ADFED4E0A2A
:1025A00020EE200A10EE100AFEF70FF89FED4B1BED
:1025B00053EC112BFDF77BFF53EC182BFDF777FF46
:1025C000FEF716F8FEF701F841EC100B45A153ECAD
:1025D000102B02A808F094FF0C2300E023E0CDE9C3
:1025E0000056782249465A2007F0ECFFCA23E6221B
:1025F000BE213C20009404F037FB98F802004746C7
:10260000A8B1B868FDF7E1FF41EC100B2BA153EC2A
:10261000102B02A808F074FFCDE900560C23782295
:10262000BE213C200AE004F01FFB38695EE72FA0C2
:10263000CDE900500C237822BE213C2007F0C2FFD8
:10264000B8784FF0AC0300284FF0E6024FF0A0013D
:102650004FF06400009416D004F006FB2548006893
:10266000FDF7B3FF41EC100B23A0009053EC102BAF
:1026700010A102A808F044FFCDE900560C237822EF
:10268000A021642008E004F0EFFA1EA0CDE900507C
:102690000C237822A021642007F094FF0FB0BDEC3A
:1026A000028BBDE8F083000024300020263000209B
:1026B00034930020252E336620560000252E3366E5
:1026C000206BA6B800000000283000200000DC428B
:1026D0001F85EB51984C853F0000774300000000B8
:1026E00000288040252E3366200000002D2D2D204F
:1026F0006BA6B80018980020286D65617375726527
:10270000642900002D2D2D2056000000FEE700005A
:1027100010B59FED140A2DED048BD0ED000A80EE6C
:10272000808A18EE100AFDF750FF41EC190B18EEE5
:10273000100AFDF74AFF9FED0C1B53EC112BFDF720
:1027400041FE53EC192BFDF7B2FE9FED091B53EC34
:10275000112BFDF73AFEFDF74BFFBDEC048B00EEAD
:10276000100A10BD0000DC421F85EB51984C853FDC
:10277000000000C0CCCC1840DFED0E0A002209E0BA
:1027800002EB420300EBC303521C93ED030AD2B2E7
:1027900070EE200A8A42F3DB002001E0401CC0B248
:1027A0008842FBDB00EE101AB8EEC01A80EE810AF8
:1027B000704700000000000010B5322802D39FEDE2
:1027C0000A0A10BD00EE100A9FED081AB8EE400A82
:1027D000C0EE010A9FED060A08F08AFFDFED050A48
:1027E00020EE200A10BD0000005043480000444283
:1027F0000000FA440000C842014801F01BBE00007E
:10280000A030002001681823CAB2103AB2FBF3F2DC
:10281000054B6FF30901032A9B5CC36500D9091DB1
:102820008165084670470000ACD0000810B501462D
:1028300000208B698A6A4FF0C07453B1B3F5005F12
:1028400015D072B1012A0CD0022A0AD0032A09D16C
:1028500004E01AB1012A06D0022A03D1C96AC901CB
:1028600000D5012010BDC96AA142FAD010BD002ACE
:10287000F7D0012AF2D0022AF3D0032AF3D010BDF8
:1028800030B50468256825F48025256004686360F8
:102890008368402B036803D099600068C26030BD34
:1028A0009A600068C16030BD70470000F0B59FEDD0
:1028B0002D0A0024059DF0EE400A2DE004EB4406AD
:1028C000DFED291A30F8167000EB460601EE107A9B
:1028D0007788B8EE411A02EE107A01EB8407B8EE61
:1028E000422A21EE211A22EE212A87ED001A02EB5C
:1028F000840730EE010A87ED002AB68870EE820A5E
:1029000002EE906A03EB8406641CF8EE622AA4B21D
:1029100062EEA11AC6ED001AAC42CFD301EE105AF6
:102920000020F8EE411A80EE211A00EE105AF8EE5F
:10293000401A80EEA10A11E001EB8003D3ED000AFA
:1029400070EEC10AC3ED000A02EB8003401CD3ED18
:10295000000A80B270EEC00AC3ED000AA842EBD3B1
:10296000F0BD000000000000533C533A2DE9F04F49
:102970002DED048BB0EE408A0A26DFF8DCA1B5EE1F
:10298000C08AC82575488BB04FF6E078F1EE10FA92
:10299000AAF800804FF6FF74048032DD18EE100AAA
:1029A0006F4988420DDBDFED6F0A88EE200A10EEDA
:1029B000100AFDF70AFE41EC100B6BA153EC102B33
:1029C0001BE018EE100A6D4988420DDBDFED6C0A42
:1029D00088EE200A10EE100AFDF7F7FD41EC100B0F
:1029E00068A153EC102B08E018EE100AFDF7EDFD7E
:1029F00041EC100B68A153EC102B02A808F080FDED
:102A000003E06AA102A808F07BFDD823E62229464C
:102A10003046009404F028F9102002A9CDE9000105
:102A20000346DC222946304607F0CCFDB5EEC08ACD
:102A3000F1EE10FA7EDD2827B4269FED620A08F039
:102A400097FDF0EE408A9FED600A08F091FD18EEC8
:102A5000100A5E49B0EE409A08445D49884275D834
:102A6000B0EE480A08F084FD30EE680ADFED590A3E
:102A700039EE681AAAF8008020EE200A3C46C146CA
:102A8000C0EE010AB3EE0E0A30EE800ABCEEC00AB8
:102A900010EE100A85B2C8464A462146284604F080
:102AA00075F8601C81B24246284604F06FF8641D38
:102AB000A4B2B442EFD9F01B00EE100AB8EEC00A7F
:102AC000DFED450A20EE200A9FED441AAAF8009097
:102AD000C0EE010A00EE106A4E46B8EE400A30EE33
:102AE000600ABCEEC00A10EE100A1FFA80F8E81C5B
:102AF00082B2E81E434680B2194603F0EBFF08F1AC
:102B0000030083B2801F81B22A46104603F0E2FF21
:102B10006FF00104A346B2465E4604FB04F705EBE2
:102B2000040900BF06FB0670042809DC08EB060058
:102B300081B200E00AE01FFA89F0524604F026F85C
:102B4000761C022EEEDD641C022CE5DD0BB0BDEC24
:102B5000048BBDE8F08F00002430002026300020D8
:102B600000247449002474492D3364422046726560
:102B7000713A20252E3266204D487A0000007A44B2
:102B800000007A442D33644220467265713A202554
:102B90002E3266206B487A002D33644220467265DF
:102BA000713A20252E316620487A00002D33644288
:102BB00020467265713A204E6F7420466F756E64C0
:102BC000000000000000C84200504348000038BD2B
:102BD00000507B05000034430000044200007042B6
:102BE0002DE9F0432DED048B0A468DB04A4B47F694
:102BF000FF71DC241980494B00214FF00A0919802C
:102C00009FED478ADFED478A9FED479A1EE000BFA0
:102C100001EB410300EBC303D3ED000AF5EEC00A5C
:102C2000F1EE10FA11DD93ED030AB4EEC80AF1EEED
:102C300010FA03DDB0EE408AF0EE608AB4EEC90A05
:102C4000F1EE10FA01D2B0EE409A491C9142DFDB5E
:102C50004FF6FF70009004F12003E622214648461B
:102C600004F002F818EE900A3049884213DBDFEDD9
:102C7000300A88EEA00A10EE100AFDF7A6FC054601
:102C80000E4618EE100AFDF7A0FC41EC100B29A12E
:102C900053EC102B0EE018EE900AFDF796FC05465B
:102CA0000E4618EE100AFDF790FC41EC100B27A120
:102CB00053EC102BCDE9005602A808F021FC02AF1E
:102CC0004FF00C08CDE900871023DC22214648464E
:102CD00007F078FC18EE100AFDF777FC05460E4663
:102CE00019EE100AFDF771FC41EC100BCDE900560E
:102CF00053EC102B1BA102A808F002FCCDE90087C1
:102D000004F110011023DC22484607F05BFC0DB0F3
:102D1000BDEC048BBDE8F083243000202630002079
:102D20000000C8C2000000000000C84200007A4451
:102D300000007A445065616B3A20252E316664426A
:102D4000204020252E31666B487A00005065616B6B
:102D50003A20252E31666442204020252E316648D7
:102D60007A00000052616E67653A20252E31662098
:102D70007E20252E31662064420000002DE9F04FB0
:102D8000DFF8A0B1B4242DED028B91B01E254FF0D9
:102D9000D2094FF0000A23464FF02808ABF800A0F4
:102DA0004A461946284603F095FE2A4623464146E0
:102DB000104603F08FFE9FED5C0A08F0D9FBB0EEE1
:102DC000408A9FED5A0A08F0D3FB594802AFF0EE53
:102DD000408A4EC887E84E000FC806AF002687E835
:102DE0000F0002A800EB8600524990ED000A10EE99
:102DF000100A01445048814235D808F0B9FB70EE02
:102E0000480AA9EB050000EE100A38EEC81A214660
:102E1000B8EEC00A20EE800AC0EE010A00EE105A99
:102E2000B8EE400A30EE800ABCEEC00A10EE100A7E
:102E300087B2601F83B23A46104603F04BFE3F490B
:102E4000ABF800A04FF6FF70088006A80C2350F8DE
:102E500026100C20CDE90001A7F10A00611D80B207
:102E60001E2207F0AFFB761C042EBADB304814227A
:102E70000838D0E90010CDE90F102D490AA82031FB
:102E8000FDF7D1F90027A4EB08090FA8502130F96C
:102E900017001E3000FB09F090FBF1F0201A86B2FB
:102EA00046451BD3A64219D833466A1D1946284603
:102EB00003F010FE2149ABF800A04FF6FF70088028
:102EC00007EB87000AA908440C21CDE90010B61FC2
:102ED000B1B20C231922052007F074FB7F1C042FCC
:102EE000D3DB1648ABF800A04FF6FF7101800C262B
:102EF00013A0CDE9006004F1140105F13C00334654
:102F0000502207F05FFB11A0CDE900600C231422D2
:102F100041461E2007F056FB11B0BDEC028BBDE808
:102F2000F08F0000243000200000C84200504348C9
:102F300094E80008000038BD00507B0526300020D2
:102F40004672657175656E63790000006442000029
:102F500072B6FEE770B515460C4606463BB1B3F5B2
:102F6000804F07D040F2B51130A009F04FFE6FF04E
:102F7000704056E03B48864204D040F2BB112BA083
:102F800009F044FE20680F2804D94FF4DE7127A011
:102F900009F03CFE6068401E0E2804D940F2BD11C5
:102FA00022A009F033FEA068401EFE2804D94FF489
:102FB000DF711EA009F02AFEE0680F2804D940F254
:102FC000BF111AA009F022FEA06968B1B0F1805FBC
:102FD0000AD0B0F1005F07D0B0F1405F04D04FF4E9
:102FE000E07112A009F012FE55B1022D08D0042D97
:102FF00006D0062D04D040F2C1110CA009F006FE47
:10300000A1692068A26808436168090141EA0221B8
:103010000843A18940EA014056F82510124A1140A0
:10302000084346F82500002070BD00002E2E2F44D6
:103030007269766572732F53544D33324634787803
:103040005F48414C5F4472697665722F5372632FFB
:1030500073746D3332663478785F6C6C5F66736D51
:10306000632E6300040100A00000F0CF70B50C4691
:103070000546B0F1204F03D0E4215FA009F0C6FD62
:10308000206848B1022807D0042805D0062803D0BC
:10309000E52159A009F0BAFD606828B1022803D0E3
:1030A000E62155A009F0B2FDA06838B1042805D08A
:1030B000082803D0E72150A009F0A8FDE06838B146
:1030C000102805D0202803D0E8214BA009F09EFD50
:1030D000206930B1B0F5807F03D0E92146A009F026
:1030E00095FD606930B1B0F5007F03D0EA2142A0C0
:1030F00009F08CFDA06930B1B0F5806F03D0EC21F0
:103100003DA009F083FDE06930B1B0F5006F03D058
:10311000EE2139A009F07AFD206A30B1B0F5805F68
:1031200003D0EF2134A009F071FD606A30B1B0F531
:10313000005F03D0F02130A009F068FDA06A30B133
:10314000B0F5804F03D0F1212BA009F05FFDE06ABC
:1031500030B1B0F5004F03D0F22127A009F056FDA1
:10316000206B30B1B0F5002F03D0F32122A009F07D
:103170004DFDE06B78B1B0F5803F0CD0B0F5003F6D
:1031800009D0B0F5403F06D0B0F5802F03D0FA212A
:1031900019A009F03BFD206855F8201021F001012D
:1031A00045F82010A268082A23D000206168204B2F
:1031B0001143E268024320691143014360690143FE
:1031C000E0690143206A0143606A0143A06A014348
:1031D000E06A0143206B0143A0690843E16B0143AE
:1031E000206855F820209A430A4345F82020002003
:1031F00070BD4020DAE700002E2E2F4472697665FC
:1032000072732F53544D3332463478785F48414CB3
:103210005F4472697665722F5372632F73746D33D6
:1032200032663478785F6C6C5F66736D632E630012
:103230007FFF0F0070B515460C460646B0F1204FD3
:1032400004D040F2831137A009F0E0FC20680F2879
:1032500004D94FF4C27133A009F0D8FC6068401E55
:103260000E2804D940F285112EA009F0CFFCA068E9
:10327000401EFE2804D94FF4C3712AA009F0C6FCF1
:10328000E0680F2804D940F2871126A009F0BEFC9F
:103290002069801E0E2804D94FF4C47121A009F0C2
:1032A000B5FC6069801E0F2804D940F289111DA069
:1032B00009F0ACFCA16969B1B1F1805F0AD0B1F14C
:1032C000005F07D0B1F1405F04D04FF4C57115A085
:1032D00009F09CFC55B1022D08D0042D06D0062D16
:1032E00004D040F28B110FA009F090FCD4E900014A
:1032F00040EA0110A168A289090241EA024108439B
:10330000218A164A02EB01510843217D520102EB4A
:1033100001610843A169084306EB8501486000206C
:1033200070BD00002E2E2F447269766572732F5384
:10333000544D3332463478785F48414C5F4472696B
:103340007665722F5372632F73746D3332663478DF
:10335000785F6C6C5F66736D632E63000000F0FF36
:103360002DE9F043E048E14E00272DED028B83B0BC
:1033700001784FF0010921B186F80590077000F03F
:1033800095FA707970B17771B771377077704FF6C1
:10339000FF7003F02BFA322001F0F0FA0A21D4A0DA
:1033A00003F070FB9FEDD60A07F0E4FDD54A86EDE9
:1033B000040AA2F11001A1F1100007F041FCDFF8AE
:1033C0004483A8F120084446D8ED000A9FEDCE1AA8
:1033D00080EE810A10EE100AFDF7F7F89FEDCB1B87
:1033E00053EC112BFCF7EEFFFDF702F900EE100A8B
:1033F00094ED048A4046C8EE008AFFF789F9DFEDB4
:10340000C50AC5480C2438EEE01AC44DB0EEC11A06
:1034100011EE101A814220DC30EE600AB0EEC00AD4
:1034200010EE101A814218DCB7EE000A38EE400A9E
:10343000B0EEC00A10EE100AA8420EDCB8A0CDE92A
:1034400000401023DC2228210A2007F0BBF8B771C6
:1034500003B0BDEC028BBDE8F08386F806903078AF
:103460004F46A0BB7078322834D2FFF7A5F9B0EEF2
:10347000408ABCEEC80AB8EE400AFEF7E5FAB0EEA4
:10348000480A07F077FD7078DFF87892F0EE400A8E
:1034900000EB400109F1040909EBC100B0EE480A54
:1034A00007F0BEFA707800EB400109EBC100D0E9EB
:1034B0000412CDE900120FC809F000FC7078322127
:1034C000401CC0B207F0DCFF7078401C7070707850
:1034D0003228BDD38B4837703221001D00F0ACF983
:1034E0008848F0EE401A3221001DFFF745F910EE32
:1034F000100AA84202DA0220F0710AE010EE100A67
:10350000A84201DAF7710DE0F07901280AD002280B
:103510009ED1B0EEE10A10EE101A8348814277DAAC
:1035200082A0D7E098ED080A46469FED848A4FF0C6
:103530007C5730EE480AB0EEC00A10EE100AA842DE
:103540000FDA70482038FFF7E3F8DFED7D0A30EE40
:10355000600AB0EEC00A10EE100AB84201DA79A093
:10356000B8E096ED080ADFED7B0A70EE600AF0EE37
:10357000E00A10EE900AA84201DA77A0AAE0DFED97
:103580007B0A70EE600AF0EEE00A10EE900AA842A4
:1035900001DA77A09EE030EE480AB0EEC00A10EEE5
:1035A000100AA8420BDA57482038FFF7B1F8B0EEFE
:1035B000C00A10EE100AB84201DA71A08AE096ED56
:1035C000080ADFED740ADFF8D08170EE600AF0EED1
:1035D000E00A10EE900A404501DA70A07AE0F0EEC1
:1035E000020A30EE600AB0EEC00A10EE100AA842DD
:1035F00011DA44482038FFF78BF8F0EE000A30EE7D
:10360000600AB0EEC00A10EE100AB84203DA00E019
:1036100031E066A05EE096ED080A30EE480AB0EEB2
:10362000C00A10EE100AA8420FDA36482038FFF719
:103630006FF8F2EE060A30EE600AB0EEC00A10EE45
:10364000100AB84201DA5EA044E096ED080AB0EE36
:10365000C00A10EE100A40450BDA2A482038FFF75E
:1036600057F8B0EEC00A10EE100AB84201DA58A0BE
:1036700030E05CA02EE09FED5F0A31EEC00AB0EEB4
:10368000C00A10EE101A814201DA5BA022E09FED21
:103690005D0A31EEC00AB0EEC00A10EE101A814287
:1036A00001DA59A016E09FED5B0A31EEC00AB0EED8
:1036B000C00A10EE101A814201DA57A00AE09FED0D
:1036C0005A0A31EEC00AB0EEC00A10EE101A81425A
:1036D000CFDA56A0CDE900401023DC223C210A209D
:1036E00006F070FFB4E600003F30002028300020D4
:1036F0004661756C7420446574656374696F6E000F
:1037000000504348549300200000DC421F85EB51D9
:10371000984C853F33331340CDCC4C3ECDCCCC3D83
:103720004E6F726D616C00000000C8424331204F43
:1037300070656E204369726375697400295C0F407F
:1037400048E16A415231204F70656E2043697263CF
:1037500075697400E17A044052312053686F7274C5
:10376000204369726375697400000000295C8F3F13
:103770005232204F70656E20436972637569740020
:1037800052322053686F7274204369726375697492
:10379000000000008FC2F53C0AD7233C5233204F73
:1037A00070656E20436972637569740052332053EB
:1037B000686F727420436972637569740000000059
:1037C0005234204F70656E204369726375697400CE
:1037D00052342053686F7274204369726375697440
:1037E00000000000556E6B6E6F776E204572726F31
:1037F0007200000000409C45433120446F75626CAC
:103800006564000000C40648433220446F75626C52
:103810006564000000803B484333204F70656E2094
:103820004369726375697400001CA24743332044E6
:103830006F75626C6564000010B59FED1A0A02296D
:103840002BDB0022DFED180A13460EE003EB4304E6
:1038500000EBC40494ED031AB4EEE01AF1EE10FA92
:1038600002DDF0EE410ADAB25B1C8B42EEDBB0EE19
:10387000081A70EEC10A12E002EB420300EBC30328
:1038800093ED031AB4EEE01AF1EE10FA06D202EB51
:10389000420100EBC10090ED000A10BD521C8A42AB
:1038A000EADB10BD000000000000C8C210B50848E7
:1038B00000F0FCFC074802F0EFF90749002008700F
:1038C0000246BDE810404FF48051044801F066BA4A
:1038D0005830002050310020003000200004024009
:1038E00070B5054608680C46122804D94FF44F718C
:1038F000BEA009F08BF96068401E032804D940F28D
:103900003D31BAA009F082F9A06890B1012810D029
:1039100002280ED003280CD004280AD0052808D08D
:10392000062806D0072804D040F23E31AFA009F0A7
:103930006DF9BD4EA06998B3B0F5803F30D0B0F5B9
:10394000003F2DD0B0F5403F2AD0B0F5802F27D0D2
:10395000B0F5A02F24D0B0F5C02F21D0B0F5E02FC6
:103960001ED0B0F5002F1BD0B0F5102F18D0B0F539
:10397000202F15D0B0F5302F12D0B0F5402F0FD03A
:10398000B0F5502F0CD0B0F5602F09D0B0F5702FE6
:1039900006D0B04204D040F23F3194A009F036F98D
:1039A0002069401E032804D94FF450718FA009F0FC
:1039B0002DF9607D30B1012804D040F241318BA057
:1039C00009F024F9207D30B1012804D040F24231C1
:1039D00086A009F01BF92868406810F0407009D0F3
:1039E000B0F1807F0BD0B0F1007F0DD0B0F1407FFF
:1039F0000ED010E0E068B0F5805F11D30BE0E06816
:103A0000B0F5806F0CD306E0E068FF2808D902E02B
:103A1000E0683F2804D940F2463174A009F0F6F876
:103A2000A069B0420FD0E06968B1B0F5801F0AD03C
:103A3000B0F5001F07D0B0F5401F04D040F24B3165
:103A40006AA009F0E3F895F83C00012819D001209C
:103A500085F83C00206807212A68092813D9D36813
:103A60000A3800EB400081408B43D3602078A16886
:103A70000A3800EB400081402868C2681143C160E9
:103A800010E0022070BD136900EB400081408B43C1
:103A900013612178A06801EB4101884029680A6917
:103AA000104308612868816B21F440118163286804
:103AB000816B228A5D4B03EB0252114381632079B3
:103AC000217C401AC01C00EB80001F218140286827
:103AD000826B8A4382632079217C401AC01C00EBF0
:103AE0008001208880B2884029688A6B10438863EF
:103AF000A069B0422868816821F47021816028683B
:103B000081680CD0A269114381602868816821F422
:103B10004011816028688168E269114301E021F465
:103B200040118160607D00282868416802D041F41E
:103B3000806101E021F480614160207D00282868D7
:103B4000416802D041F4805101E021F4805141608C
:103B50006068012816D002281FD00328286827D0C3
:103B6000016A6FF30B0101622868016AE268114380
:103B7000016230492A682E488A4227D12268122AD7
:103B800020D023E0286841696FF30B014161286868
:103B90004169E26811434161EBE7286881696FF38D
:103BA0000B01816128688169E26811438161E0E766
:103BB000C1696FF30B01C1612868C169E2681143F3
:103BC000C161D6E7426842F4800242602A688A42B4
:103BD00008D12168102901D0112903D1416841F48D
:103BE00000014160002085F83C0070BD2E2E2F445E
:103BF0007269766572732F53544D33324634787838
:103C00005F48414C5F4472697665722F5372632F2F
:103C100073746D3332663478785F68616C5F6164A9
:103C2000635F65782E63000001000F000000F0FF65
:103C30000023014000200140F8B50026054600960B
:103C400008680C46122804D940F28B615DA008F088
:103C5000DDFF6068401E0F2804D940F28C6159A036
:103C600008F0D4FFA06890B1012810D002280ED02F
:103C700003280CD004280AD0052808D0062806D02E
:103C8000072804D040F28D614EA008F0BFFF95F8E0
:103C90003C00012819D0012085F83C00206807214C
:103CA0002A68092813D9D3680A3800EB40008140FC
:103CB0008B43D3602178A0680A3901EB4101884029
:103CC0002968CA681043C86010E00220F8BD136973
:103CD00000EB400081408B4313612178A06801EB29
:103CE0004101884029680A691043086160681F2102
:103CF000072813D22A68536B401E00EB80008140D6
:103D00008B43536321792088491E80B201EB8101E6
:103D1000884029684A6B1043486327E02A680D28C9
:103D200012D2136BC01F00EB800081408B431363E2
:103D300021792088C91F80B201EB81018840296860
:103D40000A6B1043086311E0D36A0D3800EB800062
:103D500081408B43D362217920880D3980B201EBF9
:103D6000810188402968CA6A1043C86224492A68C8
:103D700022488A4206D12268122A03D1426842F4BC
:103D8000800242602A688A4218D12168102901D035
:103D9000112913D1416841F40001416020681028C5
:103DA0000CD1184818490068B0FBF1F000EB800016
:103DB000400000E0401E00900028FBD185F83C60E8
:103DC0000020F8BD2E2E2F447269766572732F5332
:103DD000544D3332463478785F48414C5F447269C1
:103DE0007665722F5372632F73746D333266347835
:103DF000785F68616C5F6164632E6300002301403B
:103E0000002001402030002040420F00006803499C
:103E1000884202D102490120087070470020014009
:103E200000300020704770472DE9F04704004FF044
:103E300000057DD07249206888420AD071498842C5
:103E400007D07149884204D04FF4A1716FA008F0E7
:103E5000DDFE606868B1B0F5803F0AD0B0F5003F84
:103E600007D0B0F5403F04D040F2431167A008F0FE
:103E7000CDFEA0684FF080774FF000784FF040798A
:103E800050B1B84208D0404506D0484504D04FF460
:103E9000A2715EA008F0BAFE206930B1012804D0FA
:103EA00040F2451159A008F0B1FE207E30B1012842
:103EB00004D04FF4A37155A008F0A8FE614EA06A8B
:103EC00080B3B8422ED040452CD048452AD0B0F11E
:103ED000806F27D0B0F1A06F24D0B0F1C06F21D097
:103EE000B0F1E06F1ED0B0F1006F1BD0B0F1106FD9
:103EF00018D0B0F1206F15D0B0F1306F12D0B0F102
:103F0000406F0FD0B0F1506F0CD0B0F1606F09D09E
:103F1000B0F1706F06D0B04204D040F247113BA020
:103F200008F074FEE06848B1B0F5006F06D000E01C
:103F300043E04FF4A47135A008F068FEE069401E2C
:103F40000F2804D940F2491130A008F05FFE94F820
:103F5000300030B1012804D04FF4A5712BA008F037
:103F600055FE6069012807D030B1022804D040F224
:103F70004B1126A008F04AFE94F8200030B1012829
:103F800004D04FF4A67121A008F040FEA06AB04210
:103F90000FD0E06A68B1B0F1805F0AD0B0F1005F85
:103FA00007D0B0F1405F04D04FF4A87117A008F01B
:103FB0002DFE206C002618B108E00120BDE8F08736
:103FC000204600F041F8666484F83C60206CC0062E
:103FD00010D4206C20F4885040F002002064204669
:103FE000FDF7B6FD6664206C20F0020040F0010091
:103FF000206400E0012584F83C602846DEE70000EC
:104000000020014000210140002201402E2E2F44BB
:104010007269766572732F53544D33324634787813
:104020005F48414C5F4472697665722F5372632F0B
:1040300073746D3332663478785F68616C5F616485
:10404000632E63000100000F70B586B00646142190
:104050006846FCF701F91E493068884235D11D4891
:104060000025016841F480710160006800F48070EF
:10407000059018481438016841F00101016000689A
:10408000694600F001000590542000900320CDE91E
:104090000105114800F0D8FC114C1048C4E9000596
:1040A0000015A560C4E90350400060618000C4E9C8
:1040B00006054FF44030C4E90805204600F08AFAAE
:1040C00008B1FEF745FFB463A66306B070BD0000FB
:1040D00000200140443802400000024010640240C9
:1040E000A03000202DE9F843002604460096007E0B
:1040F00017468846354630B1012804D040F25A515F
:1041000053A008F083FDE06A68B1B0F1805F0AD087
:10411000B0F1005F07D0B0F1405F04D040F25B51D6
:104120004BA008F073FD94F83C00012807D0012053
:1041300084F83C0020688168C90703D012E002209F
:10414000BDE8F883816841F0010181604E484F4924
:104150000068B0FBF1F000EB400000E0401E009072
:104160000028FBD120688168C90503D5816821F446
:104170008071816020688168C9075ED0216C40F23F
:104180000162914341F4807121644068400505D586
:10419000206C20F4005040F480502064206CC00457
:1041A00004D5606C20F00600606400E0666484F86A
:1041B0003C60A16B3748364EC863A16B3648086433
:1041C000A16B3648C86421686FF02200086020683F
:1041D000416841F0806141602068816841F48071EC
:1041E000816021683B4642464C31A06B00F062FB87
:1041F000054670682A49C006206806D0884224D146
:10420000816811F0405F13D01FE08842F8D0254A42
:10421000904203D1D1F80423D206F1D0224A904231
:1042200013D1D1F8041301F01F011029E8D30CE0D9
:10423000816841F08041816007E0206C40F010000F
:104240002064606C40F001006064284678E700005C
:104250002E2E2F447269766572732F53544D33326C
:10426000463478785F48414C5F4472697665722FB6
:104270005372632F73746D3332663478785F68617C
:104280006C5F6164632E63002030002040420F00A9
:1042900000230140C31A0008471B0008311B000817
:1042A00000200140002101400022014070B5044679
:1042B00000682149002588420AD02049884207D059
:1042C0001F49884204D040F2ED511EA008F09EFC28
:1042D00094F83C0001280CD0012084F83C002068B0
:1042E000816821F00101816020688168C90702D0DE
:1042F0001DE0022070BD816821F480718160A06B97
:1043000090F83510022907D100F038F8050003D0E5
:10431000206C40F0400020642068416821F08061FA
:104320004160206C20F4885040F00100206400209F
:1043300084F83C00284670BD002001400021014067
:10434000002201402E2E2F447269766572732F531E
:10435000544D3332463478785F48414C5F4472693B
:104360007665722F5372632F73746D3332663478AF
:10437000785F68616C5F6164632E63002DE9F041D2
:104380000446876D00F040FD064694F83500002590
:10439000022806D08020606584F834500120BDE8F2
:1043A000F0812068016821F01601016020684169F0
:1043B00021F080014161206C08B9A06C20B1206817
:1043C000016821F0080101602068016821F0010105
:1043D00001600CE000F018FD801B052807D92020A3
:1043E0006065032084F8350084F83450D7E72068EE
:1043F0000068C007EED194F85C103F208840B86098
:10440000012084F8350084F834500020C7E790F884
:104410003510022903D08021416501207047052114
:1044200080F835100068016821F00101016000206A
:10443000704700002DE9F84304464FF00009CDF81D
:10444000009063484FF41651A56D0068B0FBF1F77A
:104450002E6894F85C10082000FA01F131420FD068
:1044600021680A6852070BD50A6822F004020A6024
:1044700094F85C108840A860606D40F001006065B1
:1044800094F85C104FF0010808FA01F0304208D0AF
:1044900021684969090604D5A860606D40F00200F2
:1044A000606594F85C1004208840304208D0216890
:1044B0000968890704D5A860606D40F00400606554
:1044C00094F85C1010208840304218D021680968A8
:1044D000090714D5A86020680168490304D500685D
:1044E000000308D5A16C07E00168C90503D4016881
:1044F00021F008010160216C09B12046884794F839
:104500005C1020208840304231D021680968C906FB
:104510002DD5A86094F8350005282068016806D0DC
:10452000490347D5006800031DD4616C1CE021F0ED
:10453000160101602068416921F080014161206C11
:1045400008B9A06C20B12068016821F00801016061
:1045500094F85C103F208840A86084F8358084F887
:104560003490216D1FE0E16B09B120468847606DF2
:1045700000282BD0606DC00714D0052084F83500CA
:104580002068016821F0010101600098401C009042
:10459000B84203D820680068C007F6D184F8358097
:1045A00084F83490E16C002910D001B02046BDE8B9
:1045B000F04308470168C905D5D4016821F010010E
:1045C000016084F8358084F83490CCE7BDE8F88346
:1045D000203000202DE9F041044600F015FC05468E
:1045E000002C7CD0A249206888423ED0A0491831D6
:1045F00088423AD09E493031884236D09C49483171
:10460000884232D09A49603188422ED09849783118
:1046100088422AD096499031884226D09449A831C0
:10462000884222D0934988421FD09249183188424B
:104630001BD090493031884217D08E49483188428A
:1046400013D08C49603188420FD08A497831884232
:104650000BD088499031884207D08649A8318842DA
:1046600003D0B72184A008F0D1FA6068C0B1B0F1DE
:10467000007F15D0B0F1806F12D0B0F1C06F0FD0B5
:10468000B0F1006F0CD0B0F1206F09D0B0F1406FE5
:1046900006D0B0F1606F03D0B82177A008F0B6FA69
:1046A000A06838B1402805D0802803D0B92172A075
:1046B00008F0ACFAE068B0F5007F04D018B1BA2178
:1046C0006DA008F0A3FA2069B0F5806F04D018B18E
:1046D000BB2169A008F09AFA606958B100E071E066
:1046E000B0F5006F06D0B0F5805F03D0BC2162A0AA
:1046F00008F08CFAA06948B1B0F5005F06D0B0F5BB
:10470000804F03D0BD215CA008F080FAE06940B181
:10471000B0F5807F05D0202803D0BE2156A008F038
:1047200075FA206A60B1B0F5803F09D0B0F5003F5E
:1047300006D0B0F5403F03D0BF214FA008F066FA85
:10474000606A002832D0042806D0C0214AA008F0B0
:104750005DFA606A002829D0A06A48B1012807D014
:10476000022805D0032803D0C52143A008F04EFA43
:10477000E06A60B1B0F5000F09D0B0F1807F06D0DB
:10478000B0F1C07F03D0C6213BA008F03FFA206BF8
:1047900060B1B0F5001F09D0B0F5800F06D0B0F5BC
:1047A000C00F03D0C72134A008F030FA022084F8EB
:1047B0003500002684F834602068016821F001018A
:1047C00001600EE00120BDE8F08100BF00F01CFB9D
:1047D000401B052805D920206065032084F835009A
:1047E000F1E720680068C007F0D1226811683048FE
:1047F0000140D4E901031843D4E903352B4318439E
:1048000063691843A3691843E3691843236A18438B
:104810000843616A042903D1D4E90B1319430843FF
:10482000106020684069656A20F00700294605434A
:10483000012704290CD1A06A0543E06A40B1204653
:10484000FDF7F4FF20B14020606584F83570B9E7CA
:10485000206845612046FDF7D5FF94F85C203F2194
:1048600091408160666584F835700020ABE70000F8
:1048700010600240106402402E2E2F44726976654B
:1048800072732F53544D3332463478785F48414C1D
:104890005F4472697665722F5372632F73746D3340
:1048A00032663478785F68616C5F646D612E630096
:1048B0003F8010F02DE9F04789460446876D0025BA
:1048C000581E4FF6FF711E469046884204D340F2B0
:1048D000CB111CA008F09AF994F8340001280DD0EF
:1048E000012084F8340094F835100020012907D005
:1048F00084F8340002252846BDE8F0870220FBE753
:10490000022184F835106065334642464946204608
:10491000FDF7B6FF94F85C103F208840B86020682F
:10492000016841F016010160206C20B12068016827
:1049300041F0080101602068016841F00101016057
:10494000D9E700002E2E2F447269766572732F53BB
:10495000544D3332463478785F48414C5F44726935
:104960007665722F5372632F73746D3332663478A9
:10497000785F68616C5F646D612E630070B504469A
:1049800000F042FA0546601C02D004480078044456
:1049900000F03AFA401BA042FAD370BD1430002058
:1049A0002DE9F04186B014216846FBF755FC2048FC
:1049B0000168002939D1012101601E4800240168E5
:1049C00041F00101016000684FF4805800F00100DF
:1049D0000C27CDF80080CDE904700326022503964C
:1049E000CDE901546946144800F02EF84FF6807066
:1049F000CDE9000502AA694682E8D0000F4800F020
:104A000023F84CF23370CDE9000502AA694682E82A
:104A1000D0000B4800F018F802AA694682E8D000DE
:104A2000CDE90085074800F00FF806B0BDE8F08139
:104A300004300020383802400014024000100240C8
:104A4000000C0240001802402DE9F84FDFF888B250
:104A50000D46044658451BD0A048844218D0A048B3
:104A6000844215D09F48844212D09F4884420FD080
:104A70009E4884420CD09E48844209D09D4884427E
:104A800006D09D48844203D0AC219CA008F0BEF81B
:104A900028680104090C01D0000C03D0AD2197A0B7
:104AA00008F0B4F86868F8B101281DD011281BD0AF
:104AB000022819D0122817D0B0F5881F14D0B0F5ED
:104AC000041F11D0B0F5441F0ED0B0F5901F0BD0CD
:104AD000B0F5081F08D0B0F5481F05D0032803D053
:104AE000AE2186A008F092F800264FF0010A4FF0A0
:104AF000030900BF0AFA06F02F68804607404745C1
:104B00007ED1287900F00300012801D002281DD1B0
:104B1000E86848B1012807D0022805D0032803D04F
:104B2000C02176A008F072F8A168720009FA02F0BC
:104B30008143E86890400843A0606068297920EAD2
:104B40000800C1F30011B140014361602879C043FE
:104B5000800712D0A86838B1012805D0022803D0F8
:104B6000D12166A008F052F8E168720009FA02F05B
:104B70008143A86890400843E060287900F0030072
:104B800002282ED12869F8B109281DD001281BD090
:104B9000022819D0032817D0042815D0052813D0CF
:104BA000062811D007280FD008280DD00A280BD0CE
:104BB0000B2809D00C2807D00D2805D00F2803D0CA
:104BC000DE214EA008F022F8F00804EB8002106A03
:104BD0007107CB0E0F219940884329699940014301
:104BE00011622068720009FA02F18843297901F004
:104BF0000301914001432160686810F4403F00E0E8
:104C000063E062D04C48016841F480410160006873
:104C100026F0030100F48040009048480A18D2F8BA
:104C20000808B1070B0F0F21994088435C4501D15B
:104C3000002123E029498C4201D101211EE02849AD
:104C40008C4201D1022119E026498C4201D1032175
:104C500014E025498C4201D104210FE023498C4204
:104C600001D105210AE022498C4201D1062105E04B
:104C700020498C4201D1072100E0082199400143DD
:104C8000C2F808182E4908686A68B843D20200D5ED
:104C9000384308602A49091D08686A68B8439202C7
:104CA00000D5384308602649091F08686A68B84378
:104CB000920300D5384308602149083908686A68BA
:104CC000B843D20300D538430860761C102EFFF499
:104CD00011AFBDE8F88F0000000002400004024060
:104CE00000080240000C0240001002400014024084
:104CF00000180240001C0240002002402E2E2F44CB
:104D00007269766572732F53544D33324634787816
:104D10005F48414C5F4472697665722F5372632F0E
:104D200073746D3332663478785F68616C5F677076
:104D3000696F2E63000000004438024000300140DB
:104D4000083C014070B50C00054604D14FF4BE711B
:104D500003A007F05BFF2869204000D0012070BD50
:104D60002E2E2F447269766572732F53544D333251
:104D7000463478785F48414C5F4472697665722F9B
:104D80005372632F73746D3332663478785F686161
:104D90006C5F6770696F2E630000000070B5154688
:104DA0000C00064604D140F29D1108A007F02EFF2A
:104DB00045B1012D04D04FF4CF7104A007F026FFB8
:104DC000B46170BD2004B06170BD00002E2E2F4470
:104DD0007269766572732F53544D33324634787846
:104DE0005F48414C5F4472697665722F5372632F3E
:104DF00073746D3332663478785F68616C5F6770A6
:104E0000696F2E6300000000014880687047000051
:104E10001430002002488168027811448160704794
:104E2000143000200B4810B5016841F40071016096
:104E3000016841F480610160016841F480710160A2
:104E4000032000F0C3F80F2000F006F800F024F86B
:104E5000002010BD003C024070B50D4D04464FF4DB
:104E60007A712878B1FBF0F00A490968B1FBF0F0DB
:104E700000F0E6FC48B9102C07D200222146501E53
:104E800000F054F800206C6070BD012070BD00007F
:104E900014300020203000200A4808B5016841F491
:104EA00080410160006800F4804000900548001FC8
:104EB000016841F080510160006800F0805000906E
:104EC00008BD00004438024010B5040003D5BC21E1
:104ED00007A007F09BFE002C09DB04F01F01012056
:104EE00088406109890001F1E021C1F8000110BD8D
:104EF0002E2E2F447269766572732F53544D3332C0
:104F0000463478785F48414C5F4472697665722F09
:104F10005372632F73746D3332663478785F6861CF
:104F20006C5F636F727465782E63000070B5154610
:104F30000C460646102A03D3A82114A007F066FEEB
:104F4000102C03D3A92111A007F060FE1E480068B1
:104F5000C0F30223C3F107022046042A00D9042229
:104F6000191D072901D2002300E0DB1E012404FAE9
:104F700002F1491E014099409C40641E2C4021438F
:104F80003046BDE8704006F0E2BA00002E2E2F44F5
:104F90007269766572732F53544D33324634787884
:104FA0005F48414C5F4472697665722F5372632F7C
:104FB00073746D3332663478785F68616C5F636FE9
:104FC000727465782E6300000CED00E010B50446A5
:104FD00007280BD0062C09D0052C07D0042C05D0AF
:104FE000032C03D0902108A007F010FE154904F00F
:104FF000070208684FF6FF03184040EA0220124AF1
:105000001043086010BD00002E2E2F447269766593
:1050100072732F53544D3332463478785F48414C85
:105020005F4472697665722F5372632F73746D33A8
:1050300032663478785F68616C5F636F727465782C
:105040002E6300000CED00E00000FA052DE9F047AA
:105050000E4604007DD02068401E0E2804D940F280
:105060005A217AA007F0D2FD96B1012E10D0022E5F
:105070000ED0032E0CD0042E0AD0052E08D0062EFA
:1050800006D0072E04D040F25B2170A007F0BEFDD1
:10509000DFF8F081D8F80000F7B200F00700B04266
:1050A00007D288F80070D8F8000000F00700B0427E
:1050B0004FD12068744D810729D5400703D5286852
:1050C00040F4E05028602078000703D5286840F4B9
:1050D00060402860A068A0B1802812D0902810D02D
:1050E000A0280ED0B0280CD0C0280AD0D02808D0D4
:1050F000E02806D0F02804D040F27E2153A007F02B
:1051000085FD2868A16820F0F00008432860207819
:10511000C00743D0DFF870916068A9F1080988B131
:10512000012822D0022824D0032822D040F2852151
:1051300046A007F06BFD6068012816D0022818D041
:10514000032816D0D9F800008007002833DA286831
:1051500000E030E0616820F0030008432860FFF7BA
:1051600053FE814641F2883A11E0D9F800008003ED
:10517000EBE7D9F800008001E7E700BFFFF744FE46
:10518000A0EB0901514502D90320BDE8F08728684A
:10519000616800F00C00B0EB810FEFD1D8F800107F
:1051A000404601F00701B14207D90770006800F0DE
:1051B0000700B04201D00120E7E720784FF4805685
:1051C00040074FF4A0574FF4C0584FF4E05914D59E
:1051D000E06860B1B0420AD0B84208D0404506D07D
:1051E000484504D040F2C32118A007F00FFD2868FD
:1051F000E16820F4E050084328602078000715D5C6
:10520000206960B1B0420AD0B84208D0404506D00B
:10521000484504D040F2CA210CA007F0F7FC2868EA
:10522000216920F4604040EAC100286000F054F891
:105230002968164AC1F30311515CC840144908603B
:1052400014480068FFF708FE00209EE72E2E2F442A
:105250007269766572732F53544D333246347878C1
:105260005F48414C5F4472697665722F5372632FB9
:1052700073746D3332663478785F68616C5F726323
:10528000632E6300003C024008380240B4D000089E
:1052900020300020183000200448054900680968C3
:1052A000044AC1F38221515CC8407047203000207D
:1052B00008380240C4D0000804480549006809685D
:1052C000044AC1F34231515CC8407047203000208D
:1052D00008380240C4D00008154810B5006810F026
:1052E0000C02144813D04110042A0FD0082A0ED102
:1052F0000F4C241F2268236802F03F025B0207D58F
:105300002068C0F38810A0FB010106E0084610BD2C
:105310002168C1F38811A1FB00010023FAF752FFB5
:105320002168C1F30141491C4900B0FBF1F010BDF7
:10533000083802400024F4002DE9F84F04007DD025
:1053400020680F2803D9E621F7A007F05FFC20783A
:10535000DFF80C94C007A9F1040555D060684FF43C
:1053600080364FF4A02738B1B04205D0B84203D000
:10537000EB21EDA007F04AFCF948001D0168C1F3DC
:105380008101012908D00068C0F3810002280AD1F8
:10539000D9F80000400206D52868800334D560683B
:1053A0000028CCD030E06068B04203D1286840F4D7
:1053B00080300CE0B842286803D140F48020286097
:1053C000F4E720F480302860286820F480202860EA
:1053D000606860B1FFF718FD064604E0FFF714FDB2
:1053E000801B64287ED828688003F7D50CE0FFF77F
:1053F0000BFD064605E000BFFFF706FD801B642895
:10540000F0D828688003F7D42078DFF85883800725
:105410004FF0000A56D5E06830B1012804D040F2C0
:105420001D11C1A007F0F2FB20691F2804D94FF419
:105430008F71BDA007F0EAFBC94800E092E0001DB3
:10544000016811F00C0F08D00068C0F38100022839
:1054500010D1D9F8000040020CD42868800702D58A
:10546000E06801287ED12868216920F0F80040EA30
:10547000C10017E0E068B8B10120C8F80000FFF7EC
:10548000C3FC064605E000BFFFF7BEFC801B0228F8
:10549000A8D828688007F7D5286820F0F801206987
:1054A00041EAC00028600DE0C8F800A0FFF7ACFC9E
:1054B000064604E0FFF7A8FC801B022892D8286863
:1054C0008007F7D4207800072ED5A54EA64F606937
:1054D0007036D0B1012808D04FF4AF7192A007F018
:1054E00095FB00E04BE1606978B101203860FFF77F
:1054F0008BFC074605E000BFFFF786FCC01B0228B7
:10550000C6D830688007F7D50EE0C7F800A0FFF7CF
:105510007BFC074605E000BFFFF776FCC01B0228B6
:10552000B6D830688007F7D42078400776D5A068D1
:10553000002740B1012806D0052804D04FF4C571DA
:1055400079A007F063FBDFF818B20BF13C0BDBF836
:105550000000C0000DD4DBF8001041F08051CBF802
:10556000001000E038E1DBF80000012700F0805077
:1055700000907E4E3068C00511D4306840F48070D1
:105580003060FFF741FC009006E000BFFFF73CFCF5
:105590000099401A022891D83068C005F6D5704E9F
:1055A000A0686C3601280FD00528306810D020F094
:1055B00001003060306820F004003060A068B8B1AD
:1055C000FFF722FC00900FE0306840F00100F4E7A4
:1055D00040F004003060F7E7FFF716FC0099411A2D
:1055E00041F2883081428BD830688007F4D50EE0D4
:1055F000FFF70AFC009007E0FFF706FC0099411A4C
:1056000041F2883081428BD830688007F4D42FB1C2
:10561000DBF8001021F08051CBF80010A0690028C1
:1056200076D0012809D0022807D040F2CD113EA043
:1056300007F0ECFAA0690028F2D04948001D006884
:10564000C0F381000228A0696DD0022805D0C8F8F7
:1056500060A0FFF7D9FB044694E0E06938B1B0F5EB
:10566000800F04D04FF4EB712FA007F0CFFA206A1F
:10567000801E3D2804D940F2D7112BA007F0C6FAAE
:10568000606A3238B0F5BF7F04D94FF4EC7126A0C0
:1056900007F0BCFAA06A02280AD0042808D006281D
:1056A00006D0082804D040F2D9111FA007F0AEFAA6
:1056B000E06A801E0D2804D94FF4ED711AA007F09E
:1056C000A5FA4746C8F860A0FFF79EFB064604E02F
:1056D000FFF79AFB801B022851D828688001F7D475
:1056E000D4E907010843A16A214A490802EB0141B4
:1056F000626A41EA8211084394F82C1040EA016181
:10570000C9F8001001203866FFF77EFB044606E06A
:1057100064E000BFFFF778FB001B02282FD8286841
:105720008001F7D55AE031E02E2E2F44726976655C
:1057300072732F53544D3332463478785F48414C5E
:105740005F4472697665722F5372632F73746D3381
:1057500032663478785F68616C5F7263632E6300D1
:105760000438024000004742800E4742007000406B
:105770000000FFFFFFF748FB001B022802D90320AF
:10578000BDE8F88F28688001F4D427E00128F7D01D
:10579000D9F80000E26900F4800191421CD1226A2C
:1057A00000F03F01914217D147F6C071626A014093
:1057B000B1EB821F10D1A26A4FF0FF3300F44031E9
:1057C00003EB5202B1EB024F06D194F82C1000F01B
:1057D0007060B0EB016F01D00120D1E70020CFE76E
:1057E00070B515460E46040003D094F8490010B178
:1057F00007E0012070BD002084F84800204600F03A
:105800001DF804F108012068FDF730FC3146A2685C
:105810002068FDF70FFDD4E901022946236BFDF74F
:1058200099FB2168A06851F8202042F0010241F85C
:105830002020012084F84900002070BDFFF7B0B897
:1058400010B5401EB0F1807F01D3012010BD4FF094
:10585000E02460610F21601705F079FE0020A0614F
:1058600007202061002010BD2DE9F05F044600688C
:105870003A4E3B4FDFF8EC80DFF8EC90DFF8ECA01D
:105880000D464FF0804BB04215D0584513D0B8426A
:1058900011D040450FD048450DD04FEAB64188425F
:1058A00009D03349884206D0504504D040F2A9714E
:1058B00030A007F0ABF9286890B1102810D020284C
:1058C0000ED030280CD040280AD0502808D06028AC
:1058D00006D0702804D040F2AA7126A007F096F9ED
:1058E0006868802805D020B140F2AB7121A007F094
:1058F0008DF994F83C0001282DD0012284F83C2039
:10590000022084F83D00216848688B6820F0700C04
:10591000286840EA0C0048602068B0420FD0584523
:105920000DD0B8420BD0404509D0484507D050456E
:1059300005D01F49884202D01E49884204D16968B7
:1059400023F080031943816084F83D20002084F80F
:105950003C00BDE8F09F0220FBE700000000014092
:105960000004004000080040000C0040000401401A
:10597000001400402E2E2F447269766572732F53E7
:10598000544D3332463478785F48414C5F447269F5
:105990007665722F5372632F73746D333266347869
:1059A000785F68616C5F74696D5F65782E63000075
:1059B000004001400018004070B5040057D048492D
:1059C00020688E03474D884229D0B04227D04649EF
:1059D000884224D04549884221D0A8421FD044495A
:1059E00088421CD04349884219D04349884216D086
:1059F0004249884213D04249884210D041498842E6
:105A00000DD0414988420AD04049884207D04049D8
:105A1000884204D040F213113EA007F0F7F8A068C6
:105A200060B110280AD0202808D0402806D060286D
:105A300004D04FF48A7137A007F0E8F8206950B11C
:105A4000B0F5807F07D0B0F5007F04D040F215118B
:105A500030A007F0DBF82068B0420AD0A84208D096
:105A6000E0684FF6FE71401E884209D903E001202C
:105A700070BDE06820B94FF48B7126A007F0C6F81E
:105A8000A06930B1802804D040F2171121A007F09E
:105A9000BDF894F83D0028B9002084F83C00204669
:105AA00000F054F8022084F83D00211D206805F024
:105AB000C3F9012084F8460084F83E0084F83F00D2
:105AC00084F8400084F8410084F8420084F84300E0
:105AD00084F8440084F8450084F83D00002070BD3F
